{
  "address": "0x70CAEB6255061f57caE517a8961F128cEd27AACA",
  "abi": [
    {
      "inputs": [
        {
          "internalType": "contract IPool",
          "name": "pool",
          "type": "address"
        }
      ],
      "stateMutability": "nonpayable",
      "type": "constructor"
    },
    {
      "anonymous": false,
      "inputs": [
        {
          "indexed": true,
          "internalType": "address",
          "name": "owner",
          "type": "address"
        },
        {
          "indexed": true,
          "internalType": "address",
          "name": "spender",
          "type": "address"
        },
        {
          "indexed": false,
          "internalType": "uint256",
          "name": "value",
          "type": "uint256"
        }
      ],
      "name": "Approval",
      "type": "event"
    },
    {
      "anonymous": false,
      "inputs": [
        {
          "indexed": true,
          "internalType": "address",
          "name": "from",
          "type": "address"
        },
        {
          "indexed": true,
          "internalType": "address",
          "name": "to",
          "type": "address"
        },
        {
          "indexed": false,
          "internalType": "uint256",
          "name": "value",
          "type": "uint256"
        },
        {
          "indexed": false,
          "internalType": "uint256",
          "name": "index",
          "type": "uint256"
        }
      ],
      "name": "BalanceTransfer",
      "type": "event"
    },
    {
      "anonymous": false,
      "inputs": [
        {
          "indexed": true,
          "internalType": "address",
          "name": "from",
          "type": "address"
        },
        {
          "indexed": true,
          "internalType": "address",
          "name": "target",
          "type": "address"
        },
        {
          "indexed": false,
          "internalType": "uint256",
          "name": "value",
          "type": "uint256"
        },
        {
          "indexed": false,
          "internalType": "uint256",
          "name": "balanceIncrease",
          "type": "uint256"
        },
        {
          "indexed": false,
          "internalType": "uint256",
          "name": "index",
          "type": "uint256"
        }
      ],
      "name": "Burn",
      "type": "event"
    },
    {
      "anonymous": false,
      "inputs": [
        {
          "indexed": true,
          "internalType": "address",
          "name": "underlyingAsset",
          "type": "address"
        },
        {
          "indexed": true,
          "internalType": "address",
          "name": "pool",
          "type": "address"
        },
        {
          "indexed": false,
          "internalType": "address",
          "name": "treasury",
          "type": "address"
        },
        {
          "indexed": false,
          "internalType": "address",
          "name": "incentivesController",
          "type": "address"
        },
        {
          "indexed": false,
          "internalType": "uint8",
          "name": "aTokenDecimals",
          "type": "uint8"
        },
        {
          "indexed": false,
          "internalType": "string",
          "name": "aTokenName",
          "type": "string"
        },
        {
          "indexed": false,
          "internalType": "string",
          "name": "aTokenSymbol",
          "type": "string"
        },
        {
          "indexed": false,
          "internalType": "bytes",
          "name": "params",
          "type": "bytes"
        }
      ],
      "name": "Initialized",
      "type": "event"
    },
    {
      "anonymous": false,
      "inputs": [
        {
          "indexed": true,
          "internalType": "address",
          "name": "caller",
          "type": "address"
        },
        {
          "indexed": true,
          "internalType": "address",
          "name": "onBehalfOf",
          "type": "address"
        },
        {
          "indexed": false,
          "internalType": "uint256",
          "name": "value",
          "type": "uint256"
        },
        {
          "indexed": false,
          "internalType": "uint256",
          "name": "balanceIncrease",
          "type": "uint256"
        },
        {
          "indexed": false,
          "internalType": "uint256",
          "name": "index",
          "type": "uint256"
        }
      ],
      "name": "Mint",
      "type": "event"
    },
    {
      "anonymous": false,
      "inputs": [
        {
          "indexed": true,
          "internalType": "address",
          "name": "from",
          "type": "address"
        },
        {
          "indexed": true,
          "internalType": "address",
          "name": "to",
          "type": "address"
        },
        {
          "indexed": false,
          "internalType": "uint256",
          "name": "value",
          "type": "uint256"
        }
      ],
      "name": "Transfer",
      "type": "event"
    },
    {
      "inputs": [],
      "name": "ATOKEN_REVISION",
      "outputs": [
        {
          "internalType": "uint256",
          "name": "",
          "type": "uint256"
        }
      ],
      "stateMutability": "view",
      "type": "function"
    },
    {
      "inputs": [],
      "name": "DOMAIN_SEPARATOR",
      "outputs": [
        {
          "internalType": "bytes32",
          "name": "",
          "type": "bytes32"
        }
      ],
      "stateMutability": "view",
      "type": "function"
    },
    {
      "inputs": [],
      "name": "EIP712_REVISION",
      "outputs": [
        {
          "internalType": "bytes",
          "name": "",
          "type": "bytes"
        }
      ],
      "stateMutability": "view",
      "type": "function"
    },
    {
      "inputs": [],
      "name": "PERMIT_TYPEHASH",
      "outputs": [
        {
          "internalType": "bytes32",
          "name": "",
          "type": "bytes32"
        }
      ],
      "stateMutability": "view",
      "type": "function"
    },
    {
      "inputs": [],
      "name": "POOL",
      "outputs": [
        {
          "internalType": "contract IPool",
          "name": "",
          "type": "address"
        }
      ],
      "stateMutability": "view",
      "type": "function"
    },
    {
      "inputs": [],
      "name": "RESERVE_TREASURY_ADDRESS",
      "outputs": [
        {
          "internalType": "address",
          "name": "",
          "type": "address"
        }
      ],
      "stateMutability": "view",
      "type": "function"
    },
    {
      "inputs": [],
      "name": "UNDERLYING_ASSET_ADDRESS",
      "outputs": [
        {
          "internalType": "address",
          "name": "",
          "type": "address"
        }
      ],
      "stateMutability": "view",
      "type": "function"
    },
    {
      "inputs": [
        {
          "internalType": "address",
          "name": "owner",
          "type": "address"
        },
        {
          "internalType": "address",
          "name": "spender",
          "type": "address"
        }
      ],
      "name": "allowance",
      "outputs": [
        {
          "internalType": "uint256",
          "name": "",
          "type": "uint256"
        }
      ],
      "stateMutability": "view",
      "type": "function"
    },
    {
      "inputs": [
        {
          "internalType": "address",
          "name": "spender",
          "type": "address"
        },
        {
          "internalType": "uint256",
          "name": "amount",
          "type": "uint256"
        }
      ],
      "name": "approve",
      "outputs": [
        {
          "internalType": "bool",
          "name": "",
          "type": "bool"
        }
      ],
      "stateMutability": "nonpayable",
      "type": "function"
    },
    {
      "inputs": [
        {
          "internalType": "address",
          "name": "user",
          "type": "address"
        }
      ],
      "name": "balanceOf",
      "outputs": [
        {
          "internalType": "uint256",
          "name": "",
          "type": "uint256"
        }
      ],
      "stateMutability": "view",
      "type": "function"
    },
    {
      "inputs": [
        {
          "internalType": "address",
          "name": "from",
          "type": "address"
        },
        {
          "internalType": "address",
          "name": "receiverOfUnderlying",
          "type": "address"
        },
        {
          "internalType": "uint256",
          "name": "amount",
          "type": "uint256"
        },
        {
          "internalType": "uint256",
          "name": "index",
          "type": "uint256"
        }
      ],
      "name": "burn",
      "outputs": [],
      "stateMutability": "nonpayable",
      "type": "function"
    },
    {
      "inputs": [],
      "name": "decimals",
      "outputs": [
        {
          "internalType": "uint8",
          "name": "",
          "type": "uint8"
        }
      ],
      "stateMutability": "view",
      "type": "function"
    },
    {
      "inputs": [
        {
          "internalType": "address",
          "name": "spender",
          "type": "address"
        },
        {
          "internalType": "uint256",
          "name": "subtractedValue",
          "type": "uint256"
        }
      ],
      "name": "decreaseAllowance",
      "outputs": [
        {
          "internalType": "bool",
          "name": "",
          "type": "bool"
        }
      ],
      "stateMutability": "nonpayable",
      "type": "function"
    },
    {
      "inputs": [],
      "name": "getIncentivesController",
      "outputs": [
        {
          "internalType": "contract IAaveIncentivesController",
          "name": "",
          "type": "address"
        }
      ],
      "stateMutability": "view",
      "type": "function"
    },
    {
      "inputs": [
        {
          "internalType": "address",
          "name": "user",
          "type": "address"
        }
      ],
      "name": "getPreviousIndex",
      "outputs": [
        {
          "internalType": "uint256",
          "name": "",
          "type": "uint256"
        }
      ],
      "stateMutability": "view",
      "type": "function"
    },
    {
      "inputs": [
        {
          "internalType": "address",
          "name": "user",
          "type": "address"
        }
      ],
      "name": "getScaledUserBalanceAndSupply",
      "outputs": [
        {
          "internalType": "uint256",
          "name": "",
          "type": "uint256"
        },
        {
          "internalType": "uint256",
          "name": "",
          "type": "uint256"
        }
      ],
      "stateMutability": "view",
      "type": "function"
    },
    {
      "inputs": [
        {
          "internalType": "address",
          "name": "user",
          "type": "address"
        },
        {
          "internalType": "address",
          "name": "onBehalfOf",
          "type": "address"
        },
        {
          "internalType": "uint256",
          "name": "amount",
          "type": "uint256"
        }
      ],
      "name": "handleRepayment",
      "outputs": [],
      "stateMutability": "nonpayable",
      "type": "function"
    },
    {
      "inputs": [
        {
          "internalType": "address",
          "name": "spender",
          "type": "address"
        },
        {
          "internalType": "uint256",
          "name": "addedValue",
          "type": "uint256"
        }
      ],
      "name": "increaseAllowance",
      "outputs": [
        {
          "internalType": "bool",
          "name": "",
          "type": "bool"
        }
      ],
      "stateMutability": "nonpayable",
      "type": "function"
    },
    {
      "inputs": [
        {
          "internalType": "contract IPool",
          "name": "initializingPool",
          "type": "address"
        },
        {
          "internalType": "address",
          "name": "treasury",
          "type": "address"
        },
        {
          "internalType": "address",
          "name": "underlyingAsset",
          "type": "address"
        },
        {
          "internalType": "contract IAaveIncentivesController",
          "name": "incentivesController",
          "type": "address"
        },
        {
          "internalType": "uint8",
          "name": "aTokenDecimals",
          "type": "uint8"
        },
        {
          "internalType": "string",
          "name": "aTokenName",
          "type": "string"
        },
        {
          "internalType": "string",
          "name": "aTokenSymbol",
          "type": "string"
        },
        {
          "internalType": "bytes",
          "name": "params",
          "type": "bytes"
        }
      ],
      "name": "initialize",
      "outputs": [],
      "stateMutability": "nonpayable",
      "type": "function"
    },
    {
      "inputs": [
        {
          "internalType": "address",
          "name": "caller",
          "type": "address"
        },
        {
          "internalType": "address",
          "name": "onBehalfOf",
          "type": "address"
        },
        {
          "internalType": "uint256",
          "name": "amount",
          "type": "uint256"
        },
        {
          "internalType": "uint256",
          "name": "index",
          "type": "uint256"
        }
      ],
      "name": "mint",
      "outputs": [
        {
          "internalType": "bool",
          "name": "",
          "type": "bool"
        }
      ],
      "stateMutability": "nonpayable",
      "type": "function"
    },
    {
      "inputs": [
        {
          "internalType": "uint256",
          "name": "amount",
          "type": "uint256"
        },
        {
          "internalType": "uint256",
          "name": "index",
          "type": "uint256"
        }
      ],
      "name": "mintToTreasury",
      "outputs": [],
      "stateMutability": "nonpayable",
      "type": "function"
    },
    {
      "inputs": [],
      "name": "name",
      "outputs": [
        {
          "internalType": "string",
          "name": "",
          "type": "string"
        }
      ],
      "stateMutability": "view",
      "type": "function"
    },
    {
      "inputs": [
        {
          "internalType": "address",
          "name": "owner",
          "type": "address"
        }
      ],
      "name": "nonces",
      "outputs": [
        {
          "internalType": "uint256",
          "name": "",
          "type": "uint256"
        }
      ],
      "stateMutability": "view",
      "type": "function"
    },
    {
      "inputs": [
        {
          "internalType": "address",
          "name": "owner",
          "type": "address"
        },
        {
          "internalType": "address",
          "name": "spender",
          "type": "address"
        },
        {
          "internalType": "uint256",
          "name": "value",
          "type": "uint256"
        },
        {
          "internalType": "uint256",
          "name": "deadline",
          "type": "uint256"
        },
        {
          "internalType": "uint8",
          "name": "v",
          "type": "uint8"
        },
        {
          "internalType": "bytes32",
          "name": "r",
          "type": "bytes32"
        },
        {
          "internalType": "bytes32",
          "name": "s",
          "type": "bytes32"
        }
      ],
      "name": "permit",
      "outputs": [],
      "stateMutability": "nonpayable",
      "type": "function"
    },
    {
      "inputs": [
        {
          "internalType": "address",
          "name": "token",
          "type": "address"
        },
        {
          "internalType": "address",
          "name": "to",
          "type": "address"
        },
        {
          "internalType": "uint256",
          "name": "amount",
          "type": "uint256"
        }
      ],
      "name": "rescueTokens",
      "outputs": [],
      "stateMutability": "nonpayable",
      "type": "function"
    },
    {
      "inputs": [
        {
          "internalType": "address",
          "name": "user",
          "type": "address"
        }
      ],
      "name": "scaledBalanceOf",
      "outputs": [
        {
          "internalType": "uint256",
          "name": "",
          "type": "uint256"
        }
      ],
      "stateMutability": "view",
      "type": "function"
    },
    {
      "inputs": [],
      "name": "scaledTotalSupply",
      "outputs": [
        {
          "internalType": "uint256",
          "name": "",
          "type": "uint256"
        }
      ],
      "stateMutability": "view",
      "type": "function"
    },
    {
      "inputs": [
        {
          "internalType": "contract IAaveIncentivesController",
          "name": "controller",
          "type": "address"
        }
      ],
      "name": "setIncentivesController",
      "outputs": [],
      "stateMutability": "nonpayable",
      "type": "function"
    },
    {
      "inputs": [],
      "name": "symbol",
      "outputs": [
        {
          "internalType": "string",
          "name": "",
          "type": "string"
        }
      ],
      "stateMutability": "view",
      "type": "function"
    },
    {
      "inputs": [],
      "name": "totalSupply",
      "outputs": [
        {
          "internalType": "uint256",
          "name": "",
          "type": "uint256"
        }
      ],
      "stateMutability": "view",
      "type": "function"
    },
    {
      "inputs": [
        {
          "internalType": "address",
          "name": "recipient",
          "type": "address"
        },
        {
          "internalType": "uint256",
          "name": "amount",
          "type": "uint256"
        }
      ],
      "name": "transfer",
      "outputs": [
        {
          "internalType": "bool",
          "name": "",
          "type": "bool"
        }
      ],
      "stateMutability": "nonpayable",
      "type": "function"
    },
    {
      "inputs": [
        {
          "internalType": "address",
          "name": "sender",
          "type": "address"
        },
        {
          "internalType": "address",
          "name": "recipient",
          "type": "address"
        },
        {
          "internalType": "uint256",
          "name": "amount",
          "type": "uint256"
        }
      ],
      "name": "transferFrom",
      "outputs": [
        {
          "internalType": "bool",
          "name": "",
          "type": "bool"
        }
      ],
      "stateMutability": "nonpayable",
      "type": "function"
    },
    {
      "inputs": [
        {
          "internalType": "address",
          "name": "from",
          "type": "address"
        },
        {
          "internalType": "address",
          "name": "to",
          "type": "address"
        },
        {
          "internalType": "uint256",
          "name": "value",
          "type": "uint256"
        }
      ],
      "name": "transferOnLiquidation",
      "outputs": [],
      "stateMutability": "nonpayable",
      "type": "function"
    },
    {
      "inputs": [
        {
          "internalType": "address",
          "name": "target",
          "type": "address"
        },
        {
          "internalType": "uint256",
          "name": "amount",
          "type": "uint256"
        }
      ],
      "name": "transferUnderlyingTo",
      "outputs": [],
      "stateMutability": "nonpayable",
      "type": "function"
    }
  ],
  "numDeployments": 1,
  "solcInputHash": "5dbdcfdc61a8a3d5780c937fdee66e48",
  "bytecode": "0x60e0604052600080553480156200001557600080fd5b5060405162002dd538038062002dd583398101604081905262000038916200021d565b806040518060400160405280600b81526020016a105513d2d15397d253541360aa1b8152506040518060400160405280600b81526020016a105513d2d15397d253541360aa1b81525060008383838383838383836001600160a01b0316630542975c6040518163ffffffff1660e01b8152600401602060405180830381865afa158015620000ca573d6000803e3d6000fd5b505050506040513d601f19601f82011682018060405250810190620000f091906200021d565b6001600160a01b03166080528251620001119060379060208601906200015e565b508151620001279060389060208501906200015e565b506039805460ff191660ff9290921691909117905550506001600160a01b031660a05250504660c052506200028195505050505050565b8280546200016c9062000244565b90600052602060002090601f016020900481019282620001905760008555620001db565b82601f10620001ab57805160ff1916838001178555620001db565b82800160010185558215620001db579182015b82811115620001db578251825591602001919060010190620001be565b50620001e9929150620001ed565b5090565b5b80821115620001e95760008155600101620001ee565b6001600160a01b03811681146200021a57600080fd5b50565b6000602082840312156200023057600080fd5b81516200023d8162000204565b9392505050565b600181811c908216806200025957607f821691505b602082108114156200027b57634e487b7160e01b600052602260045260246000fd5b50919050565b60805160a05160c051612ac26200031360003960006116a80152600081816103a6015281816106610152818161078e0152818161092401528181610ab201528181610b3001528181610ba501528181610c5701528181610cb001528181610d960152818161124f0152818161144301528181611bdb0152611d19015260008181610df601526112cd0152612ac26000f3fe608060405234801561001057600080fd5b50600436106102265760003560e01c8063781603761161012a578063b1bf962d116100bd578063d7020d0a1161008c578063e075398611610071578063e075398614610519578063e655dbd814610552578063f866c3191461056557600080fd5b8063d7020d0a146104cd578063dd62ed3e146104e057600080fd5b8063b1bf962d1461048c578063b3f1c93d14610494578063cea9d26f146104a7578063d505accf146104ba57600080fd5b8063a457c2d7116100f9578063a457c2d714610444578063a9059cbb14610457578063ae1673351461046a578063b16a19de1461047b57600080fd5b806378160376146103f65780637df5bd3b146104165780637ecebe001461042957806395d89b411461043c57600080fd5b806330adf81f116101bd5780634efecaa51161018c57806370a082311161017157806370a082311461038e5780637535d246146103a157806375d26413146103e057600080fd5b80634efecaa5146103685780636fd976761461037b57600080fd5b806330adf81f14610311578063313ce567146103385780633644e5151461034d578063395093511461035557600080fd5b806318160ddd116101f957806318160ddd146102ce578063183fb413146102d65780631da24f3e146102eb57806323b872dd146102fe57600080fd5b806306fdde031461022b578063095ea7b3146102495780630afbcdc91461026c5780630bd7ad3b146102b8575b600080fd5b610233610578565b60405161024091906125a7565b60405180910390f35b61025c6102573660046125e9565b61060a565b6040519015158152602001610240565b6102a361027a366004612615565b6001600160a01b03166000908152603460205260409020546036546001600160801b0390911691565b60408051928352602083019190915201610240565b6102c0600181565b604051908152602001610240565b6102c0610620565b6102e96102e436600461268c565b6106d9565b005b6102c06102f9366004612615565b6109bd565b61025c61030c366004612780565b6109e6565b6102c07f6e71edae12b1b97f4d1f60370fef10105fa2faae0126114a169c64845d6126c981565b60395460405160ff9091168152602001610240565b6102c0610a50565b61025c6103633660046125e9565b610a5f565b6102e96103763660046125e9565b610a96565b6102e9610389366004612780565b610b14565b6102c061039c366004612615565b610b7c565b6103c87f000000000000000000000000000000000000000000000000000000000000000081565b6040516001600160a01b039091168152602001610240565b60395461010090046001600160a01b03166103c8565b610233604051806040016040528060018152602001603160f81b81525081565b6102e96104243660046127c1565b610c3b565b6102c0610437366004612615565b610ce5565b610233610d03565b61025c6104523660046125e9565b610d12565b61025c6104653660046125e9565b610d49565b603c546001600160a01b03166103c8565b603d546001600160a01b03166103c8565b6102c0610d6c565b61025c6104a23660046127e3565b610d77565b6102e96104b5366004612780565b610df2565b6102e96104c8366004612829565b610f93565b6102e96104db3660046127e3565b611233565b6102c06104ee366004612897565b6001600160a01b03918216600090815260356020908152604080832093909416825291909152205490565b6102c0610527366004612615565b6001600160a01b0316600090815260346020526040902054600160801b90046001600160801b031690565b6102e9610560366004612615565b6112c9565b6102e9610573366004612780565b611427565b606060378054610587906128d0565b80601f01602080910402602001604051908101604052809291908181526020018280546105b3906128d0565b80156106005780601f106105d557610100808354040283529160200191610600565b820191906000526020600020905b8154815290600101906020018083116105e357829003601f168201915b5050505050905090565b6000610617338484611497565b50600192915050565b60008061062c60365490565b90508061063b57600091505090565b603d5460405163d15e005360e01b81526001600160a01b0391821660048201526106d3917f0000000000000000000000000000000000000000000000000000000000000000169063d15e005390602401602060405180830381865afa1580156106a8573d6000803e3d6000fd5b505050506040513d601f19601f820116820180604052508101906106cc9190612905565b82906114f8565b91505090565b6001805460ff16806106ea5750303b155b806106f6575060005481115b61076d5760405162461bcd60e51b815260206004820152602e60248201527f436f6e747261637420696e7374616e63652068617320616c726561647920626560448201527f656e20696e697469616c697a656400000000000000000000000000000000000060648201526084015b60405180910390fd5b60015460ff1615801561078c576001805460ff19168117905560008290555b7f00000000000000000000000000000000000000000000000000000000000000006001600160a01b03168d6001600160a01b0316146040518060400160405280600281526020017f3837000000000000000000000000000000000000000000000000000000000000815250906108155760405162461bcd60e51b815260040161076491906125a7565b5061085588888080601f01602080910402602001604051908101604052809392919081815260200183838082843760009201919091525061153c92505050565b61089486868080601f01602080910402602001604051908101604052809392919081815260200183838082843760009201919091525061154f92505050565b6039805460ff191660ff8b16179055603c80546001600160a01b03808f167fffffffffffffffffffffffff000000000000000000000000000000000000000092831617909255603d80548e8416921691909117905560398054918c166101000274ffffffffffffffffffffffffffffffffffffffff001990921691909117905561091c611562565b603b819055507f00000000000000000000000000000000000000000000000000000000000000006001600160a01b03168b6001600160a01b03167fb19e051f8af41150ccccb3fc2c2d8d15f4a4cf434f32a559ba75fe73d6eea20b8e8d8d8d8d8d8d8d8d60405161099599989796959493929190612947565b60405180910390a380156109ae576001805460ff191690555b50505050505050505050505050565b6001600160a01b0381166000908152603460205260408120546001600160801b03165b92915050565b6000806109f28361160b565b6001600160a01b038616600090815260356020908152604080832033808552925290912054919250610a3a91879190610a35906001600160801b038616906129cb565b611497565b610a4585858361168e565b506001949350505050565b6000610a5a6116a4565b905090565b3360008181526035602090815260408083206001600160a01b03871684529091528120549091610617918590610a359086906129e2565b604080518082019091526002815261323360f01b6020820152337f00000000000000000000000000000000000000000000000000000000000000006001600160a01b031614610af85760405162461bcd60e51b815260040161076491906125a7565b50603d54610b10906001600160a01b031683836116dd565b5050565b604080518082019091526002815261323360f01b6020820152337f00000000000000000000000000000000000000000000000000000000000000006001600160a01b031614610b765760405162461bcd60e51b815260040161076491906125a7565b50505050565b603d5460405163d15e005360e01b81526001600160a01b0391821660048201526000916109e0917f00000000000000000000000000000000000000000000000000000000000000009091169063d15e005390602401602060405180830381865afa158015610bee573d6000803e3d6000fd5b505050506040513d601f19601f82011682018060405250810190610c129190612905565b6001600160a01b0384166000908152603460205260409020546001600160801b03165b906114f8565b604080518082019091526002815261323360f01b6020820152337f00000000000000000000000000000000000000000000000000000000000000006001600160a01b031614610c9d5760405162461bcd60e51b815260040161076491906125a7565b5081610ca7575050565b603c54610ce0907f0000000000000000000000000000000000000000000000000000000000000000906001600160a01b03168484611789565b505050565b6001600160a01b0381166000908152603a60205260408120546109e0565b606060388054610587906128d0565b3360008181526035602090815260408083206001600160a01b03871684529091528120549091610617918590610a359086906129cb565b600080610d558361160b565b9050610d6233858361168e565b5060019392505050565b6000610a5a60365490565b604080518082019091526002815261323360f01b6020820152600090337f00000000000000000000000000000000000000000000000000000000000000006001600160a01b031614610ddc5760405162461bcd60e51b815260040161076491906125a7565b50610de985858585611789565b95945050505050565b60007f00000000000000000000000000000000000000000000000000000000000000006001600160a01b031663707cd7166040518163ffffffff1660e01b8152600401602060405180830381865afa158015610e52573d6000803e3d6000fd5b505050506040513d601f19601f82011682018060405250810190610e7691906129fa565b604051637be53ca160e01b81523360048201529091506001600160a01b03821690637be53ca190602401602060405180830381865afa158015610ebd573d6000803e3d6000fd5b505050506040513d601f19601f82011682018060405250810190610ee19190612a17565b604051806040016040528060018152602001603160f81b81525090610f195760405162461bcd60e51b815260040161076491906125a7565b50603d5460408051808201909152600281527f38350000000000000000000000000000000000000000000000000000000000006020820152906001600160a01b0386811691161415610f7e5760405162461bcd60e51b815260040161076491906125a7565b50610b766001600160a01b03851684846116dd565b60408051808201909152600281527f373700000000000000000000000000000000000000000000000000000000000060208201526001600160a01b038816610fee5760405162461bcd60e51b815260040161076491906125a7565b50834211156040518060400160405280600281526020017f3738000000000000000000000000000000000000000000000000000000000000815250906110475760405162461bcd60e51b815260040161076491906125a7565b506001600160a01b0387166000908152603a60205260408120549061106a610a50565b604080517f6e71edae12b1b97f4d1f60370fef10105fa2faae0126114a169c64845d6126c960208201526001600160a01b03808d1692820192909252908a1660608201526080810189905260a0810184905260c0810188905260e0016040516020818303038152906040528051906020012060405160200161111e9291907f190100000000000000000000000000000000000000000000000000000000000081526002810192909252602282015260420190565b60408051601f1981840301815282825280516020918201206000845290830180835281905260ff8816918301919091526060820186905260808201859052915060019060a0016020604051602081039080840390855afa158015611186573d6000803e3d6000fd5b505050602060405103516001600160a01b0316896001600160a01b0316146040518060400160405280600281526020017f3739000000000000000000000000000000000000000000000000000000000000815250906111f85760405162461bcd60e51b815260040161076491906125a7565b506112048260016129e2565b6001600160a01b038a166000908152603a6020526040902055611228898989611497565b505050505050505050565b604080518082019091526002815261323360f01b6020820152337f00000000000000000000000000000000000000000000000000000000000000006001600160a01b0316146112955760405162461bcd60e51b815260040161076491906125a7565b506112a284848484611943565b6001600160a01b0383163014610b7657603d54610b76906001600160a01b031684846116dd565b60007f00000000000000000000000000000000000000000000000000000000000000006001600160a01b031663707cd7166040518163ffffffff1660e01b8152600401602060405180830381865afa158015611329573d6000803e3d6000fd5b505050506040513d601f19601f8201168201806040525081019061134d91906129fa565b604051637be53ca160e01b81523360048201529091506001600160a01b03821690637be53ca190602401602060405180830381865afa158015611394573d6000803e3d6000fd5b505050506040513d601f19601f820116820180604052508101906113b89190612a17565b604051806040016040528060018152602001603160f81b815250906113f05760405162461bcd60e51b815260040161076491906125a7565b5050603980546001600160a01b039092166101000274ffffffffffffffffffffffffffffffffffffffff0019909216919091179055565b604080518082019091526002815261323360f01b6020820152337f00000000000000000000000000000000000000000000000000000000000000006001600160a01b0316146114895760405162461bcd60e51b815260040161076491906125a7565b50610ce08383836000611bb3565b6001600160a01b0383811660008181526035602090815260408083209487168084529482529182902085905590518481527f8c5be1e5ebec7d5bd14f71427d1e84f3dd0314c0f7b2291e5b200ac8c7c3b925910160405180910390a3505050565b600081156b019d971e4fe8401e74000000198390048411151761151a57600080fd5b506b033b2e3c9fd0803ce800000091026b019d971e4fe8401e74000000010490565b8051610b109060379060208401906124ca565b8051610b109060389060208401906124ca565b60007f8b73c3c69bb8fe3d512ecc4cf759cc79239f7b179b0ffacaa9a75d522b39400f61158d611dc3565b805160209182012060408051808201825260018152603160f81b90840152805192830193909352918101919091527fc89efdaa54c0f20c7adf612882df0950f5a951637e0307cdcb4c672f298b8bc660608201524660808201523060a082015260c00160405160208183030381529060405280519060200120905090565b60006001600160801b0382111561168a5760405162461bcd60e51b815260206004820152602760248201527f53616665436173743a2076616c756520646f65736e27742066697420696e203160448201527f32382062697473000000000000000000000000000000000000000000000000006064820152608401610764565b5090565b610ce08383836001600160801b03166001611bb3565b60007f00000000000000000000000000000000000000000000000000000000000000004614156116d55750603b5490565b610a5a611562565b6040517fa9059cbb000000000000000000000000000000000000000000000000000000008082526001600160a01b0384166004830152602482018390529060008060448382895af1611733573d6000803e3d6000fd5b5061173d84611dcd565b610b765760405162461bcd60e51b815260206004820152601560248201527f475076323a206661696c6564207472616e7366657200000000000000000000006044820152606401610764565b6000806117968484611e7f565b60408051808201909152600281527f32340000000000000000000000000000000000000000000000000000000000006020820152909150816117eb5760405162461bcd60e51b815260040161076491906125a7565b506001600160a01b0385166000908152603460205260408120546001600160801b038082169291611825918491600160801b9004166114f8565b61182f83876114f8565b61183991906129cb565b90506118448561160b565b6001600160a01b038816600090815260346020526040902080546001600160801b03928316600160801b029216919091179055611889876118848561160b565b611ebe565b600061189582886129e2565b9050876001600160a01b031660006001600160a01b03167fddf252ad1be2c89b69c2b068fc378daa952ba7f163c4a11628f55a4df523b3ef836040516118dd91815260200190565b60405180910390a360408051828152602081018490529081018790526001600160a01b03808a1691908b16907f458f5fa412d0f69b08dd84872b0215675cc67bc1d5b6fd93300a1c3878b861969060600160405180910390a35050159695505050505050565b600061194f8383611e7f565b60408051808201909152600281527f32350000000000000000000000000000000000000000000000000000000000006020820152909150816119a45760405162461bcd60e51b815260040161076491906125a7565b506001600160a01b0385166000908152603460205260408120546001600160801b0380821692916119de918491600160801b9004166114f8565b6119e883866114f8565b6119f291906129cb565b90506119fd8461160b565b6001600160a01b038816600090815260346020526040902080546001600160801b03928316600160801b029216919091179055611a4287611a3d8561160b565b611fc7565b84811115611afa576000611a5686836129cb565b9050876001600160a01b031660006001600160a01b03167fddf252ad1be2c89b69c2b068fc378daa952ba7f163c4a11628f55a4df523b3ef83604051611a9e91815260200190565b60405180910390a360408051828152602081018490529081018690526001600160a01b0389169081907f458f5fa412d0f69b08dd84872b0215675cc67bc1d5b6fd93300a1c3878b861969060600160405180910390a350611baa565b6000611b0682876129cb565b905060006001600160a01b0316886001600160a01b03167fddf252ad1be2c89b69c2b068fc378daa952ba7f163c4a11628f55a4df523b3ef83604051611b4e91815260200190565b60405180910390a360408051828152602081018490529081018690526001600160a01b0380891691908a16907f4cf25bc1d991c17529c25213d3cc0cda295eeaad5f13f361969b12ea48015f90906060015b60405180910390a3505b50505050505050565b603d5460405163d15e005360e01b81526001600160a01b0391821660048201819052916000917f00000000000000000000000000000000000000000000000000000000000000009091169063d15e005390602401602060405180830381865afa158015611c24573d6000803e3d6000fd5b505050506040513d601f19601f82011682018060405250810190611c489190612905565b90506000611c7882610c35896001600160a01b03166000908152603460205260409020546001600160801b031690565b90506000611ca883610c35896001600160a01b03166000908152603460205260409020546001600160801b031690565b9050611cb68888888661200c565b8415611d76576040517fd5ed39330000000000000000000000000000000000000000000000000000000081526001600160a01b03858116600483015289811660248301528881166044830152606482018890526084820184905260a482018390527f0000000000000000000000000000000000000000000000000000000000000000169063d5ed39339060c401600060405180830381600087803b158015611d5d57600080fd5b505af1158015611d71573d6000803e3d6000fd5b505050505b6001600160a01b038088169089167f4beccb90f994c31aced7a23b5611020728a23d8ec5cddd1a3e9d97b96fda8666611daf8987611e7f565b604080519182526020820188905201611ba0565b6060610a5a610578565b6000611df3565b62461bcd60e51b60005260206004528060245250806044525060646000fd5b3d8015611e325760208114611e6c57611e2d7f475076323a206d616c666f726d6564207472616e7366657220726573756c7400601f611dd4565b611e79565b823b611e6357611e637f475076323a206e6f74206120636f6e74726163740000000000000000000000006014611dd4565b60019150611e79565b3d6000803e600051151591505b50919050565b600081156b033b2e3c9fd0803ce800000060028404190484111715611ea357600080fd5b506b033b2e3c9fd0803ce80000009190910260028204010490565b603654611ed46001600160801b038316826129e2565b6036556001600160a01b0383166000908152603460205260409020546001600160801b0316611f038382612a39565b6001600160a01b03858116600090815260346020526040902080546fffffffffffffffffffffffffffffffff19166001600160801b0393909316929092179091556039546101009004168015611fc0576040516318c39f1760e11b81526001600160a01b038681166004830152602482018590526001600160801b03841660448301528216906331873e2e90606401600060405180830381600087803b158015611fac57600080fd5b505af1158015611228573d6000803e3d6000fd5b5050505050565b603654611fdd6001600160801b038316826129cb565b6036556001600160a01b0383166000908152603460205260409020546001600160801b0316611f038382612a64565b6001600160a01b0384166000908152603460205260408120546001600160801b038082169291612045918491600160801b9004166114f8565b61204f83856114f8565b61205991906129cb565b90506000612085866001600160a01b03166000908152603460205260409020546001600160801b031690565b6001600160a01b038716600090815260346020526040812054919250906120bd908390600160801b90046001600160801b03166114f8565b6120c783876114f8565b6120d191906129cb565b90506120dc8561160b565b6001600160a01b038916600090815260346020526040902080546001600160801b03928316600160801b0292169190911790556121188561160b565b6001600160a01b038816600090815260346020526040902080546001600160801b03928316600160801b029216919091179055612167888861216261215d8a8a611e7f565b61160b565b6122f7565b82156121fc576040518381526001600160a01b038916906000907fddf252ad1be2c89b69c2b068fc378daa952ba7f163c4a11628f55a4df523b3ef9060200160405180910390a3604080518481526020810185905280820187905290516001600160a01b038a169133917f458f5fa412d0f69b08dd84872b0215675cc67bc1d5b6fd93300a1c3878b861969181900360600190a35b866001600160a01b0316886001600160a01b03161415801561221e5750600081115b156122b2576040518181526001600160a01b038816906000907fddf252ad1be2c89b69c2b068fc378daa952ba7f163c4a11628f55a4df523b3ef9060200160405180910390a3604080518281526020810183905280820187905290516001600160a01b0389169133917f458f5fa412d0f69b08dd84872b0215675cc67bc1d5b6fd93300a1c3878b861969181900360600190a35b866001600160a01b0316886001600160a01b03167fddf252ad1be2c89b69c2b068fc378daa952ba7f163c4a11628f55a4df523b3ef88604051611ba091815260200190565b6001600160a01b0383166000908152603460205260409020546001600160801b03166123238282612a64565b6001600160a01b0385811660009081526034602052604080822080546fffffffffffffffffffffffffffffffff19166001600160801b0395861617905591861681522054166123728382612a39565b6001600160a01b03858116600090815260346020526040902080546fffffffffffffffffffffffffffffffff19166001600160801b03939093169290921790915560395461010090041680156124c2576036546040516318c39f1760e11b81526001600160a01b038881166004830152602482018390526001600160801b03861660448301528316906331873e2e90606401600060405180830381600087803b15801561241e57600080fd5b505af1158015612432573d6000803e3d6000fd5b50505050856001600160a01b0316876001600160a01b031614611baa576040516318c39f1760e11b81526001600160a01b038781166004830152602482018390526001600160801b03851660448301528316906331873e2e90606401600060405180830381600087803b1580156124a857600080fd5b505af11580156124bc573d6000803e3d6000fd5b50505050505b505050505050565b8280546124d6906128d0565b90600052602060002090601f0160209004810192826124f8576000855561253e565b82601f1061251157805160ff191683800117855561253e565b8280016001018555821561253e579182015b8281111561253e578251825591602001919060010190612523565b5061168a9291505b8082111561168a5760008155600101612546565b6000815180845260005b8181101561258057602081850181015186830182015201612564565b81811115612592576000602083870101525b50601f01601f19169290920160200192915050565b6020815260006125ba602083018461255a565b9392505050565b6001600160a01b03811681146125d657600080fd5b50565b80356125e4816125c1565b919050565b600080604083850312156125fc57600080fd5b8235612607816125c1565b946020939093013593505050565b60006020828403121561262757600080fd5b81356125ba816125c1565b803560ff811681146125e457600080fd5b60008083601f84011261265557600080fd5b50813567ffffffffffffffff81111561266d57600080fd5b60208301915083602082850101111561268557600080fd5b9250929050565b60008060008060008060008060008060006101008c8e0312156126ae57600080fd5b6126b78c6125d9565b9a506126c560208d016125d9565b99506126d360408d016125d9565b98506126e160608d016125d9565b97506126ef60808d01612632565b965067ffffffffffffffff8060a08e0135111561270b57600080fd5b61271b8e60a08f01358f01612643565b909750955060c08d013581101561273157600080fd5b6127418e60c08f01358f01612643565b909550935060e08d013581101561275757600080fd5b506127688d60e08e01358e01612643565b81935080925050509295989b509295989b9093969950565b60008060006060848603121561279557600080fd5b83356127a0816125c1565b925060208401356127b0816125c1565b929592945050506040919091013590565b600080604083850312156127d457600080fd5b50508035926020909101359150565b600080600080608085870312156127f957600080fd5b8435612804816125c1565b93506020850135612814816125c1565b93969395505050506040820135916060013590565b600080600080600080600060e0888a03121561284457600080fd5b873561284f816125c1565b9650602088013561285f816125c1565b9550604088013594506060880135935061287b60808901612632565b925060a0880135915060c0880135905092959891949750929550565b600080604083850312156128aa57600080fd5b82356128b5816125c1565b915060208301356128c5816125c1565b809150509250929050565b600181811c908216806128e457607f821691505b60208210811415611e7957634e487b7160e01b600052602260045260246000fd5b60006020828403121561291757600080fd5b5051919050565b81835281816020850137506000828201602090810191909152601f909101601f19169091010190565b60006001600160a01b03808c168352808b1660208401525060ff8916604083015260c0606083015261297d60c08301888a61291e565b828103608084015261299081878961291e565b905082810360a08401526129a581858761291e565b9c9b505050505050505050505050565b634e487b7160e01b600052601160045260246000fd5b6000828210156129dd576129dd6129b5565b500390565b600082198211156129f5576129f56129b5565b500190565b600060208284031215612a0c57600080fd5b81516125ba816125c1565b600060208284031215612a2957600080fd5b815180151581146125ba57600080fd5b60006001600160801b03808316818516808303821115612a5b57612a5b6129b5565b01949350505050565b60006001600160801b0383811690831681811015612a8457612a846129b5565b03939250505056fea2646970667358221220d4f98eb2c11dbca730803acc9558eba06ef31dcc44a38bc61a9c63b2b508932064736f6c634300080a0033",
  "devdoc": {
    "author": "Aave",
    "kind": "dev",
    "methods": {
      "DOMAIN_SEPARATOR()": {
        "details": "Overrides the base function to fully implement IATokensee `EIP712Base.DOMAIN_SEPARATOR()` for more detailed documentation"
      },
      "RESERVE_TREASURY_ADDRESS()": {
        "returns": {
          "_0": "Address of the Aave treasury"
        }
      },
      "UNDERLYING_ASSET_ADDRESS()": {
        "returns": {
          "_0": "The address of the underlying asset"
        }
      },
      "allowance(address,address)": {
        "details": "Returns the remaining number of tokens that `spender` will be allowed to spend on behalf of `owner` through {transferFrom}. This is zero by default. This value changes when {approve} or {transferFrom} are called."
      },
      "approve(address,uint256)": {
        "details": "Sets `amount` as the allowance of `spender` over the caller's tokens. Returns a boolean value indicating whether the operation succeeded. IMPORTANT: Beware that changing an allowance with this method brings the risk that someone may use both the old and the new allowance by unfortunate transaction ordering. One possible solution to mitigate this race condition is to first reduce the spender's allowance to 0 and set the desired value afterwards: https://github.com/ethereum/EIPs/issues/20#issuecomment-263524729 Emits an {Approval} event."
      },
      "balanceOf(address)": {
        "details": "Returns the amount of tokens owned by `account`."
      },
      "burn(address,address,uint256,uint256)": {
        "details": "In some instances, the mint event could be emitted from a burn transaction if the amount to burn is less than the interest that the user accrued",
        "params": {
          "amount": "The amount being burned",
          "from": "The address from which the aTokens will be burned",
          "index": "The next liquidity index of the reserve",
          "receiverOfUnderlying": "The address that will receive the underlying"
        }
      },
      "constructor": {
        "details": "Constructor.",
        "params": {
          "pool": "The address of the Pool contract"
        }
      },
      "decreaseAllowance(address,uint256)": {
        "params": {
          "spender": "The user allowed to spend on behalf of _msgSender()",
          "subtractedValue": "The amount being subtracted to the allowance"
        },
        "returns": {
          "_0": "`true`"
        }
      },
      "getIncentivesController()": {
        "returns": {
          "_0": "The address of the Incentives Controller"
        }
      },
      "getPreviousIndex(address)": {
        "params": {
          "user": "The address of the user"
        },
        "returns": {
          "_0": "The last index interest was accrued to the user's balance, expressed in ray"
        }
      },
      "getScaledUserBalanceAndSupply(address)": {
        "params": {
          "user": "The address of the user"
        },
        "returns": {
          "_0": "The scaled balance of the user",
          "_1": "The scaled total supply"
        }
      },
      "handleRepayment(address,address,uint256)": {
        "details": "The default implementation is empty as with standard ERC20 tokens, nothing needs to be done after the transfer is concluded. However in the future there may be aTokens that allow for example to stake the underlying to receive LM rewards. In that case, `handleRepayment()` would perform the staking of the underlying asset.",
        "params": {
          "amount": "The amount getting repaid",
          "onBehalfOf": "The address of the user who will get his debt reduced/removed",
          "user": "The user executing the repayment"
        }
      },
      "increaseAllowance(address,uint256)": {
        "params": {
          "addedValue": "The amount being added to the allowance",
          "spender": "The user allowed to spend on behalf of _msgSender()"
        },
        "returns": {
          "_0": "`true`"
        }
      },
      "initialize(address,address,address,address,uint8,string,string,bytes)": {
        "params": {
          "aTokenDecimals": "The decimals of the aToken, same as the underlying asset's",
          "aTokenName": "The name of the aToken",
          "aTokenSymbol": "The symbol of the aToken",
          "incentivesController": "The smart contract managing potential incentives distribution",
          "params": "A set of encoded parameters for additional initialization",
          "pool": "The pool contract that is initializing this contract",
          "treasury": "The address of the Aave treasury, receiving the fees on this aToken",
          "underlyingAsset": "The address of the underlying asset of this aToken (E.g. WETH for aWETH)"
        }
      },
      "mint(address,address,uint256,uint256)": {
        "params": {
          "amount": "The amount of tokens getting minted",
          "caller": "The address performing the mint",
          "index": "The next liquidity index of the reserve",
          "onBehalfOf": "The address of the user that will receive the minted aTokens"
        },
        "returns": {
          "_0": "`true` if the the previous balance of the user was 0"
        }
      },
      "mintToTreasury(uint256,uint256)": {
        "params": {
          "amount": "The amount of tokens getting minted",
          "index": "The next liquidity index of the reserve"
        }
      },
      "nonces(address)": {
        "details": "Overrides the base function to fully implement IATokensee `EIP712Base.nonces()` for more detailed documentation"
      },
      "permit(address,address,uint256,uint256,uint8,bytes32,bytes32)": {
        "details": "implements the permit function as for https://github.com/ethereum/EIPs/blob/8a34d644aacf0f9f8f00815307fd7dd5da07655f/EIPS/eip-2612.md",
        "params": {
          "deadline": "The deadline timestamp, type(uint256).max for max deadline",
          "owner": "The owner of the funds",
          "r": "Signature param",
          "s": "Signature param",
          "spender": "The spender",
          "v": "Signature param",
          "value": "The amount"
        }
      },
      "rescueTokens(address,address,uint256)": {
        "params": {
          "amount": "The amount of token to transfer",
          "to": "The address of the recipient",
          "token": "The address of the token"
        }
      },
      "scaledBalanceOf(address)": {
        "details": "The scaled balance is the sum of all the updated stored balance divided by the reserve's liquidity index at the moment of the update",
        "params": {
          "user": "The user whose balance is calculated"
        },
        "returns": {
          "_0": "The scaled balance of the user"
        }
      },
      "scaledTotalSupply()": {
        "returns": {
          "_0": "The scaled total supply"
        }
      },
      "setIncentivesController(address)": {
        "params": {
          "controller": "the new Incentives controller"
        }
      },
      "totalSupply()": {
        "details": "Returns the amount of tokens in existence."
      },
      "transfer(address,uint256)": {
        "details": "Moves `amount` tokens from the caller's account to `recipient`. Returns a boolean value indicating whether the operation succeeded. Emits a {Transfer} event."
      },
      "transferFrom(address,address,uint256)": {
        "details": "Moves `amount` tokens from `sender` to `recipient` using the allowance mechanism. `amount` is then deducted from the caller's allowance. Returns a boolean value indicating whether the operation succeeded. Emits a {Transfer} event."
      },
      "transferOnLiquidation(address,address,uint256)": {
        "params": {
          "from": "The address getting liquidated, current owner of the aTokens",
          "to": "The recipient",
          "value": "The amount of tokens getting transferred"
        }
      },
      "transferUnderlyingTo(address,uint256)": {
        "details": "Used by the Pool to transfer assets in borrow(), withdraw() and flashLoan()",
        "params": {
          "amount": "The amount getting transferred",
          "target": "The recipient of the underlying"
        }
      }
    },
    "title": "Aave ERC20 AToken",
    "version": 1
  },
  "userdoc": {
    "kind": "user",
    "methods": {
      "RESERVE_TREASURY_ADDRESS()": {
        "notice": "Returns the address of the Aave treasury, receiving the fees on this aToken."
      },
      "UNDERLYING_ASSET_ADDRESS()": {
        "notice": "Returns the address of the underlying asset of this aToken (E.g. WETH for aWETH)"
      },
      "burn(address,address,uint256,uint256)": {
        "notice": "Burns aTokens from `user` and sends the equivalent amount of underlying to `receiverOfUnderlying`"
      },
      "decreaseAllowance(address,uint256)": {
        "notice": "Decreases the allowance of spender to spend _msgSender() tokens"
      },
      "getIncentivesController()": {
        "notice": "Returns the address of the Incentives Controller contract"
      },
      "getPreviousIndex(address)": {
        "notice": "Returns last index interest was accrued to the user's balance"
      },
      "getScaledUserBalanceAndSupply(address)": {
        "notice": "Returns the scaled balance of the user and the scaled total supply."
      },
      "handleRepayment(address,address,uint256)": {
        "notice": "Handles the underlying received by the aToken after the transfer has been completed."
      },
      "increaseAllowance(address,uint256)": {
        "notice": "Increases the allowance of spender to spend _msgSender() tokens"
      },
      "initialize(address,address,address,address,uint8,string,string,bytes)": {
        "notice": "Initializes the aToken"
      },
      "mint(address,address,uint256,uint256)": {
        "notice": "Mints `amount` aTokens to `user`"
      },
      "mintToTreasury(uint256,uint256)": {
        "notice": "Mints aTokens to the reserve treasury"
      },
      "permit(address,address,uint256,uint256,uint8,bytes32,bytes32)": {
        "notice": "Allow passing a signed message to approve spending"
      },
      "rescueTokens(address,address,uint256)": {
        "notice": "Rescue and transfer tokens locked in this contract"
      },
      "scaledBalanceOf(address)": {
        "notice": "Returns the scaled balance of the user."
      },
      "scaledTotalSupply()": {
        "notice": "Returns the scaled total supply of the scaled balance token. Represents sum(debt/index)"
      },
      "setIncentivesController(address)": {
        "notice": "Sets a new Incentives Controller"
      },
      "transferOnLiquidation(address,address,uint256)": {
        "notice": "Transfers aTokens in the event of a borrow being liquidated, in case the liquidators reclaims the aToken"
      },
      "transferUnderlyingTo(address,uint256)": {
        "notice": "Transfers the underlying asset to `target`."
      }
    },
    "notice": "Implementation of the interest bearing token for the Aave protocol",
    "version": 1
  },
  "storageLayout": {
    "storage": [
      {
        "astId": 14589,
        "contract": "contracts/lend/aave-core-v3/contracts/protocol/tokenization/AToken.sol:AToken",
        "label": "lastInitializedRevision",
        "offset": 0,
        "slot": "0",
        "type": "t_uint256"
      },
      {
        "astId": 14592,
        "contract": "contracts/lend/aave-core-v3/contracts/protocol/tokenization/AToken.sol:AToken",
        "label": "initializing",
        "offset": 0,
        "slot": "1",
        "type": "t_bool"
      },
      {
        "astId": 14662,
        "contract": "contracts/lend/aave-core-v3/contracts/protocol/tokenization/AToken.sol:AToken",
        "label": "______gap",
        "offset": 0,
        "slot": "2",
        "type": "t_array(t_uint256)50_storage"
      },
      {
        "astId": 32571,
        "contract": "contracts/lend/aave-core-v3/contracts/protocol/tokenization/AToken.sol:AToken",
        "label": "_userState",
        "offset": 0,
        "slot": "52",
        "type": "t_mapping(t_address,t_struct(UserState)32566_storage)"
      },
      {
        "astId": 32577,
        "contract": "contracts/lend/aave-core-v3/contracts/protocol/tokenization/AToken.sol:AToken",
        "label": "_allowances",
        "offset": 0,
        "slot": "53",
        "type": "t_mapping(t_address,t_mapping(t_address,t_uint256))"
      },
      {
        "astId": 32579,
        "contract": "contracts/lend/aave-core-v3/contracts/protocol/tokenization/AToken.sol:AToken",
        "label": "_totalSupply",
        "offset": 0,
        "slot": "54",
        "type": "t_uint256"
      },
      {
        "astId": 32581,
        "contract": "contracts/lend/aave-core-v3/contracts/protocol/tokenization/AToken.sol:AToken",
        "label": "_name",
        "offset": 0,
        "slot": "55",
        "type": "t_string_storage"
      },
      {
        "astId": 32583,
        "contract": "contracts/lend/aave-core-v3/contracts/protocol/tokenization/AToken.sol:AToken",
        "label": "_symbol",
        "offset": 0,
        "slot": "56",
        "type": "t_string_storage"
      },
      {
        "astId": 32585,
        "contract": "contracts/lend/aave-core-v3/contracts/protocol/tokenization/AToken.sol:AToken",
        "label": "_decimals",
        "offset": 0,
        "slot": "57",
        "type": "t_uint8"
      },
      {
        "astId": 32588,
        "contract": "contracts/lend/aave-core-v3/contracts/protocol/tokenization/AToken.sol:AToken",
        "label": "_incentivesController",
        "offset": 1,
        "slot": "57",
        "type": "t_contract(IAaveIncentivesController)5595"
      },
      {
        "astId": 32405,
        "contract": "contracts/lend/aave-core-v3/contracts/protocol/tokenization/AToken.sol:AToken",
        "label": "_nonces",
        "offset": 0,
        "slot": "58",
        "type": "t_mapping(t_address,t_uint256)"
      },
      {
        "astId": 32407,
        "contract": "contracts/lend/aave-core-v3/contracts/protocol/tokenization/AToken.sol:AToken",
        "label": "_domainSeparator",
        "offset": 0,
        "slot": "59",
        "type": "t_bytes32"
      },
      {
        "astId": 30057,
        "contract": "contracts/lend/aave-core-v3/contracts/protocol/tokenization/AToken.sol:AToken",
        "label": "_treasury",
        "offset": 0,
        "slot": "60",
        "type": "t_address"
      },
      {
        "astId": 30059,
        "contract": "contracts/lend/aave-core-v3/contracts/protocol/tokenization/AToken.sol:AToken",
        "label": "_underlyingAsset",
        "offset": 0,
        "slot": "61",
        "type": "t_address"
      }
    ],
    "types": {
      "t_address": {
        "encoding": "inplace",
        "label": "address",
        "numberOfBytes": "20"
      },
      "t_array(t_uint256)50_storage": {
        "base": "t_uint256",
        "encoding": "inplace",
        "label": "uint256[50]",
        "numberOfBytes": "1600"
      },
      "t_bool": {
        "encoding": "inplace",
        "label": "bool",
        "numberOfBytes": "1"
      },
      "t_bytes32": {
        "encoding": "inplace",
        "label": "bytes32",
        "numberOfBytes": "32"
      },
      "t_contract(IAaveIncentivesController)5595": {
        "encoding": "inplace",
        "label": "contract IAaveIncentivesController",
        "numberOfBytes": "20"
      },
      "t_mapping(t_address,t_mapping(t_address,t_uint256))": {
        "encoding": "mapping",
        "key": "t_address",
        "label": "mapping(address => mapping(address => uint256))",
        "numberOfBytes": "32",
        "value": "t_mapping(t_address,t_uint256)"
      },
      "t_mapping(t_address,t_struct(UserState)32566_storage)": {
        "encoding": "mapping",
        "key": "t_address",
        "label": "mapping(address => struct IncentivizedERC20.UserState)",
        "numberOfBytes": "32",
        "value": "t_struct(UserState)32566_storage"
      },
      "t_mapping(t_address,t_uint256)": {
        "encoding": "mapping",
        "key": "t_address",
        "label": "mapping(address => uint256)",
        "numberOfBytes": "32",
        "value": "t_uint256"
      },
      "t_string_storage": {
        "encoding": "bytes",
        "label": "string",
        "numberOfBytes": "32"
      },
      "t_struct(UserState)32566_storage": {
        "encoding": "inplace",
        "label": "struct IncentivizedERC20.UserState",
        "members": [
          {
            "astId": 32563,
            "contract": "contracts/lend/aave-core-v3/contracts/protocol/tokenization/AToken.sol:AToken",
            "label": "balance",
            "offset": 0,
            "slot": "0",
            "type": "t_uint128"
          },
          {
            "astId": 32565,
            "contract": "contracts/lend/aave-core-v3/contracts/protocol/tokenization/AToken.sol:AToken",
            "label": "additionalData",
            "offset": 16,
            "slot": "0",
            "type": "t_uint128"
          }
        ],
        "numberOfBytes": "32"
      },
      "t_uint128": {
        "encoding": "inplace",
        "label": "uint128",
        "numberOfBytes": "16"
      },
      "t_uint256": {
        "encoding": "inplace",
        "label": "uint256",
        "numberOfBytes": "32"
      },
      "t_uint8": {
        "encoding": "inplace",
        "label": "uint8",
        "numberOfBytes": "1"
      }
    }
  }
}