{
  "address": "0xDBfbC61F074a6eD2f07C2eb9FdD863229603A814",
  "abi": [
    {
      "inputs": [
        {
          "internalType": "address",
          "name": "emissionManager",
          "type": "address"
        }
      ],
      "stateMutability": "nonpayable",
      "type": "constructor"
    },
    {
      "anonymous": false,
      "inputs": [
        {
          "indexed": true,
          "internalType": "address",
          "name": "asset",
          "type": "address"
        },
        {
          "indexed": true,
          "internalType": "address",
          "name": "reward",
          "type": "address"
        },
        {
          "indexed": true,
          "internalType": "address",
          "name": "user",
          "type": "address"
        },
        {
          "indexed": false,
          "internalType": "uint256",
          "name": "assetIndex",
          "type": "uint256"
        },
        {
          "indexed": false,
          "internalType": "uint256",
          "name": "userIndex",
          "type": "uint256"
        },
        {
          "indexed": false,
          "internalType": "uint256",
          "name": "rewardsAccrued",
          "type": "uint256"
        }
      ],
      "name": "Accrued",
      "type": "event"
    },
    {
      "anonymous": false,
      "inputs": [
        {
          "indexed": true,
          "internalType": "address",
          "name": "asset",
          "type": "address"
        },
        {
          "indexed": true,
          "internalType": "address",
          "name": "reward",
          "type": "address"
        },
        {
          "indexed": false,
          "internalType": "uint256",
          "name": "oldEmission",
          "type": "uint256"
        },
        {
          "indexed": false,
          "internalType": "uint256",
          "name": "newEmission",
          "type": "uint256"
        },
        {
          "indexed": false,
          "internalType": "uint256",
          "name": "oldDistributionEnd",
          "type": "uint256"
        },
        {
          "indexed": false,
          "internalType": "uint256",
          "name": "newDistributionEnd",
          "type": "uint256"
        },
        {
          "indexed": false,
          "internalType": "uint256",
          "name": "assetIndex",
          "type": "uint256"
        }
      ],
      "name": "AssetConfigUpdated",
      "type": "event"
    },
    {
      "anonymous": false,
      "inputs": [
        {
          "indexed": true,
          "internalType": "address",
          "name": "user",
          "type": "address"
        },
        {
          "indexed": true,
          "internalType": "address",
          "name": "claimer",
          "type": "address"
        }
      ],
      "name": "ClaimerSet",
      "type": "event"
    },
    {
      "anonymous": false,
      "inputs": [
        {
          "indexed": true,
          "internalType": "address",
          "name": "reward",
          "type": "address"
        },
        {
          "indexed": true,
          "internalType": "address",
          "name": "rewardOracle",
          "type": "address"
        }
      ],
      "name": "RewardOracleUpdated",
      "type": "event"
    },
    {
      "anonymous": false,
      "inputs": [
        {
          "indexed": true,
          "internalType": "address",
          "name": "user",
          "type": "address"
        },
        {
          "indexed": true,
          "internalType": "address",
          "name": "reward",
          "type": "address"
        },
        {
          "indexed": true,
          "internalType": "address",
          "name": "to",
          "type": "address"
        },
        {
          "indexed": false,
          "internalType": "address",
          "name": "claimer",
          "type": "address"
        },
        {
          "indexed": false,
          "internalType": "uint256",
          "name": "amount",
          "type": "uint256"
        }
      ],
      "name": "RewardsClaimed",
      "type": "event"
    },
    {
      "anonymous": false,
      "inputs": [
        {
          "indexed": true,
          "internalType": "address",
          "name": "reward",
          "type": "address"
        },
        {
          "indexed": true,
          "internalType": "address",
          "name": "transferStrategy",
          "type": "address"
        }
      ],
      "name": "TransferStrategyInstalled",
      "type": "event"
    },
    {
      "inputs": [],
      "name": "EMISSION_MANAGER",
      "outputs": [
        {
          "internalType": "address",
          "name": "",
          "type": "address"
        }
      ],
      "stateMutability": "view",
      "type": "function"
    },
    {
      "inputs": [],
      "name": "REVISION",
      "outputs": [
        {
          "internalType": "uint256",
          "name": "",
          "type": "uint256"
        }
      ],
      "stateMutability": "view",
      "type": "function"
    },
    {
      "inputs": [
        {
          "internalType": "address[]",
          "name": "assets",
          "type": "address[]"
        },
        {
          "internalType": "address",
          "name": "to",
          "type": "address"
        }
      ],
      "name": "claimAllRewards",
      "outputs": [
        {
          "internalType": "address[]",
          "name": "rewardsList",
          "type": "address[]"
        },
        {
          "internalType": "uint256[]",
          "name": "claimedAmounts",
          "type": "uint256[]"
        }
      ],
      "stateMutability": "nonpayable",
      "type": "function"
    },
    {
      "inputs": [
        {
          "internalType": "address[]",
          "name": "assets",
          "type": "address[]"
        },
        {
          "internalType": "address",
          "name": "user",
          "type": "address"
        },
        {
          "internalType": "address",
          "name": "to",
          "type": "address"
        }
      ],
      "name": "claimAllRewardsOnBehalf",
      "outputs": [
        {
          "internalType": "address[]",
          "name": "rewardsList",
          "type": "address[]"
        },
        {
          "internalType": "uint256[]",
          "name": "claimedAmounts",
          "type": "uint256[]"
        }
      ],
      "stateMutability": "nonpayable",
      "type": "function"
    },
    {
      "inputs": [
        {
          "internalType": "address[]",
          "name": "assets",
          "type": "address[]"
        }
      ],
      "name": "claimAllRewardsToSelf",
      "outputs": [
        {
          "internalType": "address[]",
          "name": "rewardsList",
          "type": "address[]"
        },
        {
          "internalType": "uint256[]",
          "name": "claimedAmounts",
          "type": "uint256[]"
        }
      ],
      "stateMutability": "nonpayable",
      "type": "function"
    },
    {
      "inputs": [
        {
          "internalType": "address[]",
          "name": "assets",
          "type": "address[]"
        },
        {
          "internalType": "uint256",
          "name": "amount",
          "type": "uint256"
        },
        {
          "internalType": "address",
          "name": "to",
          "type": "address"
        },
        {
          "internalType": "address",
          "name": "reward",
          "type": "address"
        }
      ],
      "name": "claimRewards",
      "outputs": [
        {
          "internalType": "uint256",
          "name": "",
          "type": "uint256"
        }
      ],
      "stateMutability": "nonpayable",
      "type": "function"
    },
    {
      "inputs": [
        {
          "internalType": "address[]",
          "name": "assets",
          "type": "address[]"
        },
        {
          "internalType": "uint256",
          "name": "amount",
          "type": "uint256"
        },
        {
          "internalType": "address",
          "name": "user",
          "type": "address"
        },
        {
          "internalType": "address",
          "name": "to",
          "type": "address"
        },
        {
          "internalType": "address",
          "name": "reward",
          "type": "address"
        }
      ],
      "name": "claimRewardsOnBehalf",
      "outputs": [
        {
          "internalType": "uint256",
          "name": "",
          "type": "uint256"
        }
      ],
      "stateMutability": "nonpayable",
      "type": "function"
    },
    {
      "inputs": [
        {
          "internalType": "address[]",
          "name": "assets",
          "type": "address[]"
        },
        {
          "internalType": "uint256",
          "name": "amount",
          "type": "uint256"
        },
        {
          "internalType": "address",
          "name": "reward",
          "type": "address"
        }
      ],
      "name": "claimRewardsToSelf",
      "outputs": [
        {
          "internalType": "uint256",
          "name": "",
          "type": "uint256"
        }
      ],
      "stateMutability": "nonpayable",
      "type": "function"
    },
    {
      "inputs": [
        {
          "components": [
            {
              "internalType": "uint88",
              "name": "emissionPerSecond",
              "type": "uint88"
            },
            {
              "internalType": "uint256",
              "name": "totalSupply",
              "type": "uint256"
            },
            {
              "internalType": "uint32",
              "name": "distributionEnd",
              "type": "uint32"
            },
            {
              "internalType": "address",
              "name": "asset",
              "type": "address"
            },
            {
              "internalType": "address",
              "name": "reward",
              "type": "address"
            },
            {
              "internalType": "contract ITransferStrategyBase",
              "name": "transferStrategy",
              "type": "address"
            },
            {
              "internalType": "contract IEACAggregatorProxy",
              "name": "rewardOracle",
              "type": "address"
            }
          ],
          "internalType": "struct RewardsDataTypes.RewardsConfigInput[]",
          "name": "config",
          "type": "tuple[]"
        }
      ],
      "name": "configureAssets",
      "outputs": [],
      "stateMutability": "nonpayable",
      "type": "function"
    },
    {
      "inputs": [
        {
          "internalType": "address[]",
          "name": "assets",
          "type": "address[]"
        },
        {
          "internalType": "address",
          "name": "user",
          "type": "address"
        }
      ],
      "name": "getAllUserRewards",
      "outputs": [
        {
          "internalType": "address[]",
          "name": "rewardsList",
          "type": "address[]"
        },
        {
          "internalType": "uint256[]",
          "name": "unclaimedAmounts",
          "type": "uint256[]"
        }
      ],
      "stateMutability": "view",
      "type": "function"
    },
    {
      "inputs": [
        {
          "internalType": "address",
          "name": "asset",
          "type": "address"
        }
      ],
      "name": "getAssetDecimals",
      "outputs": [
        {
          "internalType": "uint8",
          "name": "",
          "type": "uint8"
        }
      ],
      "stateMutability": "view",
      "type": "function"
    },
    {
      "inputs": [
        {
          "internalType": "address",
          "name": "asset",
          "type": "address"
        },
        {
          "internalType": "address",
          "name": "reward",
          "type": "address"
        }
      ],
      "name": "getAssetIndex",
      "outputs": [
        {
          "internalType": "uint256",
          "name": "",
          "type": "uint256"
        },
        {
          "internalType": "uint256",
          "name": "",
          "type": "uint256"
        }
      ],
      "stateMutability": "view",
      "type": "function"
    },
    {
      "inputs": [
        {
          "internalType": "address",
          "name": "user",
          "type": "address"
        }
      ],
      "name": "getClaimer",
      "outputs": [
        {
          "internalType": "address",
          "name": "",
          "type": "address"
        }
      ],
      "stateMutability": "view",
      "type": "function"
    },
    {
      "inputs": [
        {
          "internalType": "address",
          "name": "asset",
          "type": "address"
        },
        {
          "internalType": "address",
          "name": "reward",
          "type": "address"
        }
      ],
      "name": "getDistributionEnd",
      "outputs": [
        {
          "internalType": "uint256",
          "name": "",
          "type": "uint256"
        }
      ],
      "stateMutability": "view",
      "type": "function"
    },
    {
      "inputs": [],
      "name": "getEmissionManager",
      "outputs": [
        {
          "internalType": "address",
          "name": "",
          "type": "address"
        }
      ],
      "stateMutability": "view",
      "type": "function"
    },
    {
      "inputs": [
        {
          "internalType": "address",
          "name": "reward",
          "type": "address"
        }
      ],
      "name": "getRewardOracle",
      "outputs": [
        {
          "internalType": "address",
          "name": "",
          "type": "address"
        }
      ],
      "stateMutability": "view",
      "type": "function"
    },
    {
      "inputs": [
        {
          "internalType": "address",
          "name": "asset",
          "type": "address"
        }
      ],
      "name": "getRewardsByAsset",
      "outputs": [
        {
          "internalType": "address[]",
          "name": "",
          "type": "address[]"
        }
      ],
      "stateMutability": "view",
      "type": "function"
    },
    {
      "inputs": [
        {
          "internalType": "address",
          "name": "asset",
          "type": "address"
        },
        {
          "internalType": "address",
          "name": "reward",
          "type": "address"
        }
      ],
      "name": "getRewardsData",
      "outputs": [
        {
          "internalType": "uint256",
          "name": "",
          "type": "uint256"
        },
        {
          "internalType": "uint256",
          "name": "",
          "type": "uint256"
        },
        {
          "internalType": "uint256",
          "name": "",
          "type": "uint256"
        },
        {
          "internalType": "uint256",
          "name": "",
          "type": "uint256"
        }
      ],
      "stateMutability": "view",
      "type": "function"
    },
    {
      "inputs": [],
      "name": "getRewardsList",
      "outputs": [
        {
          "internalType": "address[]",
          "name": "",
          "type": "address[]"
        }
      ],
      "stateMutability": "view",
      "type": "function"
    },
    {
      "inputs": [
        {
          "internalType": "address",
          "name": "reward",
          "type": "address"
        }
      ],
      "name": "getTransferStrategy",
      "outputs": [
        {
          "internalType": "address",
          "name": "",
          "type": "address"
        }
      ],
      "stateMutability": "view",
      "type": "function"
    },
    {
      "inputs": [
        {
          "internalType": "address",
          "name": "user",
          "type": "address"
        },
        {
          "internalType": "address",
          "name": "reward",
          "type": "address"
        }
      ],
      "name": "getUserAccruedRewards",
      "outputs": [
        {
          "internalType": "uint256",
          "name": "",
          "type": "uint256"
        }
      ],
      "stateMutability": "view",
      "type": "function"
    },
    {
      "inputs": [
        {
          "internalType": "address",
          "name": "user",
          "type": "address"
        },
        {
          "internalType": "address",
          "name": "asset",
          "type": "address"
        },
        {
          "internalType": "address",
          "name": "reward",
          "type": "address"
        }
      ],
      "name": "getUserAssetIndex",
      "outputs": [
        {
          "internalType": "uint256",
          "name": "",
          "type": "uint256"
        }
      ],
      "stateMutability": "view",
      "type": "function"
    },
    {
      "inputs": [
        {
          "internalType": "address[]",
          "name": "assets",
          "type": "address[]"
        },
        {
          "internalType": "address",
          "name": "user",
          "type": "address"
        },
        {
          "internalType": "address",
          "name": "reward",
          "type": "address"
        }
      ],
      "name": "getUserRewards",
      "outputs": [
        {
          "internalType": "uint256",
          "name": "",
          "type": "uint256"
        }
      ],
      "stateMutability": "view",
      "type": "function"
    },
    {
      "inputs": [
        {
          "internalType": "address",
          "name": "user",
          "type": "address"
        },
        {
          "internalType": "uint256",
          "name": "totalSupply",
          "type": "uint256"
        },
        {
          "internalType": "uint256",
          "name": "userBalance",
          "type": "uint256"
        }
      ],
      "name": "handleAction",
      "outputs": [],
      "stateMutability": "nonpayable",
      "type": "function"
    },
    {
      "inputs": [
        {
          "internalType": "address",
          "name": "",
          "type": "address"
        }
      ],
      "name": "initialize",
      "outputs": [],
      "stateMutability": "nonpayable",
      "type": "function"
    },
    {
      "inputs": [
        {
          "internalType": "address",
          "name": "user",
          "type": "address"
        },
        {
          "internalType": "address",
          "name": "caller",
          "type": "address"
        }
      ],
      "name": "setClaimer",
      "outputs": [],
      "stateMutability": "nonpayable",
      "type": "function"
    },
    {
      "inputs": [
        {
          "internalType": "address",
          "name": "asset",
          "type": "address"
        },
        {
          "internalType": "address",
          "name": "reward",
          "type": "address"
        },
        {
          "internalType": "uint32",
          "name": "newDistributionEnd",
          "type": "uint32"
        }
      ],
      "name": "setDistributionEnd",
      "outputs": [],
      "stateMutability": "nonpayable",
      "type": "function"
    },
    {
      "inputs": [
        {
          "internalType": "address",
          "name": "asset",
          "type": "address"
        },
        {
          "internalType": "address[]",
          "name": "rewards",
          "type": "address[]"
        },
        {
          "internalType": "uint88[]",
          "name": "newEmissionsPerSecond",
          "type": "uint88[]"
        }
      ],
      "name": "setEmissionPerSecond",
      "outputs": [],
      "stateMutability": "nonpayable",
      "type": "function"
    },
    {
      "inputs": [
        {
          "internalType": "address",
          "name": "reward",
          "type": "address"
        },
        {
          "internalType": "contract IEACAggregatorProxy",
          "name": "rewardOracle",
          "type": "address"
        }
      ],
      "name": "setRewardOracle",
      "outputs": [],
      "stateMutability": "nonpayable",
      "type": "function"
    },
    {
      "inputs": [
        {
          "internalType": "address",
          "name": "reward",
          "type": "address"
        },
        {
          "internalType": "contract ITransferStrategyBase",
          "name": "transferStrategy",
          "type": "address"
        }
      ],
      "name": "setTransferStrategy",
      "outputs": [],
      "stateMutability": "nonpayable",
      "type": "function"
    }
  ],
  "transactionHash": "0x5942765d8c82a7a28a03158824c2126694711d2afa5e30447ac3e2a6b9581de8",
  "args": [
    "0x102471F42427F88EfC024087A9F233a25eBbc899"
  ],
  "numDeployments": 1,
  "solcInputHash": "5dbdcfdc61a8a3d5780c937fdee66e48",
  "bytecode": "0x60a060405260006005553480156200001657600080fd5b5060405162003c5538038062003c5583398101604081905262000039916200004b565b6001600160a01b03166080526200007d565b6000602082840312156200005e57600080fd5b81516001600160a01b03811681146200007657600080fd5b9392505050565b608051613b8b620000ca6000396000818161046e0152818161056c01528181610a8b01528181610d290152818161125f015281816113b60152818161143001526114f70152613b8b6000f3fe608060405234801561001057600080fd5b50600436106101da5760003560e01c806392074b0811610104578063bf90f63a116100a2578063dde43cba11610071578063dde43cba1461058e578063e15ac62314610596578063f5cf673b146105a9578063f996868b146105bc57600080fd5b8063bf90f63a1461052e578063c4d66de814610541578063c5a7b53814610554578063cbcbb5071461056757600080fd5b80639ff55db9116100de5780639ff55db9146104ed578063b022418c14610500578063b45ac1a914610513578063bb492bf51461051b57600080fd5b806392074b081461046c578063955c2ad7146104925780639efd6f72146104a557600080fd5b80635453ba101161017c57806370674ab91161014b57806370674ab91461036e57806374d945ec146103815780637eff4ba8146103ad578063886fe70b1461044457600080fd5b80635453ba10146102fc57806357b898831461030f5780635f130b24146103225780636657732f1461034e57600080fd5b806331873e2e116101b857806331873e2e1461025c57806333028b99146102715780634c0369c314610284578063533f542a146102a557600080fd5b80631b839c77146101df578063236300dc146102055780632a17bf6014610218575b600080fd5b6101f26101ed366004613223565b6105cf565b6040519081526020015b60405180910390f35b6101f26102133660046132a1565b610609565b610244610226366004613315565b6001600160a01b039081166000908152603b60205260409020541690565b6040516001600160a01b0390911681526020016101fc565b61026f61026a366004613339565b610674565b005b6101f261027f36600461336e565b610685565b6102976102923660046133f3565b6107b1565b6040516101fc92919061348e565b6101f26102b33660046134e5565b6001600160a01b03808316600090815260016020818152604080842086861685528252808420948816845293909101905220546cffffffffffffffffffffffffff169392505050565b61026f61030a366004613223565b610a80565b6101f261031d366004613525565b610afe565b610244610330366004613315565b6001600160a01b039081166000908152603a60205260409020541690565b61036161035c366004613315565b610b18565b6040516101fc9190613584565b6101f261037c366004613597565b610c1f565b61024461038f366004613315565b6001600160a01b039081166000908152603960205260409020541690565b6104246103bb366004613223565b6001600160a01b0391821660009081526001602090815260408083209390941682529190915220546cffffffffffffffffffffffffff8116916affffffffffffffffffffff600160681b8304169163ffffffff600160c01b8204811692600160e01b9092041690565b6040805194855260208501939093529183015260608201526080016101fc565b610457610452366004613223565b610c36565b604080519283526020830191909152016101fc565b7f0000000000000000000000000000000000000000000000000000000000000000610244565b61026f6104a0366004613698565b610d1e565b6104db6104b3366004613315565b6001600160a01b0316600090815260016020526040902060020154600160801b900460ff1690565b60405160ff90911681526020016101fc565b6102976104fb366004613597565b610ee2565b6101f261050e366004613223565b611011565b6103616110aa565b6102976105293660046133f3565b61110c565b61029761053c3660046137c6565b611173565b61026f61054f366004613315565b61118e565b61026f610562366004613808565b611254565b6102447f000000000000000000000000000000000000000000000000000000000000000081565b6101f2600181565b61026f6105a4366004613223565b6113ab565b61026f6105b7366004613223565b611425565b61026f6105ca36600461384f565b6114ec565b6001600160a01b03828116600090815260016020908152604080832093851683529290522054600160e01b900463ffffffff165b92915050565b60006001600160a01b03831661065b5760405162461bcd60e51b8152602060048201526012602482015271494e56414c49445f544f5f4144445245535360701b60448201526064015b60405180910390fd5b61066a8686863333888861186d565b9695505050505050565b61068033848385611aa4565b505050565b6001600160a01b038084166000908152603960205260408120549091339186911682146106f45760405162461bcd60e51b815260206004820152601460248201527f434c41494d45525f554e415554484f52495a45440000000000000000000000006044820152606401610652565b6001600160a01b03861661074a5760405162461bcd60e51b815260206004820152601460248201527f494e56414c49445f555345525f414444524553530000000000000000000000006044820152606401610652565b6001600160a01b0385166107955760405162461bcd60e51b8152602060048201526012602482015271494e56414c49445f544f5f4144445245535360701b6044820152606401610652565b6107a4898989338a8a8a61186d565b9998505050505050505050565b60608060006107c1868686611bee565b60035490915067ffffffffffffffff8111156107df576107df6135f4565b604051908082528060200260200182016040528015610808578160200160208202803683370190505b509250825167ffffffffffffffff811115610825576108256135f4565b60405190808252806020026020018201604052801561084e578160200160208202803683370190505b50915060005b8151811015610a755760005b8451811015610a62576003818154811061087c5761087c6138d2565b9060005260206000200160009054906101000a90046001600160a01b03168582815181106108ac576108ac6138d2565b60200260200101906001600160a01b031690816001600160a01b031681525050600160008484815181106108e2576108e26138d2565b6020026020010151600001516001600160a01b03166001600160a01b031681526020019081526020016000206000016000868381518110610925576109256138d2565b60200260200101516001600160a01b03166001600160a01b031681526020019081526020016000206001016000876001600160a01b03166001600160a01b03168152602001908152602001600020600001600d9054906101000a90046001600160801b03166001600160801b03168482815181106109a5576109a56138d2565b602002602001018181516109b991906138fe565b90525082518390839081106109d0576109d06138d2565b602002602001015160200151600014156109e957610a50565b610a26868683815181106109ff576109ff6138d2565b6020026020010151858581518110610a1957610a196138d2565b6020026020010151611dc5565b848281518110610a3857610a386138d2565b60200260200101818151610a4c91906138fe565b9052505b80610a5a81613916565b915050610860565b5080610a6d81613916565b915050610854565b50505b935093915050565b336001600160a01b037f00000000000000000000000000000000000000000000000000000000000000001614610af05760405162461bcd60e51b815260206004820152601560248201527427a7262cafa2a6a4a9a9a4a7a72fa6a0a720a3a2a960591b6044820152606401610652565b610afa8282611e6c565b5050565b6000610b0f8585853333338861186d565b95945050505050565b6001600160a01b0381166000908152600160205260408120600201546060916001600160801b03909116908167ffffffffffffffff811115610b5c57610b5c6135f4565b604051908082528060200260200182016040528015610b85578160200160208202803683370190505b50905060005b826001600160801b0316816001600160801b03161015610c17576001600160a01b0380861660009081526001602081815260408084206001600160801b03871680865293019091529091205484519216918491908110610bed57610bed6138d2565b6001600160a01b039092166020928302919091019091015280610c0f81613931565b915050610b8b565b509392505050565b6000610b0f8383610c31888888611bee565b611f74565b6001600160a01b038083166000818152600160209081526040808320948616835293815283822084517fb1bf962d0000000000000000000000000000000000000000000000000000000081529451929485949193610d119385939263b1bf962d92600480830193928290030181865afa158015610cb7573d6000803e3d6000fd5b505050506040513d601f19601f82011682018060405250810190610cdb9190613958565b6001600160a01b038816600090815260016020526040902060020154610d0c90600160801b900460ff16600a613a55565b6120d3565b92509250505b9250929050565b336001600160a01b037f00000000000000000000000000000000000000000000000000000000000000001614610d8e5760405162461bcd60e51b815260206004820152601560248201527427a7262cafa2a6a4a9a9a4a7a72fa6a0a720a3a2a960591b6044820152606401610652565b60005b8151811015610ed557818181518110610dac57610dac6138d2565b6020026020010151606001516001600160a01b031663b1bf962d6040518163ffffffff1660e01b8152600401602060405180830381865afa158015610df5573d6000803e3d6000fd5b505050506040513d601f19601f82011682018060405250810190610e199190613958565b828281518110610e2b57610e2b6138d2565b60200260200101516020018181525050610e7f828281518110610e5057610e506138d2565b602002602001015160800151838381518110610e6e57610e6e6138d2565b602002602001015160a001516121a7565b610ec3828281518110610e9457610e946138d2565b602002602001015160800151838381518110610eb257610eb26138d2565b602002602001015160c00151611e6c565b80610ecd81613916565b915050610d91565b50610edf816122a7565b50565b6001600160a01b03808316600090815260396020526040902054606091829133918691168214610f545760405162461bcd60e51b815260206004820152601460248201527f434c41494d45525f554e415554484f52495a45440000000000000000000000006044820152606401610652565b6001600160a01b038616610faa5760405162461bcd60e51b815260206004820152601460248201527f494e56414c49445f555345525f414444524553530000000000000000000000006044820152606401610652565b6001600160a01b038516610ff55760405162461bcd60e51b8152602060048201526012602482015271494e56414c49445f544f5f4144445245535360701b6044820152606401610652565b6110028888338989612969565b93509350505094509492505050565b60008060005b600454811015610c17576001600060048381548110611038576110386138d2565b6000918252602080832091909101546001600160a01b0390811684528382019490945260409283018220888516835281528282209389168252600190930190925290205461109690600160681b90046001600160801b0316836138fe565b9150806110a281613916565b915050611017565b6060600380548060200260200160405190810160405280929190818152602001828054801561110257602002820191906000526020600020905b81546001600160a01b031681526001909101906020018083116110e4575b5050505050905090565b6060806001600160a01b03831661115a5760405162461bcd60e51b8152602060048201526012602482015271494e56414c49445f544f5f4144445245535360701b6044820152606401610652565b6111678585333387612969565b91509150935093915050565b6060806111838484333333612969565b915091509250929050565b60065460019060ff16806111a15750303b155b806111ad575060055481115b61121f5760405162461bcd60e51b815260206004820152602e60248201527f436f6e747261637420696e7374616e63652068617320616c726561647920626560448201527f656e20696e697469616c697a65640000000000000000000000000000000000006064820152608401610652565b60065460ff1615801561123f576006805460ff1916600117905560058290555b8015610680576006805460ff19169055505050565b336001600160a01b037f000000000000000000000000000000000000000000000000000000000000000016146112c45760405162461bcd60e51b815260206004820152601560248201527427a7262cafa2a6a4a9a9a4a7a72fa6a0a720a3a2a960591b6044820152606401610652565b6001600160a01b0383811660008181526001602090815260408083209487168084529482529182902080547bffffffffffffffffffffffffffffffffffffffffffffffffffffffff8116600160e01b63ffffffff898116828102938417958690558751600160681b9096046affffffffffffffffffffff16808752968601969096529083041694830185905260608301939093526cffffffffffffffffffffffffff9081169216919091176080820152909291907fac1777479f07f3e7c34da8402139d54027a6a260caaae168bdee825ca5580dc59060a00160405180910390a350505050565b336001600160a01b037f0000000000000000000000000000000000000000000000000000000000000000161461141b5760405162461bcd60e51b815260206004820152601560248201527427a7262cafa2a6a4a9a9a4a7a72fa6a0a720a3a2a960591b6044820152606401610652565b610afa82826121a7565b336001600160a01b037f000000000000000000000000000000000000000000000000000000000000000016146114955760405162461bcd60e51b815260206004820152601560248201527427a7262cafa2a6a4a9a9a4a7a72fa6a0a720a3a2a960591b6044820152606401610652565b6001600160a01b0382811660008181526039602052604080822080546001600160a01b0319169486169485179055517f4925eafc82d0c4d67889898eeed64b18488ab19811e61620f387026dec126a289190a35050565b336001600160a01b037f0000000000000000000000000000000000000000000000000000000000000000161461155c5760405162461bcd60e51b815260206004820152601560248201527427a7262cafa2a6a4a9a9a4a7a72fa6a0a720a3a2a960591b6044820152606401610652565b8281146115ab5760405162461bcd60e51b815260206004820152600d60248201527f494e56414c49445f494e505554000000000000000000000000000000000000006044820152606401610652565b60005b83811015611865576001600160a01b03861660009081526001602052604081209081818888868181106115e3576115e36138d2565b90506020020160208101906115f89190613315565b6001600160a01b0316815260208101919091526040016000206002830154909150600160801b900460ff16801580159061163f57508154600160c01b900463ffffffff1615155b61168b5760405162461bcd60e51b815260206004820152601b60248201527f444953545249425554494f4e5f444f45535f4e4f545f455849535400000000006044820152606401610652565b6000611703838b6001600160a01b031663b1bf962d6040518163ffffffff1660e01b8152600401602060405180830381865afa1580156116cf573d6000803e3d6000fd5b505050506040513d601f19601f820116820180604052508101906116f39190613958565b6116fe85600a613a64565b612d5c565b508354909150600160681b90046affffffffffffffffffffff1687878781811061172f5761172f6138d2565b90506020020160208101906117449190613a70565b84546affffffffffffffffffffff91909116600160681b027fffffffffffffffff0000000000000000000000ffffffffffffffffffffffffff909116178455898987818110611795576117956138d2565b90506020020160208101906117aa9190613315565b6001600160a01b03168b6001600160a01b03167fac1777479f07f3e7c34da8402139d54027a6a260caaae168bdee825ca5580dc5838b8b8b8181106117f1576117f16138d2565b90506020020160208101906118069190613a70565b8854604080519384526affffffffffffffffffffff9092166020840152600160e01b900463ffffffff1690820181905260608201526080810186905260a00160405180910390a35050505050808061185d90613916565b9150506115ae565b505050505050565b60008561187c57506000611a99565b60006118928561188d8b8b89611bee565b612e64565b60005b88811015611a2c5760008a8a838181106118b1576118b16138d2565b90506020020160208101906118c69190613315565b6001600160a01b0381811660009081526001602081815260408084208b861685528252808420948d168452939091019052205490915061191690600160681b90046001600160801b0316846138fe565b925088831161197c576001600160a01b0380821660009081526001602081815260408084208a861685528252808420948c1684529390910190522080547fffffff00000000000000000000000000000000ffffffffffffffffffffffffff169055611a19565b60006119888a85613a8b565b90506119948185613a8b565b935061199f81612ee5565b6001600160a01b0392831660009081526001602081815260408084208b881685528252808420968d1684529590910190529290922080546001600160801b0393909316600160681b027fffffff00000000000000000000000000000000ffffffffffffffffffffffffff9093169290921790915550611a2c565b5080611a2481613916565b915050611895565b5080611a3c576000915050611a99565b611a47848483612f68565b604080516001600160a01b038881168252602082018490528087169286821692918916917fc052130bc4ef84580db505783484b067ea8b71b3bca78a7e12db7aea8658f004910160405180910390a490505b979650505050505050565b6001600160a01b03841660009081526001602052604090206002015460ff600160801b820416600a0a906001600160801b031680611ae3575050611be8565b60005b81816001600160801b03161015611be4576001600160a01b0380881660009081526001602081815260408084206001600160801b03871685529283018252808420549094168084529190529181209080611b41838989612d5c565b91509150600080611b55858d8d878d61306d565b915091508280611b625750805b15611bd2578b6001600160a01b0316866001600160a01b03168e6001600160a01b03167f3303facd24627943a92e9dc87cfbb34b15c49b726eec3ad3487c16be9ab8efe8878887604051611bc9939291909283526020830191909152604082015260600190565b60405180910390a45b505060019094019350611ae692505050565b5050505b50505050565b60608267ffffffffffffffff811115611c0957611c096135f4565b604051908082528060200260200182016040528015611c6757816020015b611c54604051806060016040528060006001600160a01b0316815260200160008152602001600081525090565b815260200190600190039081611c275790505b50905060005b83811015610c1757848482818110611c8757611c876138d2565b9050602002016020810190611c9c9190613315565b828281518110611cae57611cae6138d2565b60209081029190910101516001600160a01b039091169052848482818110611cd857611cd86138d2565b9050602002016020810190611ced9190613315565b6040517f0afbcdc90000000000000000000000000000000000000000000000000000000081526001600160a01b0385811660048301529190911690630afbcdc9906024016040805180830381865afa158015611d4d573d6000803e3d6000fd5b505050506040513d601f19601f82011682018060405250810190611d719190613aa2565b838381518110611d8357611d836138d2565b6020026020010151602001848481518110611da057611da06138d2565b6020908102919091010151604001919091525280611dbd81613916565b915050611c6d565b80516001600160a01b03908116600090815260016020818152604080842087861685528252808420865190951684529190528120600201549091908290611e1790600160801b900460ff16600a613a55565b90506000611e2a838660400151846120d3565b6020808801516001600160a01b038b16600090815260018801909252604090912054919350611a9992509083906cffffffffffffffffffffffffff168561316e565b6000816001600160a01b03166350d25bcd6040518163ffffffff1660e01b8152600401602060405180830381865afa158015611eac573d6000803e3d6000fd5b505050506040513d601f19601f82011682018060405250810190611ed09190613958565b13611f1d5760405162461bcd60e51b815260206004820152601860248201527f4f5241434c455f4d5553545f52455455524e5f505249434500000000000000006044820152606401610652565b6001600160a01b038281166000818152603b602052604080822080546001600160a01b0319169486169485179055517f1a1cd5483e52e60b9ff7f3b9d1db3bbd9e9d21c6324ad3a8c79dba9b75e62f4d9190a35050565b6000805b8251811015610c1757828181518110611f9357611f936138d2565b602002602001015160200151600014156120225760016000848381518110611fbd57611fbd6138d2565b602090810291909101810151516001600160a01b03908116835282820193909352604091820160009081208885168252825282812093891681526001909301905290205461201b90600160681b90046001600160801b0316836138fe565b91506120c1565b60016000848381518110612038576120386138d2565b602090810291909101810151516001600160a01b0390811683528282019390935260409182016000908120888516825282528281209389168152600190930190529020548351600160681b9091046001600160801b0316906120aa9087908790879086908110610a1957610a196138d2565b6120b491906138fe565b6120be90836138fe565b91505b806120cb81613916565b915050611f78565b825460009081906cffffffffffffffffffffffffff81169063ffffffff600160e01b82048116916affffffffffffffffffffff600160681b82041691600160c01b90910416811580612123575087155b8061212d57504281145b806121385750828110155b1561214c5783849550955050505050610a78565b600083421161215b574261215d565b835b9050600061216b8383613a8b565b905060008961217a8387613ac6565b6121849190613ac6565b8b900490508661219481836138fe565b9850985050505050505050935093915050565b6001600160a01b0381166121fd5760405162461bcd60e51b815260206004820152601860248201527f53545241544547595f43414e5f4e4f545f42455f5a45524f00000000000000006044820152606401610652565b6001813b1515146122505760405162461bcd60e51b815260206004820152601960248201527f53545241544547595f4d5553545f42455f434f4e5452414354000000000000006044820152606401610652565b6001600160a01b038281166000818152603a602052604080822080546001600160a01b0319169486169485179055517f8ca1d928f1d72493a6b78c4f74aabde976bc37ffe2570f2a1ce5a8abd3dde0aa9190a35050565b60005b8151811015610afa57600160008383815181106122c9576122c96138d2565b602090810291909101810151606001516001600160a01b0316825281019190915260400160002060020154600160801b900460ff16612356576004828281518110612316576123166138d2565b6020908102919091018101516060015182546001810184556000938452919092200180546001600160a01b0319166001600160a01b039092169190911790555b600082828151811061236a5761236a6138d2565b6020026020010151606001516001600160a01b031663313ce5676040518163ffffffff1660e01b8152600401602060405180830381865afa1580156123b3573d6000803e3d6000fd5b505050506040513d601f19601f820116820180604052508101906123d79190613ae5565b600160008585815181106123ed576123ed6138d2565b6020026020010151606001516001600160a01b03166001600160a01b0316815260200190815260200160002060020160106101000a81548160ff021916908360ff160217905560ff169050600060016000858581518110612450576124506138d2565b6020026020010151606001516001600160a01b03166001600160a01b031681526020019081526020016000206000016000858581518110612493576124936138d2565b602090810291909101810151608001516001600160a01b031682528101919091526040016000208054909150600160c01b900463ffffffff1661264f578383815181106124e2576124e26138d2565b60200260200101516080015160016000868681518110612504576125046138d2565b6020026020010151606001516001600160a01b03166001600160a01b0316815260200190815260200160002060010160006001600088888151811061254b5761254b6138d2565b6020026020010151606001516001600160a01b03166001600160a01b0316815260200190815260200160002060020160009054906101000a90046001600160801b03166001600160801b03166001600160801b0316815260200190815260200160002060006101000a8154816001600160a01b0302191690836001600160a01b03160217905550600160008585815181106125e8576125e86138d2565b602090810291909101810151606001516001600160a01b03168252810191909152604001600090812060020180546001600160801b03169161262983613931565b91906101000a8154816001600160801b0302191690836001600160801b03160217905550505b60026000858581518110612665576126656138d2565b602090810291909101810151608001516001600160a01b031682528101919091526040016000205460ff16612743576001600260008686815181106126ac576126ac6138d2565b6020026020010151608001516001600160a01b03166001600160a01b0316815260200190815260200160002060006101000a81548160ff0219169083151502179055506003848481518110612703576127036138d2565b6020908102919091018101516080015182546001810184556000938452919092200180546001600160a01b0319166001600160a01b039092169190911790555b60006127748286868151811061275b5761275b6138d2565b60200260200101516020015185600a6116fe9190613a64565b5082548651919250600160681b81046affffffffffffffffffffff1691600160e01b90910463ffffffff16908790879081106127b2576127b26138d2565b60209081029190910101515184546affffffffffffffffffffff909116600160681b027fffffffffffffffff0000000000000000000000ffffffffffffffffffffffffff9091161784558651879087908110612810576128106138d2565b602090810291909101015160400151845463ffffffff909116600160e01b027bffffffffffffffffffffffffffffffffffffffffffffffffffffffff9091161784558651879087908110612866576128666138d2565b6020026020010151608001516001600160a01b031687878151811061288d5761288d6138d2565b6020026020010151606001516001600160a01b03167fac1777479f07f3e7c34da8402139d54027a6a260caaae168bdee825ca5580dc5848a8a815181106128d6576128d66138d2565b602002602001015160000151858c8c815181106128f5576128f56138d2565b602002602001015160400151896040516129499594939291906affffffffffffffffffffff958616815293909416602084015263ffffffff9182166040840152166060820152608081019190915260a00190565b60405180910390a35050505050808061296190613916565b9150506122aa565b60035460609081908067ffffffffffffffff81111561298a5761298a6135f4565b6040519080825280602002602001820160405280156129b3578160200160208202803683370190505b5092508067ffffffffffffffff8111156129cf576129cf6135f4565b6040519080825280602002602001820160405280156129f8578160200160208202803683370190505b509150612a0a8561188d8a8a89611bee565b60005b87811015612c58576000898983818110612a2957612a296138d2565b9050602002016020810190612a3e9190613315565b905060005b83811015612c435760006001600160a01b0316868281518110612a6857612a686138d2565b60200260200101516001600160a01b03161415612ae35760038181548110612a9257612a926138d2565b9060005260206000200160009054906101000a90046001600160a01b0316868281518110612ac257612ac26138d2565b60200260200101906001600160a01b031690816001600160a01b0316815250505b6001600160a01b038216600090815260016020526040812087518290899085908110612b1157612b116138d2565b6020908102919091018101516001600160a01b0390811683528282019390935260409182016000908120938d16815260019093019052902054600160681b90046001600160801b031690508015612c305780868381518110612b7557612b756138d2565b60200260200101818151612b8991906138fe565b9052506001600160a01b0383166000908152600160205260408120885182908a9086908110612bba57612bba6138d2565b60200260200101516001600160a01b03166001600160a01b0316815260200190815260200160002060010160008b6001600160a01b03166001600160a01b03168152602001908152602001600020600001600d6101000a8154816001600160801b0302191690836001600160801b031602179055505b5080612c3b81613916565b915050612a43565b50508080612c5090613916565b915050612a0d565b5060005b81811015612d5057612ca185858381518110612c7a57612c7a6138d2565b6020026020010151858481518110612c9457612c946138d2565b6020026020010151612f68565b846001600160a01b0316848281518110612cbd57612cbd6138d2565b60200260200101516001600160a01b0316876001600160a01b03167fc052130bc4ef84580db505783484b067ea8b71b3bca78a7e12db7aea8658f0048a878681518110612d0c57612d0c6138d2565b6020026020010151604051612d369291906001600160a01b03929092168252602082015260400190565b60405180910390a480612d4881613916565b915050612c5c565b50509550959350505050565b600080600080612d6d8787876120d3565b915091506000828214612e2d576cffffffffffffffffffffffffff821115612dd75760405162461bcd60e51b815260206004820152600e60248201527f494e4445585f4f564552464c4f570000000000000000000000000000000000006044820152606401610652565b5086546cffffffffffffffffffffffffff19166cffffffffffffffffffffffffff82161787556001612e0842613192565b885463ffffffff91909116600160c01b0263ffffffff60c01b19909116178855612e57565b612e3642613192565b885463ffffffff91909116600160c01b0263ffffffff60c01b199091161788555b9097909650945050505050565b60005b815181101561068057612ed3828281518110612e8557612e856138d2565b60200260200101516000015184848481518110612ea457612ea46138d2565b602002602001015160200151858581518110612ec257612ec26138d2565b602002602001015160400151611aa4565b80612edd81613916565b915050612e67565b60006001600160801b03821115612f645760405162461bcd60e51b815260206004820152602760248201527f53616665436173743a2076616c756520646f65736e27742066697420696e203160448201527f32382062697473000000000000000000000000000000000000000000000000006064820152608401610652565b5090565b6001600160a01b038281166000818152603a60205260408082205490517f16beb9820000000000000000000000000000000000000000000000000000000081528785166004820152602481019390935260448301859052909216919082906316beb982906064016020604051808303816000875af1158015612fee573d6000803e3d6000fd5b505050506040513d601f19601f820116820180604052508101906130129190613b08565b90506001811515146130665760405162461bcd60e51b815260206004820152600e60248201527f5452414e534645525f4552524f520000000000000000000000000000000000006044820152606401610652565b5050505050565b6001600160a01b038416600090815260018601602052604081205481906cffffffffffffffffffffffffff168185821480159061315f576001600160a01b038916600090815260018b016020526040902080546cffffffffffffffffffffffffff19166cffffffffffffffffffffffffff8916179055871561315f576130f58888858961316e565b915061310082612ee5565b6001600160a01b038a16600090815260018c01602052604090208054600d9061313a908490600160681b90046001600160801b0316613b2a565b92506101000a8154816001600160801b0302191690836001600160801b031602179055505b90999098509650505050505050565b60008061317b8486613a8b565b6131859087613ac6565b9290920495945050505050565b600063ffffffff821115612f645760405162461bcd60e51b815260206004820152602660248201527f53616665436173743a2076616c756520646f65736e27742066697420696e203360448201527f32206269747300000000000000000000000000000000000000000000000000006064820152608401610652565b6001600160a01b0381168114610edf57600080fd5b6000806040838503121561323657600080fd5b82356132418161320e565b915060208301356132518161320e565b809150509250929050565b60008083601f84011261326e57600080fd5b50813567ffffffffffffffff81111561328657600080fd5b6020830191508360208260051b8501011115610d1757600080fd5b6000806000806000608086880312156132b957600080fd5b853567ffffffffffffffff8111156132d057600080fd5b6132dc8882890161325c565b9096509450506020860135925060408601356132f78161320e565b915060608601356133078161320e565b809150509295509295909350565b60006020828403121561332757600080fd5b81356133328161320e565b9392505050565b60008060006060848603121561334e57600080fd5b83356133598161320e565b95602085013595506040909401359392505050565b60008060008060008060a0878903121561338757600080fd5b863567ffffffffffffffff81111561339e57600080fd5b6133aa89828a0161325c565b9097509550506020870135935060408701356133c58161320e565b925060608701356133d58161320e565b915060808701356133e58161320e565b809150509295509295509295565b60008060006040848603121561340857600080fd5b833567ffffffffffffffff81111561341f57600080fd5b61342b8682870161325c565b909450925050602084013561343f8161320e565b809150509250925092565b600081518084526020808501945080840160005b838110156134835781516001600160a01b03168752958201959082019060010161345e565b509495945050505050565b6040815260006134a1604083018561344a565b82810360208481019190915284518083528582019282019060005b818110156134d8578451835293830193918301916001016134bc565b5090979650505050505050565b6000806000606084860312156134fa57600080fd5b83356135058161320e565b925060208401356135158161320e565b9150604084013561343f8161320e565b6000806000806060858703121561353b57600080fd5b843567ffffffffffffffff81111561355257600080fd5b61355e8782880161325c565b9095509350506020850135915060408501356135798161320e565b939692955090935050565b602081526000613332602083018461344a565b600080600080606085870312156135ad57600080fd5b843567ffffffffffffffff8111156135c457600080fd5b6135d08782880161325c565b90955093505060208501356135e48161320e565b915060408501356135798161320e565b634e487b7160e01b600052604160045260246000fd5b60405160e0810167ffffffffffffffff8111828210171561362d5761362d6135f4565b60405290565b604051601f8201601f1916810167ffffffffffffffff8111828210171561365c5761365c6135f4565b604052919050565b80356affffffffffffffffffffff8116811461367f57600080fd5b919050565b803563ffffffff8116811461367f57600080fd5b600060208083850312156136ab57600080fd5b823567ffffffffffffffff808211156136c357600080fd5b818501915085601f8301126136d757600080fd5b8135818111156136e9576136e96135f4565b6136f7848260051b01613633565b818152848101925060e091820284018501918883111561371657600080fd5b938501935b828510156137ba5780858a0312156137335760008081fd5b61373b61360a565b61374486613664565b81528686013587820152604061375b818801613684565b9082015260608681013561376e8161320e565b908201526080868101356137818161320e565b9082015260a0868101356137948161320e565b9082015260c0868101356137a78161320e565b908201528452938401939285019261371b565b50979650505050505050565b600080602083850312156137d957600080fd5b823567ffffffffffffffff8111156137f057600080fd5b6137fc8582860161325c565b90969095509350505050565b60008060006060848603121561381d57600080fd5b83356138288161320e565b925060208401356138388161320e565b915061384660408501613684565b90509250925092565b60008060008060006060868803121561386757600080fd5b85356138728161320e565b9450602086013567ffffffffffffffff8082111561388f57600080fd5b61389b89838a0161325c565b909650945060408801359150808211156138b457600080fd5b506138c18882890161325c565b969995985093965092949392505050565b634e487b7160e01b600052603260045260246000fd5b634e487b7160e01b600052601160045260246000fd5b60008219821115613911576139116138e8565b500190565b600060001982141561392a5761392a6138e8565b5060010190565b60006001600160801b038083168181141561394e5761394e6138e8565b6001019392505050565b60006020828403121561396a57600080fd5b5051919050565b600181815b808511156139ac578160001904821115613992576139926138e8565b8085161561399f57918102915b93841c9390800290613976565b509250929050565b6000826139c357506001610603565b816139d057506000610603565b81600181146139e657600281146139f057613a0c565b6001915050610603565b60ff841115613a0157613a016138e8565b50506001821b610603565b5060208310610133831016604e8410600b8410161715613a2f575081810a610603565b613a398383613971565b8060001904821115613a4d57613a4d6138e8565b029392505050565b600061333260ff8416836139b4565b600061333283836139b4565b600060208284031215613a8257600080fd5b61333282613664565b600082821015613a9d57613a9d6138e8565b500390565b60008060408385031215613ab557600080fd5b505080516020909101519092909150565b6000816000190483118215151615613ae057613ae06138e8565b500290565b600060208284031215613af757600080fd5b815160ff8116811461333257600080fd5b600060208284031215613b1a57600080fd5b8151801515811461333257600080fd5b60006001600160801b03808316818516808303821115613b4c57613b4c6138e8565b0194935050505056fea264697066735822122006d390cafbca0fdc34ee366a69c4b1a102b599c2a7c3989f0c0b7bd6782874c864736f6c634300080a0033",
  "devdoc": {
    "author": "Aave*",
    "kind": "dev",
    "methods": {
      "claimAllRewards(address[],address)": {
        "details": "Claims all rewards for a user to the desired address, on all the assets of the pool, accumulating the pending rewards",
        "params": {
          "assets": "The list of assets to check eligible distributions before claiming rewards",
          "to": "The address that will be receiving the rewards"
        },
        "returns": {
          "claimedAmounts": "List that contains the claimed amount per reward, following same order as \"rewardList\"*",
          "rewardsList": "List of addresses of the reward tokens"
        }
      },
      "claimAllRewardsOnBehalf(address[],address,address)": {
        "details": "Claims all rewards for a user on behalf, on all the assets of the pool, accumulating the pending rewards. The caller must be whitelisted via \"allowClaimOnBehalf\" function by the RewardsAdmin role manager",
        "params": {
          "assets": "The list of assets to check eligible distributions before claiming rewards",
          "to": "The address that will be receiving the rewards",
          "user": "The address to check and claim rewards"
        },
        "returns": {
          "claimedAmounts": "List that contains the claimed amount per reward, following same order as \"rewardsList\"*",
          "rewardsList": "List of addresses of the reward tokens"
        }
      },
      "claimAllRewardsToSelf(address[])": {
        "details": "Claims all reward for msg.sender, on all the assets of the pool, accumulating the pending rewards",
        "params": {
          "assets": "The list of assets to check eligible distributions before claiming rewards"
        },
        "returns": {
          "claimedAmounts": "List that contains the claimed amount per reward, following same order as \"rewardsList\"*",
          "rewardsList": "List of addresses of the reward tokens"
        }
      },
      "claimRewards(address[],uint256,address,address)": {
        "details": "Claims reward for a user to the desired address, on all the assets of the pool, accumulating the pending rewards",
        "params": {
          "amount": "The amount of rewards to claim",
          "assets": "List of assets to check eligible distributions before claiming rewards",
          "reward": "The address of the reward token",
          "to": "The address that will be receiving the rewards"
        },
        "returns": {
          "_0": "The amount of rewards claimed*"
        }
      },
      "claimRewardsOnBehalf(address[],uint256,address,address,address)": {
        "details": "Claims reward for a user on behalf, on all the assets of the pool, accumulating the pending rewards. The caller must be whitelisted via \"allowClaimOnBehalf\" function by the RewardsAdmin role manager",
        "params": {
          "amount": "The amount of rewards to claim",
          "assets": "The list of assets to check eligible distributions before claiming rewards",
          "reward": "The address of the reward token",
          "to": "The address that will be receiving the rewards",
          "user": "The address to check and claim rewards"
        },
        "returns": {
          "_0": "The amount of rewards claimed*"
        }
      },
      "claimRewardsToSelf(address[],uint256,address)": {
        "details": "Claims reward for msg.sender, on all the assets of the pool, accumulating the pending rewards",
        "params": {
          "amount": "The amount of rewards to claim",
          "assets": "The list of assets to check eligible distributions before claiming rewards",
          "reward": "The address of the reward token"
        },
        "returns": {
          "_0": "The amount of rewards claimed*"
        }
      },
      "configureAssets((uint88,uint256,uint32,address,address,address,address)[])": {
        "details": "Configure assets to incentivize with an emission of rewards per second until the end of distribution.",
        "params": {
          "config": "The assets configuration input, the list of structs contains the following fields:   uint104 emissionPerSecond: The emission per second following rewards unit decimals.   uint256 totalSupply: The total supply of the asset to incentivize   uint40 distributionEnd: The end of the distribution of the incentives for an asset   address asset: The asset address to incentivize   address reward: The reward token address   ITransferStrategy transferStrategy: The TransferStrategy address with the install hook and claim logic.   IEACAggregatorProxy rewardOracle: The Price Oracle of a reward to visualize the incentives at the UI Frontend.                                     Must follow Chainlink Aggregator IEACAggregatorProxy interface to be compatible."
        }
      },
      "getAllUserRewards(address[],address)": {
        "details": "Returns a list all rewards of a user, including already accrued and unrealized claimable rewards",
        "params": {
          "assets": "List of incentivized assets to check eligible distributions",
          "user": "The address of the user"
        },
        "returns": {
          "rewardsList": "The list of reward addresses",
          "unclaimedAmounts": "The list of unclaimed amount of rewards*"
        }
      },
      "getAssetDecimals(address)": {
        "details": "Returns the decimals of an asset to calculate the distribution delta",
        "params": {
          "asset": "The address to retrieve decimals"
        },
        "returns": {
          "_0": "The decimals of an underlying asset"
        }
      },
      "getAssetIndex(address,address)": {
        "details": "Calculates the next value of an specific distribution index, with validations.",
        "params": {
          "asset": "The incentivized asset",
          "reward": "The reward token of the incentivized asset"
        },
        "returns": {
          "_0": "The old index of the asset distribution",
          "_1": "The new index of the asset distribution*"
        }
      },
      "getClaimer(address)": {
        "details": "Returns the whitelisted claimer for a certain address (0x0 if not set)",
        "params": {
          "user": "The address of the user"
        },
        "returns": {
          "_0": "The claimer address"
        }
      },
      "getDistributionEnd(address,address)": {
        "details": "Gets the end date for the distribution",
        "params": {
          "asset": "The incentivized asset",
          "reward": "The reward token of the incentivized asset"
        },
        "returns": {
          "_0": "The timestamp with the end of the distribution, in unix time format*"
        }
      },
      "getEmissionManager()": {
        "details": "Returns the address of the emission manager. Deprecated: This getter is maintained for compatibility purposes. Use the `EMISSION_MANAGER()` function instead.",
        "returns": {
          "_0": "The address of the EmissionManager"
        }
      },
      "getRewardOracle(address)": {
        "details": "Get the price aggregator oracle address",
        "params": {
          "reward": "The address of the reward"
        },
        "returns": {
          "_0": "The price oracle of the reward"
        }
      },
      "getRewardsByAsset(address)": {
        "details": "Returns the list of available reward token addresses of an incentivized asset",
        "params": {
          "asset": "The incentivized asset"
        },
        "returns": {
          "_0": "List of rewards addresses of the input asset*"
        }
      },
      "getRewardsData(address,address)": {
        "details": "Returns the configuration of the distribution reward for a certain asset",
        "params": {
          "asset": "The incentivized asset",
          "reward": "The reward token of the incentivized asset"
        },
        "returns": {
          "_0": "The index of the asset distribution",
          "_1": "The emission per second of the reward distribution",
          "_2": "The timestamp of the last update of the index",
          "_3": "The timestamp of the distribution end*"
        }
      },
      "getRewardsList()": {
        "details": "Returns the list of available reward addresses",
        "returns": {
          "_0": "List of rewards supported in this contract*"
        }
      },
      "getTransferStrategy(address)": {
        "details": "Returns the Transfer Strategy implementation contract address being used for a reward address",
        "params": {
          "reward": "The address of the reward"
        },
        "returns": {
          "_0": "The address of the TransferStrategy contract"
        }
      },
      "getUserAccruedRewards(address,address)": {
        "details": "Returns the accrued rewards balance of a user, not including virtually accrued rewards since last distribution.",
        "params": {
          "reward": "The address of the reward token",
          "user": "The address of the user"
        },
        "returns": {
          "_0": "Unclaimed rewards, not including new distributions*"
        }
      },
      "getUserAssetIndex(address,address,address)": {
        "details": "Returns the index of a user on a reward distribution",
        "params": {
          "asset": "The incentivized asset",
          "reward": "The reward token of the incentivized asset",
          "user": "Address of the user"
        },
        "returns": {
          "_0": "The current user asset index, not including new distributions*"
        }
      },
      "getUserRewards(address[],address,address)": {
        "details": "Returns a single rewards balance of a user, including virtually accrued and unrealized claimable rewards.",
        "params": {
          "assets": "List of incentivized assets to check eligible distributions",
          "reward": "The address of the reward token",
          "user": "The address of the user"
        },
        "returns": {
          "_0": "The rewards amount*"
        }
      },
      "handleAction(address,uint256,uint256)": {
        "details": "Called by the corresponding asset on transfer hook in order to update the rewards distribution.The units of `totalSupply` and `userBalance` should be the same.",
        "params": {
          "totalSupply": "The total supply of the asset prior to user balance change",
          "user": "The address of the user whose asset balance has changed",
          "userBalance": "The previous user balance prior to balance change*"
        }
      },
      "initialize(address)": {
        "details": "Initialize for RewardsControllerIt expects an address as argument since its initialized via PoolAddressesProvider._updateImpl()*"
      },
      "setClaimer(address,address)": {
        "details": "Whitelists an address to claim the rewards on behalf of another address",
        "params": {
          "claimer": "The address of the claimer",
          "user": "The address of the user"
        }
      },
      "setDistributionEnd(address,address,uint32)": {
        "details": "Sets the end date for the distribution",
        "params": {
          "asset": "The asset to incentivize",
          "newDistributionEnd": "The end date of the incentivization, in unix time format*",
          "reward": "The reward token that incentives the asset"
        }
      },
      "setEmissionPerSecond(address,address[],uint88[])": {
        "details": "Sets the emission per second of a set of reward distributions",
        "params": {
          "asset": "The asset is being incentivized",
          "newEmissionsPerSecond": "List of new reward emissions per second",
          "rewards": "List of reward addresses are being distributed"
        }
      },
      "setRewardOracle(address,address)": {
        "details": "Sets an Aave Oracle contract to enforce rewards with a source of value.",
        "params": {
          "reward": "The address of the reward to set the price aggregator",
          "rewardOracle": "The address of price aggregator that follows IEACAggregatorProxy interface"
        }
      },
      "setTransferStrategy(address,address)": {
        "details": "Sets a TransferStrategy logic contract that determines the logic of the rewards transfer",
        "params": {
          "reward": "The address of the reward token",
          "transferStrategy": "The address of the TransferStrategy logic contract"
        }
      }
    },
    "title": "RewardsController",
    "version": 1
  },
  "userdoc": {
    "kind": "user",
    "methods": {
      "setRewardOracle(address,address)": {
        "notice": "At the moment of reward configuration, the Incentives Controller performs a check to see if the reward asset oracle is compatible with IEACAggregator proxy. This check is enforced for integrators to be able to show incentives at the current Aave UI without the need to setup an external price registry"
      }
    },
    "notice": "Abstract contract template to build Distributors contracts for ERC20 rewards to protocol participants",
    "version": 1
  },
  "storageLayout": {
    "storage": [
      {
        "astId": 39259,
        "contract": "contracts/lend/aave-periphery-v3/contracts/rewards/RewardsController.sol:RewardsController",
        "label": "_emissionManager",
        "offset": 0,
        "slot": "0",
        "type": "t_address"
      },
      {
        "astId": 39264,
        "contract": "contracts/lend/aave-periphery-v3/contracts/rewards/RewardsController.sol:RewardsController",
        "label": "_assets",
        "offset": 0,
        "slot": "1",
        "type": "t_mapping(t_address,t_struct(AssetData)41365_storage)"
      },
      {
        "astId": 39268,
        "contract": "contracts/lend/aave-periphery-v3/contracts/rewards/RewardsController.sol:RewardsController",
        "label": "_isRewardEnabled",
        "offset": 0,
        "slot": "2",
        "type": "t_mapping(t_address,t_bool)"
      },
      {
        "astId": 39271,
        "contract": "contracts/lend/aave-periphery-v3/contracts/rewards/RewardsController.sol:RewardsController",
        "label": "_rewardsList",
        "offset": 0,
        "slot": "3",
        "type": "t_array(t_address)dyn_storage"
      },
      {
        "astId": 39274,
        "contract": "contracts/lend/aave-periphery-v3/contracts/rewards/RewardsController.sol:RewardsController",
        "label": "_assetsList",
        "offset": 0,
        "slot": "4",
        "type": "t_array(t_address)dyn_storage"
      },
      {
        "astId": 14589,
        "contract": "contracts/lend/aave-periphery-v3/contracts/rewards/RewardsController.sol:RewardsController",
        "label": "lastInitializedRevision",
        "offset": 0,
        "slot": "5",
        "type": "t_uint256"
      },
      {
        "astId": 14592,
        "contract": "contracts/lend/aave-periphery-v3/contracts/rewards/RewardsController.sol:RewardsController",
        "label": "initializing",
        "offset": 0,
        "slot": "6",
        "type": "t_bool"
      },
      {
        "astId": 14662,
        "contract": "contracts/lend/aave-periphery-v3/contracts/rewards/RewardsController.sol:RewardsController",
        "label": "______gap",
        "offset": 0,
        "slot": "7",
        "type": "t_array(t_uint256)50_storage"
      },
      {
        "astId": 38243,
        "contract": "contracts/lend/aave-periphery-v3/contracts/rewards/RewardsController.sol:RewardsController",
        "label": "_authorizedClaimers",
        "offset": 0,
        "slot": "57",
        "type": "t_mapping(t_address,t_address)"
      },
      {
        "astId": 38248,
        "contract": "contracts/lend/aave-periphery-v3/contracts/rewards/RewardsController.sol:RewardsController",
        "label": "_transferStrategy",
        "offset": 0,
        "slot": "58",
        "type": "t_mapping(t_address,t_contract(ITransferStrategyBase)41302)"
      },
      {
        "astId": 38253,
        "contract": "contracts/lend/aave-periphery-v3/contracts/rewards/RewardsController.sol:RewardsController",
        "label": "_rewardOracle",
        "offset": 0,
        "slot": "59",
        "type": "t_mapping(t_address,t_contract(IEACAggregatorProxy)37010)"
      }
    ],
    "types": {
      "t_address": {
        "encoding": "inplace",
        "label": "address",
        "numberOfBytes": "20"
      },
      "t_array(t_address)dyn_storage": {
        "base": "t_address",
        "encoding": "dynamic_array",
        "label": "address[]",
        "numberOfBytes": "32"
      },
      "t_array(t_uint256)50_storage": {
        "base": "t_uint256",
        "encoding": "inplace",
        "label": "uint256[50]",
        "numberOfBytes": "1600"
      },
      "t_bool": {
        "encoding": "inplace",
        "label": "bool",
        "numberOfBytes": "1"
      },
      "t_contract(IEACAggregatorProxy)37010": {
        "encoding": "inplace",
        "label": "contract IEACAggregatorProxy",
        "numberOfBytes": "20"
      },
      "t_contract(ITransferStrategyBase)41302": {
        "encoding": "inplace",
        "label": "contract ITransferStrategyBase",
        "numberOfBytes": "20"
      },
      "t_mapping(t_address,t_address)": {
        "encoding": "mapping",
        "key": "t_address",
        "label": "mapping(address => address)",
        "numberOfBytes": "32",
        "value": "t_address"
      },
      "t_mapping(t_address,t_bool)": {
        "encoding": "mapping",
        "key": "t_address",
        "label": "mapping(address => bool)",
        "numberOfBytes": "32",
        "value": "t_bool"
      },
      "t_mapping(t_address,t_contract(IEACAggregatorProxy)37010)": {
        "encoding": "mapping",
        "key": "t_address",
        "label": "mapping(address => contract IEACAggregatorProxy)",
        "numberOfBytes": "32",
        "value": "t_contract(IEACAggregatorProxy)37010"
      },
      "t_mapping(t_address,t_contract(ITransferStrategyBase)41302)": {
        "encoding": "mapping",
        "key": "t_address",
        "label": "mapping(address => contract ITransferStrategyBase)",
        "numberOfBytes": "32",
        "value": "t_contract(ITransferStrategyBase)41302"
      },
      "t_mapping(t_address,t_struct(AssetData)41365_storage)": {
        "encoding": "mapping",
        "key": "t_address",
        "label": "mapping(address => struct RewardsDataTypes.AssetData)",
        "numberOfBytes": "32",
        "value": "t_struct(AssetData)41365_storage"
      },
      "t_mapping(t_address,t_struct(RewardData)41351_storage)": {
        "encoding": "mapping",
        "key": "t_address",
        "label": "mapping(address => struct RewardsDataTypes.RewardData)",
        "numberOfBytes": "32",
        "value": "t_struct(RewardData)41351_storage"
      },
      "t_mapping(t_address,t_struct(UserData)41337_storage)": {
        "encoding": "mapping",
        "key": "t_address",
        "label": "mapping(address => struct RewardsDataTypes.UserData)",
        "numberOfBytes": "32",
        "value": "t_struct(UserData)41337_storage"
      },
      "t_mapping(t_uint128,t_address)": {
        "encoding": "mapping",
        "key": "t_uint128",
        "label": "mapping(uint128 => address)",
        "numberOfBytes": "32",
        "value": "t_address"
      },
      "t_struct(AssetData)41365_storage": {
        "encoding": "inplace",
        "label": "struct RewardsDataTypes.AssetData",
        "members": [
          {
            "astId": 41356,
            "contract": "contracts/lend/aave-periphery-v3/contracts/rewards/RewardsController.sol:RewardsController",
            "label": "rewards",
            "offset": 0,
            "slot": "0",
            "type": "t_mapping(t_address,t_struct(RewardData)41351_storage)"
          },
          {
            "astId": 41360,
            "contract": "contracts/lend/aave-periphery-v3/contracts/rewards/RewardsController.sol:RewardsController",
            "label": "availableRewards",
            "offset": 0,
            "slot": "1",
            "type": "t_mapping(t_uint128,t_address)"
          },
          {
            "astId": 41362,
            "contract": "contracts/lend/aave-periphery-v3/contracts/rewards/RewardsController.sol:RewardsController",
            "label": "availableRewardsCount",
            "offset": 0,
            "slot": "2",
            "type": "t_uint128"
          },
          {
            "astId": 41364,
            "contract": "contracts/lend/aave-periphery-v3/contracts/rewards/RewardsController.sol:RewardsController",
            "label": "decimals",
            "offset": 16,
            "slot": "2",
            "type": "t_uint8"
          }
        ],
        "numberOfBytes": "96"
      },
      "t_struct(RewardData)41351_storage": {
        "encoding": "inplace",
        "label": "struct RewardsDataTypes.RewardData",
        "members": [
          {
            "astId": 41339,
            "contract": "contracts/lend/aave-periphery-v3/contracts/rewards/RewardsController.sol:RewardsController",
            "label": "index",
            "offset": 0,
            "slot": "0",
            "type": "t_uint104"
          },
          {
            "astId": 41341,
            "contract": "contracts/lend/aave-periphery-v3/contracts/rewards/RewardsController.sol:RewardsController",
            "label": "emissionPerSecond",
            "offset": 13,
            "slot": "0",
            "type": "t_uint88"
          },
          {
            "astId": 41343,
            "contract": "contracts/lend/aave-periphery-v3/contracts/rewards/RewardsController.sol:RewardsController",
            "label": "lastUpdateTimestamp",
            "offset": 24,
            "slot": "0",
            "type": "t_uint32"
          },
          {
            "astId": 41345,
            "contract": "contracts/lend/aave-periphery-v3/contracts/rewards/RewardsController.sol:RewardsController",
            "label": "distributionEnd",
            "offset": 28,
            "slot": "0",
            "type": "t_uint32"
          },
          {
            "astId": 41350,
            "contract": "contracts/lend/aave-periphery-v3/contracts/rewards/RewardsController.sol:RewardsController",
            "label": "usersData",
            "offset": 0,
            "slot": "1",
            "type": "t_mapping(t_address,t_struct(UserData)41337_storage)"
          }
        ],
        "numberOfBytes": "64"
      },
      "t_struct(UserData)41337_storage": {
        "encoding": "inplace",
        "label": "struct RewardsDataTypes.UserData",
        "members": [
          {
            "astId": 41334,
            "contract": "contracts/lend/aave-periphery-v3/contracts/rewards/RewardsController.sol:RewardsController",
            "label": "index",
            "offset": 0,
            "slot": "0",
            "type": "t_uint104"
          },
          {
            "astId": 41336,
            "contract": "contracts/lend/aave-periphery-v3/contracts/rewards/RewardsController.sol:RewardsController",
            "label": "accrued",
            "offset": 13,
            "slot": "0",
            "type": "t_uint128"
          }
        ],
        "numberOfBytes": "32"
      },
      "t_uint104": {
        "encoding": "inplace",
        "label": "uint104",
        "numberOfBytes": "13"
      },
      "t_uint128": {
        "encoding": "inplace",
        "label": "uint128",
        "numberOfBytes": "16"
      },
      "t_uint256": {
        "encoding": "inplace",
        "label": "uint256",
        "numberOfBytes": "32"
      },
      "t_uint32": {
        "encoding": "inplace",
        "label": "uint32",
        "numberOfBytes": "4"
      },
      "t_uint8": {
        "encoding": "inplace",
        "label": "uint8",
        "numberOfBytes": "1"
      },
      "t_uint88": {
        "encoding": "inplace",
        "label": "uint88",
        "numberOfBytes": "11"
      }
    }
  }
}