{
  "address": "0x75342fFdF737a6dC80A444D2D8B2990bb8D13CB1",
  "abi": [
    {
      "anonymous": false,
      "inputs": [
        {
          "indexed": true,
          "internalType": "address",
          "name": "asset",
          "type": "address"
        },
        {
          "indexed": true,
          "internalType": "address",
          "name": "proxy",
          "type": "address"
        },
        {
          "indexed": true,
          "internalType": "address",
          "name": "implementation",
          "type": "address"
        }
      ],
      "name": "ATokenUpgraded",
      "type": "event"
    },
    {
      "anonymous": false,
      "inputs": [
        {
          "indexed": true,
          "internalType": "address",
          "name": "asset",
          "type": "address"
        },
        {
          "indexed": false,
          "internalType": "uint256",
          "name": "oldBorrowCap",
          "type": "uint256"
        },
        {
          "indexed": false,
          "internalType": "uint256",
          "name": "newBorrowCap",
          "type": "uint256"
        }
      ],
      "name": "BorrowCapChanged",
      "type": "event"
    },
    {
      "anonymous": false,
      "inputs": [
        {
          "indexed": false,
          "internalType": "address",
          "name": "asset",
          "type": "address"
        },
        {
          "indexed": false,
          "internalType": "bool",
          "name": "borrowable",
          "type": "bool"
        }
      ],
      "name": "BorrowableInIsolationChanged",
      "type": "event"
    },
    {
      "anonymous": false,
      "inputs": [
        {
          "indexed": false,
          "internalType": "uint256",
          "name": "oldBridgeProtocolFee",
          "type": "uint256"
        },
        {
          "indexed": false,
          "internalType": "uint256",
          "name": "newBridgeProtocolFee",
          "type": "uint256"
        }
      ],
      "name": "BridgeProtocolFeeUpdated",
      "type": "event"
    },
    {
      "anonymous": false,
      "inputs": [
        {
          "indexed": true,
          "internalType": "address",
          "name": "asset",
          "type": "address"
        },
        {
          "indexed": false,
          "internalType": "uint256",
          "name": "ltv",
          "type": "uint256"
        },
        {
          "indexed": false,
          "internalType": "uint256",
          "name": "liquidationThreshold",
          "type": "uint256"
        },
        {
          "indexed": false,
          "internalType": "uint256",
          "name": "liquidationBonus",
          "type": "uint256"
        }
      ],
      "name": "CollateralConfigurationChanged",
      "type": "event"
    },
    {
      "anonymous": false,
      "inputs": [
        {
          "indexed": true,
          "internalType": "address",
          "name": "asset",
          "type": "address"
        },
        {
          "indexed": false,
          "internalType": "uint256",
          "name": "oldDebtCeiling",
          "type": "uint256"
        },
        {
          "indexed": false,
          "internalType": "uint256",
          "name": "newDebtCeiling",
          "type": "uint256"
        }
      ],
      "name": "DebtCeilingChanged",
      "type": "event"
    },
    {
      "anonymous": false,
      "inputs": [
        {
          "indexed": true,
          "internalType": "address",
          "name": "asset",
          "type": "address"
        },
        {
          "indexed": false,
          "internalType": "uint8",
          "name": "oldCategoryId",
          "type": "uint8"
        },
        {
          "indexed": false,
          "internalType": "uint8",
          "name": "newCategoryId",
          "type": "uint8"
        }
      ],
      "name": "EModeAssetCategoryChanged",
      "type": "event"
    },
    {
      "anonymous": false,
      "inputs": [
        {
          "indexed": true,
          "internalType": "uint8",
          "name": "categoryId",
          "type": "uint8"
        },
        {
          "indexed": false,
          "internalType": "uint256",
          "name": "ltv",
          "type": "uint256"
        },
        {
          "indexed": false,
          "internalType": "uint256",
          "name": "liquidationThreshold",
          "type": "uint256"
        },
        {
          "indexed": false,
          "internalType": "uint256",
          "name": "liquidationBonus",
          "type": "uint256"
        },
        {
          "indexed": false,
          "internalType": "address",
          "name": "oracle",
          "type": "address"
        },
        {
          "indexed": false,
          "internalType": "string",
          "name": "label",
          "type": "string"
        }
      ],
      "name": "EModeCategoryAdded",
      "type": "event"
    },
    {
      "anonymous": false,
      "inputs": [
        {
          "indexed": false,
          "internalType": "uint128",
          "name": "oldFlashloanPremiumToProtocol",
          "type": "uint128"
        },
        {
          "indexed": false,
          "internalType": "uint128",
          "name": "newFlashloanPremiumToProtocol",
          "type": "uint128"
        }
      ],
      "name": "FlashloanPremiumToProtocolUpdated",
      "type": "event"
    },
    {
      "anonymous": false,
      "inputs": [
        {
          "indexed": false,
          "internalType": "uint128",
          "name": "oldFlashloanPremiumTotal",
          "type": "uint128"
        },
        {
          "indexed": false,
          "internalType": "uint128",
          "name": "newFlashloanPremiumTotal",
          "type": "uint128"
        }
      ],
      "name": "FlashloanPremiumTotalUpdated",
      "type": "event"
    },
    {
      "anonymous": false,
      "inputs": [
        {
          "indexed": true,
          "internalType": "address",
          "name": "asset",
          "type": "address"
        },
        {
          "indexed": false,
          "internalType": "uint256",
          "name": "oldFee",
          "type": "uint256"
        },
        {
          "indexed": false,
          "internalType": "uint256",
          "name": "newFee",
          "type": "uint256"
        }
      ],
      "name": "LiquidationProtocolFeeChanged",
      "type": "event"
    },
    {
      "anonymous": false,
      "inputs": [
        {
          "indexed": true,
          "internalType": "address",
          "name": "asset",
          "type": "address"
        },
        {
          "indexed": false,
          "internalType": "bool",
          "name": "active",
          "type": "bool"
        }
      ],
      "name": "ReserveActive",
      "type": "event"
    },
    {
      "anonymous": false,
      "inputs": [
        {
          "indexed": true,
          "internalType": "address",
          "name": "asset",
          "type": "address"
        },
        {
          "indexed": false,
          "internalType": "bool",
          "name": "enabled",
          "type": "bool"
        }
      ],
      "name": "ReserveBorrowing",
      "type": "event"
    },
    {
      "anonymous": false,
      "inputs": [
        {
          "indexed": true,
          "internalType": "address",
          "name": "asset",
          "type": "address"
        }
      ],
      "name": "ReserveDropped",
      "type": "event"
    },
    {
      "anonymous": false,
      "inputs": [
        {
          "indexed": true,
          "internalType": "address",
          "name": "asset",
          "type": "address"
        },
        {
          "indexed": false,
          "internalType": "uint256",
          "name": "oldReserveFactor",
          "type": "uint256"
        },
        {
          "indexed": false,
          "internalType": "uint256",
          "name": "newReserveFactor",
          "type": "uint256"
        }
      ],
      "name": "ReserveFactorChanged",
      "type": "event"
    },
    {
      "anonymous": false,
      "inputs": [
        {
          "indexed": true,
          "internalType": "address",
          "name": "asset",
          "type": "address"
        },
        {
          "indexed": false,
          "internalType": "bool",
          "name": "enabled",
          "type": "bool"
        }
      ],
      "name": "ReserveFlashLoaning",
      "type": "event"
    },
    {
      "anonymous": false,
      "inputs": [
        {
          "indexed": true,
          "internalType": "address",
          "name": "asset",
          "type": "address"
        },
        {
          "indexed": false,
          "internalType": "bool",
          "name": "frozen",
          "type": "bool"
        }
      ],
      "name": "ReserveFrozen",
      "type": "event"
    },
    {
      "anonymous": false,
      "inputs": [
        {
          "indexed": true,
          "internalType": "address",
          "name": "asset",
          "type": "address"
        },
        {
          "indexed": true,
          "internalType": "address",
          "name": "aToken",
          "type": "address"
        },
        {
          "indexed": false,
          "internalType": "address",
          "name": "stableDebtToken",
          "type": "address"
        },
        {
          "indexed": false,
          "internalType": "address",
          "name": "variableDebtToken",
          "type": "address"
        },
        {
          "indexed": false,
          "internalType": "address",
          "name": "interestRateStrategyAddress",
          "type": "address"
        }
      ],
      "name": "ReserveInitialized",
      "type": "event"
    },
    {
      "anonymous": false,
      "inputs": [
        {
          "indexed": true,
          "internalType": "address",
          "name": "asset",
          "type": "address"
        },
        {
          "indexed": false,
          "internalType": "address",
          "name": "oldStrategy",
          "type": "address"
        },
        {
          "indexed": false,
          "internalType": "address",
          "name": "newStrategy",
          "type": "address"
        }
      ],
      "name": "ReserveInterestRateStrategyChanged",
      "type": "event"
    },
    {
      "anonymous": false,
      "inputs": [
        {
          "indexed": true,
          "internalType": "address",
          "name": "asset",
          "type": "address"
        },
        {
          "indexed": false,
          "internalType": "bool",
          "name": "paused",
          "type": "bool"
        }
      ],
      "name": "ReservePaused",
      "type": "event"
    },
    {
      "anonymous": false,
      "inputs": [
        {
          "indexed": true,
          "internalType": "address",
          "name": "asset",
          "type": "address"
        },
        {
          "indexed": false,
          "internalType": "bool",
          "name": "enabled",
          "type": "bool"
        }
      ],
      "name": "ReserveStableRateBorrowing",
      "type": "event"
    },
    {
      "anonymous": false,
      "inputs": [
        {
          "indexed": true,
          "internalType": "address",
          "name": "asset",
          "type": "address"
        },
        {
          "indexed": false,
          "internalType": "bool",
          "name": "oldState",
          "type": "bool"
        },
        {
          "indexed": false,
          "internalType": "bool",
          "name": "newState",
          "type": "bool"
        }
      ],
      "name": "SiloedBorrowingChanged",
      "type": "event"
    },
    {
      "anonymous": false,
      "inputs": [
        {
          "indexed": true,
          "internalType": "address",
          "name": "asset",
          "type": "address"
        },
        {
          "indexed": true,
          "internalType": "address",
          "name": "proxy",
          "type": "address"
        },
        {
          "indexed": true,
          "internalType": "address",
          "name": "implementation",
          "type": "address"
        }
      ],
      "name": "StableDebtTokenUpgraded",
      "type": "event"
    },
    {
      "anonymous": false,
      "inputs": [
        {
          "indexed": true,
          "internalType": "address",
          "name": "asset",
          "type": "address"
        },
        {
          "indexed": false,
          "internalType": "uint256",
          "name": "oldSupplyCap",
          "type": "uint256"
        },
        {
          "indexed": false,
          "internalType": "uint256",
          "name": "newSupplyCap",
          "type": "uint256"
        }
      ],
      "name": "SupplyCapChanged",
      "type": "event"
    },
    {
      "anonymous": false,
      "inputs": [
        {
          "indexed": true,
          "internalType": "address",
          "name": "asset",
          "type": "address"
        },
        {
          "indexed": false,
          "internalType": "uint256",
          "name": "oldUnbackedMintCap",
          "type": "uint256"
        },
        {
          "indexed": false,
          "internalType": "uint256",
          "name": "newUnbackedMintCap",
          "type": "uint256"
        }
      ],
      "name": "UnbackedMintCapChanged",
      "type": "event"
    },
    {
      "anonymous": false,
      "inputs": [
        {
          "indexed": true,
          "internalType": "address",
          "name": "asset",
          "type": "address"
        },
        {
          "indexed": true,
          "internalType": "address",
          "name": "proxy",
          "type": "address"
        },
        {
          "indexed": true,
          "internalType": "address",
          "name": "implementation",
          "type": "address"
        }
      ],
      "name": "VariableDebtTokenUpgraded",
      "type": "event"
    },
    {
      "inputs": [],
      "name": "CONFIGURATOR_REVISION",
      "outputs": [
        {
          "internalType": "uint256",
          "name": "",
          "type": "uint256"
        }
      ],
      "stateMutability": "view",
      "type": "function"
    },
    {
      "inputs": [
        {
          "internalType": "address",
          "name": "asset",
          "type": "address"
        },
        {
          "internalType": "uint256",
          "name": "ltv",
          "type": "uint256"
        },
        {
          "internalType": "uint256",
          "name": "liquidationThreshold",
          "type": "uint256"
        },
        {
          "internalType": "uint256",
          "name": "liquidationBonus",
          "type": "uint256"
        }
      ],
      "name": "configureReserveAsCollateral",
      "outputs": [],
      "stateMutability": "nonpayable",
      "type": "function"
    },
    {
      "inputs": [
        {
          "internalType": "address",
          "name": "asset",
          "type": "address"
        }
      ],
      "name": "dropReserve",
      "outputs": [],
      "stateMutability": "nonpayable",
      "type": "function"
    },
    {
      "inputs": [
        {
          "components": [
            {
              "internalType": "address",
              "name": "aTokenImpl",
              "type": "address"
            },
            {
              "internalType": "address",
              "name": "stableDebtTokenImpl",
              "type": "address"
            },
            {
              "internalType": "address",
              "name": "variableDebtTokenImpl",
              "type": "address"
            },
            {
              "internalType": "uint8",
              "name": "underlyingAssetDecimals",
              "type": "uint8"
            },
            {
              "internalType": "address",
              "name": "interestRateStrategyAddress",
              "type": "address"
            },
            {
              "internalType": "address",
              "name": "underlyingAsset",
              "type": "address"
            },
            {
              "internalType": "address",
              "name": "treasury",
              "type": "address"
            },
            {
              "internalType": "address",
              "name": "incentivesController",
              "type": "address"
            },
            {
              "internalType": "string",
              "name": "aTokenName",
              "type": "string"
            },
            {
              "internalType": "string",
              "name": "aTokenSymbol",
              "type": "string"
            },
            {
              "internalType": "string",
              "name": "variableDebtTokenName",
              "type": "string"
            },
            {
              "internalType": "string",
              "name": "variableDebtTokenSymbol",
              "type": "string"
            },
            {
              "internalType": "string",
              "name": "stableDebtTokenName",
              "type": "string"
            },
            {
              "internalType": "string",
              "name": "stableDebtTokenSymbol",
              "type": "string"
            },
            {
              "internalType": "bytes",
              "name": "params",
              "type": "bytes"
            }
          ],
          "internalType": "struct ConfiguratorInputTypes.InitReserveInput[]",
          "name": "input",
          "type": "tuple[]"
        }
      ],
      "name": "initReserves",
      "outputs": [],
      "stateMutability": "nonpayable",
      "type": "function"
    },
    {
      "inputs": [
        {
          "internalType": "contract IPoolAddressesProvider",
          "name": "provider",
          "type": "address"
        }
      ],
      "name": "initialize",
      "outputs": [],
      "stateMutability": "nonpayable",
      "type": "function"
    },
    {
      "inputs": [
        {
          "internalType": "address",
          "name": "asset",
          "type": "address"
        },
        {
          "internalType": "uint8",
          "name": "newCategoryId",
          "type": "uint8"
        }
      ],
      "name": "setAssetEModeCategory",
      "outputs": [],
      "stateMutability": "nonpayable",
      "type": "function"
    },
    {
      "inputs": [
        {
          "internalType": "address",
          "name": "asset",
          "type": "address"
        },
        {
          "internalType": "uint256",
          "name": "newBorrowCap",
          "type": "uint256"
        }
      ],
      "name": "setBorrowCap",
      "outputs": [],
      "stateMutability": "nonpayable",
      "type": "function"
    },
    {
      "inputs": [
        {
          "internalType": "address",
          "name": "asset",
          "type": "address"
        },
        {
          "internalType": "bool",
          "name": "borrowable",
          "type": "bool"
        }
      ],
      "name": "setBorrowableInIsolation",
      "outputs": [],
      "stateMutability": "nonpayable",
      "type": "function"
    },
    {
      "inputs": [
        {
          "internalType": "address",
          "name": "asset",
          "type": "address"
        },
        {
          "internalType": "uint256",
          "name": "newDebtCeiling",
          "type": "uint256"
        }
      ],
      "name": "setDebtCeiling",
      "outputs": [],
      "stateMutability": "nonpayable",
      "type": "function"
    },
    {
      "inputs": [
        {
          "internalType": "uint8",
          "name": "categoryId",
          "type": "uint8"
        },
        {
          "internalType": "uint16",
          "name": "ltv",
          "type": "uint16"
        },
        {
          "internalType": "uint16",
          "name": "liquidationThreshold",
          "type": "uint16"
        },
        {
          "internalType": "uint16",
          "name": "liquidationBonus",
          "type": "uint16"
        },
        {
          "internalType": "address",
          "name": "oracle",
          "type": "address"
        },
        {
          "internalType": "string",
          "name": "label",
          "type": "string"
        }
      ],
      "name": "setEModeCategory",
      "outputs": [],
      "stateMutability": "nonpayable",
      "type": "function"
    },
    {
      "inputs": [
        {
          "internalType": "address",
          "name": "asset",
          "type": "address"
        },
        {
          "internalType": "uint256",
          "name": "newFee",
          "type": "uint256"
        }
      ],
      "name": "setLiquidationProtocolFee",
      "outputs": [],
      "stateMutability": "nonpayable",
      "type": "function"
    },
    {
      "inputs": [
        {
          "internalType": "bool",
          "name": "paused",
          "type": "bool"
        }
      ],
      "name": "setPoolPause",
      "outputs": [],
      "stateMutability": "nonpayable",
      "type": "function"
    },
    {
      "inputs": [
        {
          "internalType": "address",
          "name": "asset",
          "type": "address"
        },
        {
          "internalType": "bool",
          "name": "active",
          "type": "bool"
        }
      ],
      "name": "setReserveActive",
      "outputs": [],
      "stateMutability": "nonpayable",
      "type": "function"
    },
    {
      "inputs": [
        {
          "internalType": "address",
          "name": "asset",
          "type": "address"
        },
        {
          "internalType": "bool",
          "name": "enabled",
          "type": "bool"
        }
      ],
      "name": "setReserveBorrowing",
      "outputs": [],
      "stateMutability": "nonpayable",
      "type": "function"
    },
    {
      "inputs": [
        {
          "internalType": "address",
          "name": "asset",
          "type": "address"
        },
        {
          "internalType": "uint256",
          "name": "newReserveFactor",
          "type": "uint256"
        }
      ],
      "name": "setReserveFactor",
      "outputs": [],
      "stateMutability": "nonpayable",
      "type": "function"
    },
    {
      "inputs": [
        {
          "internalType": "address",
          "name": "asset",
          "type": "address"
        },
        {
          "internalType": "bool",
          "name": "enabled",
          "type": "bool"
        }
      ],
      "name": "setReserveFlashLoaning",
      "outputs": [],
      "stateMutability": "nonpayable",
      "type": "function"
    },
    {
      "inputs": [
        {
          "internalType": "address",
          "name": "asset",
          "type": "address"
        },
        {
          "internalType": "bool",
          "name": "freeze",
          "type": "bool"
        }
      ],
      "name": "setReserveFreeze",
      "outputs": [],
      "stateMutability": "nonpayable",
      "type": "function"
    },
    {
      "inputs": [
        {
          "internalType": "address",
          "name": "asset",
          "type": "address"
        },
        {
          "internalType": "address",
          "name": "newRateStrategyAddress",
          "type": "address"
        }
      ],
      "name": "setReserveInterestRateStrategyAddress",
      "outputs": [],
      "stateMutability": "nonpayable",
      "type": "function"
    },
    {
      "inputs": [
        {
          "internalType": "address",
          "name": "asset",
          "type": "address"
        },
        {
          "internalType": "bool",
          "name": "paused",
          "type": "bool"
        }
      ],
      "name": "setReservePause",
      "outputs": [],
      "stateMutability": "nonpayable",
      "type": "function"
    },
    {
      "inputs": [
        {
          "internalType": "address",
          "name": "asset",
          "type": "address"
        },
        {
          "internalType": "bool",
          "name": "enabled",
          "type": "bool"
        }
      ],
      "name": "setReserveStableRateBorrowing",
      "outputs": [],
      "stateMutability": "nonpayable",
      "type": "function"
    },
    {
      "inputs": [
        {
          "internalType": "address",
          "name": "asset",
          "type": "address"
        },
        {
          "internalType": "bool",
          "name": "newSiloed",
          "type": "bool"
        }
      ],
      "name": "setSiloedBorrowing",
      "outputs": [],
      "stateMutability": "nonpayable",
      "type": "function"
    },
    {
      "inputs": [
        {
          "internalType": "address",
          "name": "asset",
          "type": "address"
        },
        {
          "internalType": "uint256",
          "name": "newSupplyCap",
          "type": "uint256"
        }
      ],
      "name": "setSupplyCap",
      "outputs": [],
      "stateMutability": "nonpayable",
      "type": "function"
    },
    {
      "inputs": [
        {
          "internalType": "address",
          "name": "asset",
          "type": "address"
        },
        {
          "internalType": "uint256",
          "name": "newUnbackedMintCap",
          "type": "uint256"
        }
      ],
      "name": "setUnbackedMintCap",
      "outputs": [],
      "stateMutability": "nonpayable",
      "type": "function"
    },
    {
      "inputs": [
        {
          "components": [
            {
              "internalType": "address",
              "name": "asset",
              "type": "address"
            },
            {
              "internalType": "address",
              "name": "treasury",
              "type": "address"
            },
            {
              "internalType": "address",
              "name": "incentivesController",
              "type": "address"
            },
            {
              "internalType": "string",
              "name": "name",
              "type": "string"
            },
            {
              "internalType": "string",
              "name": "symbol",
              "type": "string"
            },
            {
              "internalType": "address",
              "name": "implementation",
              "type": "address"
            },
            {
              "internalType": "bytes",
              "name": "params",
              "type": "bytes"
            }
          ],
          "internalType": "struct ConfiguratorInputTypes.UpdateATokenInput",
          "name": "input",
          "type": "tuple"
        }
      ],
      "name": "updateAToken",
      "outputs": [],
      "stateMutability": "nonpayable",
      "type": "function"
    },
    {
      "inputs": [
        {
          "internalType": "uint256",
          "name": "newBridgeProtocolFee",
          "type": "uint256"
        }
      ],
      "name": "updateBridgeProtocolFee",
      "outputs": [],
      "stateMutability": "nonpayable",
      "type": "function"
    },
    {
      "inputs": [
        {
          "internalType": "uint128",
          "name": "newFlashloanPremiumToProtocol",
          "type": "uint128"
        }
      ],
      "name": "updateFlashloanPremiumToProtocol",
      "outputs": [],
      "stateMutability": "nonpayable",
      "type": "function"
    },
    {
      "inputs": [
        {
          "internalType": "uint128",
          "name": "newFlashloanPremiumTotal",
          "type": "uint128"
        }
      ],
      "name": "updateFlashloanPremiumTotal",
      "outputs": [],
      "stateMutability": "nonpayable",
      "type": "function"
    },
    {
      "inputs": [
        {
          "components": [
            {
              "internalType": "address",
              "name": "asset",
              "type": "address"
            },
            {
              "internalType": "address",
              "name": "incentivesController",
              "type": "address"
            },
            {
              "internalType": "string",
              "name": "name",
              "type": "string"
            },
            {
              "internalType": "string",
              "name": "symbol",
              "type": "string"
            },
            {
              "internalType": "address",
              "name": "implementation",
              "type": "address"
            },
            {
              "internalType": "bytes",
              "name": "params",
              "type": "bytes"
            }
          ],
          "internalType": "struct ConfiguratorInputTypes.UpdateDebtTokenInput",
          "name": "input",
          "type": "tuple"
        }
      ],
      "name": "updateStableDebtToken",
      "outputs": [],
      "stateMutability": "nonpayable",
      "type": "function"
    },
    {
      "inputs": [
        {
          "components": [
            {
              "internalType": "address",
              "name": "asset",
              "type": "address"
            },
            {
              "internalType": "address",
              "name": "incentivesController",
              "type": "address"
            },
            {
              "internalType": "string",
              "name": "name",
              "type": "string"
            },
            {
              "internalType": "string",
              "name": "symbol",
              "type": "string"
            },
            {
              "internalType": "address",
              "name": "implementation",
              "type": "address"
            },
            {
              "internalType": "bytes",
              "name": "params",
              "type": "bytes"
            }
          ],
          "internalType": "struct ConfiguratorInputTypes.UpdateDebtTokenInput",
          "name": "input",
          "type": "tuple"
        }
      ],
      "name": "updateVariableDebtToken",
      "outputs": [],
      "stateMutability": "nonpayable",
      "type": "function"
    }
  ],
  "transactionHash": "0x605af407131a0dad87bf7ec2ed4daf429989b6adb0fdd8336c2a1be8a9a4a773",
  "args": [],
  "numDeployments": 1,
  "solcInputHash": "5dbdcfdc61a8a3d5780c937fdee66e48",
  "bytecode": "0x60806040526000805534801561001457600080fd5b50614af2806100246000396000f3fe608060405234801561001057600080fd5b50600436106101cf5760003560e01c80637af635a611610104578063aeb4fcc1116100a2578063c4d66de811610071578063c4d66de8146103b8578063d14a0983146103cb578063d4fe3f99146103de578063f213ef0e146103f157600080fd5b8063aeb4fcc11461036c578063b736aaeb1461037f578063bb01c37c14610392578063c19d61e4146103a557600080fd5b80638a751a60116100de5780638a751a601461032057806396e957c414610333578063a7fa83b714610346578063ad4e64321461035957600080fd5b80637af635a6146102e05780637c4e560b146102fa5780638a4936761461030d57600080fd5b806348d9fba91161017157806363c9b8601161014b57806363c9b86014610294578063682cf264146102a75780637626cde3146102ba5780637641f3d9146102cd57600080fd5b806348d9fba91461025b5780634b4e67531461026e578063571f03e51461028157600080fd5b80631df970bd116101ad5780631df970bd1461020f57806326d2cec2146102225780633036b4391461023557806338ae0cc31461024857600080fd5b806302fb45e6146101d4578063145f5892146101e95780631d2118f9146101fc575b600080fd5b6101e76101e2366004613c48565b610404565b005b6101e76101f7366004613ce5565b6104c8565b6101e761020a366004613d11565b610609565b6101e761021d366004613d5f565b61074e565b6101e7610230366004613ce5565b61094e565b6101e7610243366004613d83565b610abf565b6101e7610256366004613daa565b610c55565b6101e7610269366004613daa565b610d87565b6101e761027c366004613ce5565b610eba565b6101e761028f366004613ce5565b61102b565b6101e76102a2366004613dd8565b611162565b6101e76102b5366004613daa565b611219565b6101e76102c8366004613df5565b6113a5565b6101e76102db366004613e30565b61143d565b6102e8600181565b60405190815260200160405180910390f35b6101e7610308366004613e4d565b611531565b6101e761031b366004613d5f565b61178e565b6101e761032e366004613daa565b61197d565b6101e7610341366004613daa565b611b0d565b6101e7610354366004613daa565b611c33565b6101e7610367366004613df5565b611d87565b6101e761037a366004613ce5565b611dec565b6101e761038d366004613daa565b611fb3565b6101e76103a0366004613e88565b6120e7565b6101e76103b3366004613ee4565b61214c565b6101e76103c6366004613dd8565b6125c8565b6101e76103d9366004613ce5565b61275b565b6101e76103ec366004613fb2565b612892565b6101e76103ff366004613daa565b612ad3565b61040c612bf9565b6035546001600160a01b031660005b828110156104c257738fF475bc1Ea9b397093cae61C9eE50b5Fa1Dd92263df59b8b28386868581811061045057610450613fe7565b90506020028101906104629190613ffd565b6040518363ffffffff1660e01b815260040161047f929190614094565b60006040518083038186803b15801561049757600080fd5b505af41580156104ab573d6000803e3d6000fd5b5050505080806104ba906142bd565b91505061041b565b50505050565b6104d0612db1565b60355460405163c44b11f760e01b81526001600160a01b038481166004830152600092169063c44b11f790602401602060405180830381865afa15801561051b573d6000803e3d6000fd5b505050506040513d601f19601f8201168201806040525081019061053f91906143bc565b805190915060b01c640fffffffff166105588284612f65565b60355460405163f51e435b60e01b81526001600160a01b038681166004830152845160248301529091169063f51e435b90604401600060405180830381600087803b1580156105a657600080fd5b505af11580156105ba573d6000803e3d6000fd5b505060408051848152602081018790526001600160a01b03881693507f09808b1fc5abde94edf02fdde393bea0d2e4795999ba31695472848638b5c29f9250015b60405180910390a250505050565b610611612db1565b6035546040516335ea6a7560e01b81526001600160a01b03848116600483015260009216906335ea6a75906024016101e060405180830381865afa15801561065d573d6000803e3d6000fd5b505050506040513d601f19601f82011682018060405250810190610681919061440e565b6101608101516035546040517f1d2118f90000000000000000000000000000000000000000000000000000000081526001600160a01b038781166004830152868116602483015293945091921690631d2118f990604401600060405180830381600087803b1580156106f257600080fd5b505af1158015610706573d6000803e3d6000fd5b5050604080516001600160a01b0385811682528781166020830152881693507fdb8dada53709ce4988154324196790c2e4a60c377e1256790946f83b87db3c339250016105fb565b610756612fef565b604080518082019091526002815261313960f01b60208201526127106001600160801b03831611156107a45760405162461bcd60e51b815260040161079b9190614589565b60405180910390fd5b506035546040805163354ce01b60e11b815290516000926001600160a01b031691636a99c0369160048083019260209291908290030181865afa1580156107ef573d6000803e3d6000fd5b505050506040513d601f19601f82011682018060405250810190610813919061459c565b6035546040805163074b2e4360e01b815290519293506001600160a01b039091169163bcb6e52291839163074b2e43916004808201926020929091908290030181865afa158015610868573d6000803e3d6000fd5b505050506040513d601f19601f8201168201806040525081019061088c919061459c565b6040517fffffffff0000000000000000000000000000000000000000000000000000000060e084901b1681526001600160801b0391821660048201529085166024820152604401600060405180830381600087803b1580156108ed57600080fd5b505af1158015610901573d6000803e3d6000fd5b5050604080516001600160801b038086168252861660208201527fe7e0c75e1fc2d0bd83dc85d59f085b3e763107c392fb368e85572b292f1f557693500190505b60405180910390a15050565b610956612db1565b604080518082019091526002815261037360f41b60208201526127108211156109925760405162461bcd60e51b815260040161079b9190614589565b5060355460405163c44b11f760e01b81526001600160a01b038481166004830152600092169063c44b11f790602401602060405180830381865afa1580156109de573d6000803e3d6000fd5b505050506040513d601f19601f82011682018060405250810190610a0291906143bc565b805190915060981c61ffff16610a18828461311c565b60355460405163f51e435b60e01b81526001600160a01b038681166004830152845160248301529091169063f51e435b90604401600060405180830381600087803b158015610a6657600080fd5b505af1158015610a7a573d6000803e3d6000fd5b505060408051848152602081018790526001600160a01b03881693507fb5b0a963825337808b6e3154de8e98027595a5cad4219bb3a9bc55b192f4b3919250016105fb565b610ac7612fef565b60408051808201909152600281527f32320000000000000000000000000000000000000000000000000000000000006020820152612710821115610b1e5760405162461bcd60e51b815260040161079b9190614589565b50603554604080517f272d907200000000000000000000000000000000000000000000000000000000815290516000926001600160a01b03169163272d90729160048083019260209291908290030181865afa158015610b82573d6000803e3d6000fd5b505050506040513d601f19601f82011682018060405250810190610ba691906145b9565b6035546040517f3036b439000000000000000000000000000000000000000000000000000000008152600481018590529192506001600160a01b031690633036b43990602401600060405180830381600087803b158015610c0657600080fd5b505af1158015610c1a573d6000803e3d6000fd5b505060408051848152602081018690527f30b17cb587a89089d003457c432f73e22aeee93de425e92224ba01080260ecd99350019050610942565b610c5d612db1565b60355460405163c44b11f760e01b81526001600160a01b038481166004830152600092169063c44b11f790602401602060405180830381865afa158015610ca8573d6000803e3d6000fd5b505050506040513d601f19601f82011682018060405250810190610ccc91906143bc565b9050610cd88183613188565b60355460405163f51e435b60e01b81526001600160a01b038581166004830152835160248301529091169063f51e435b90604401600060405180830381600087803b158015610d2657600080fd5b505af1158015610d3a573d6000803e3d6000fd5b5050604080516001600160a01b038716815285151560208201527f74adf6aaf58c08bc4f993640385e136522375ea3d1589a10d02adbb906c67d1c935001905060405180910390a1505050565b610d8f6131b6565b60355460405163c44b11f760e01b81526001600160a01b038481166004830152600092169063c44b11f790602401602060405180830381865afa158015610dda573d6000803e3d6000fd5b505050506040513d601f19601f82011682018060405250810190610dfe91906143bc565b9050610e0a8183613351565b60355460405163f51e435b60e01b81526001600160a01b038581166004830152835160248301529091169063f51e435b90604401600060405180830381600087803b158015610e5857600080fd5b505af1158015610e6c573d6000803e3d6000fd5b50505050826001600160a01b03167fe188d542a5f11925d3a3af33703cdd30a43cb3e8066a3cf68b1b57f61a5a94b583604051610ead911515815260200190565b60405180910390a2505050565b610ec2612db1565b604080518082019091526002815261363760f01b6020820152612710821115610efe5760405162461bcd60e51b815260040161079b9190614589565b5060355460405163c44b11f760e01b81526001600160a01b038481166004830152600092169063c44b11f790602401602060405180830381865afa158015610f4a573d6000803e3d6000fd5b505050506040513d601f19601f82011682018060405250810190610f6e91906143bc565b805190915060401c61ffff16610f84828461337f565b60355460405163f51e435b60e01b81526001600160a01b038681166004830152845160248301529091169063f51e435b90604401600060405180830381600087803b158015610fd257600080fd5b505af1158015610fe6573d6000803e3d6000fd5b505060408051848152602081018790526001600160a01b03881693507fb46e2b82b0c2cf3d7d9dece53635e165c53e0eaa7a44f904d61a2b7174826aef9250016105fb565b611033612db1565b60355460405163c44b11f760e01b81526001600160a01b038481166004830152600092169063c44b11f790602401602060405180830381865afa15801561107e573d6000803e3d6000fd5b505050506040513d601f19601f820116820180604052508101906110a291906143bc565b805190915060741c640fffffffff166110bb82846133d6565b60355460405163f51e435b60e01b81526001600160a01b038681166004830152845160248301529091169063f51e435b90604401600060405180830381600087803b15801561110957600080fd5b505af115801561111d573d6000803e3d6000fd5b505060408051848152602081018790526001600160a01b03881693507f0263602682188540a2d633561c0b4453b7d8566285e99f9f6018b8ef2facef499250016105fb565b61116a612fef565b6035546040517f63c9b8600000000000000000000000000000000000000000000000000000000081526001600160a01b038381166004830152909116906363c9b86090602401600060405180830381600087803b1580156111ca57600080fd5b505af11580156111de573d6000803e3d6000fd5b50506040516001600160a01b03841692507feeec4c06f7adad215cbdb4d2960896c83c26aedce02dde76d36fa28588d62da49150600090a250565b611221612db1565b60355460405163c44b11f760e01b81526001600160a01b038481166004830152600092169063c44b11f790602401602060405180830381865afa15801561126c573d6000803e3d6000fd5b505050506040513d601f19601f8201168201806040525081019061129091906143bc565b9050816112f857805160408051808201909152600281527f383800000000000000000000000000000000000000000000000000000000000060208201529067080000000000000016156112f65760405162461bcd60e51b815260040161079b9190614589565b505b6113028183613460565b60355460405163f51e435b60e01b81526001600160a01b038581166004830152835160248301529091169063f51e435b90604401600060405180830381600087803b15801561135057600080fd5b505af1158015611364573d6000803e3d6000fd5b50505050826001600160a01b03167f2443ba28e8d1d88d531a3d90b981816a4f3b3c7f1fd4085c6029e81d1b7a570d83604051610ead911515815260200190565b6113ad612fef565b6035546040517ff5b50e70000000000000000000000000000000000000000000000000000000008152738fF475bc1Ea9b397093cae61C9eE50b5Fa1Dd9229163f5b50e709161140a916001600160a01b03169085906004016145d2565b60006040518083038186803b15801561142257600080fd5b505af4158015611436573d6000803e3d6000fd5b5050505050565b61144561348e565b603554604080516334651b6f60e21b815290516000926001600160a01b03169163d1946dbc91600480830192869291908290030181865afa15801561148e573d6000803e3d6000fd5b505050506040513d6000823e601f3d908101601f191682016040526114b6919081019061469f565b905060005b815181101561152c5760006001600160a01b03168282815181106114e1576114e1613fe7565b60200260200101516001600160a01b03161461151a5761151a82828151811061150c5761150c613fe7565b602002602001015184610d87565b80611524816142bd565b9150506114bb565b505050565b611539612db1565b604080518082019091526002815261032360f41b6020820152828411156115735760405162461bcd60e51b815260040161079b9190614589565b5060355460405163c44b11f760e01b81526001600160a01b038681166004830152600092169063c44b11f790602401602060405180830381865afa1580156115bf573d6000803e3d6000fd5b505050506040513d601f19601f820116820180604052508101906115e391906143bc565b9050821561167557604080518082019091526002815261032360f41b602082015261271083116116265760405162461bcd60e51b815260040161079b9190614589565b5061271061163484846135bb565b111560405180604001604052806002815260200161032360f41b8152509061166f5760405162461bcd60e51b815260040161079b9190614589565b506116b7565b604080518082019091526002815261032360f41b602082015282156116ad5760405162461bcd60e51b815260040161079b9190614589565b506116b7856135e1565b6116c18185613738565b6116cb818461379c565b6116d58183613808565b60355460405163f51e435b60e01b81526001600160a01b038781166004830152835160248301529091169063f51e435b90604401600060405180830381600087803b15801561172357600080fd5b505af1158015611737573d6000803e3d6000fd5b505060408051878152602081018790529081018590526001600160a01b03881692507f637febbda9275aea2e85c0ff690444c8d87eb2e8339bbede9715abcc89cb0995915060600160405180910390a25050505050565b611796612fef565b604080518082019091526002815261313960f01b60208201526127106001600160801b03831611156117db5760405162461bcd60e51b815260040161079b9190614589565b506035546040805163074b2e4360e01b815290516000926001600160a01b03169163074b2e439160048083019260209291908290030181865afa158015611826573d6000803e3d6000fd5b505050506040513d601f19601f8201168201806040525081019061184a919061459c565b6035546040805163354ce01b60e11b815290519293506001600160a01b039091169163bcb6e5229185918491636a99c0369160048083019260209291908290030181865afa1580156118a0573d6000803e3d6000fd5b505050506040513d601f19601f820116820180604052508101906118c4919061459c565b6040517fffffffff0000000000000000000000000000000000000000000000000000000060e085901b1681526001600160801b03928316600482015291166024820152604401600060405180830381600087803b15801561192457600080fd5b505af1158015611938573d6000803e3d6000fd5b5050604080516001600160801b038086168252861660208201527f71aba182c9d0529b516de7a78bed74d49c207ef7e152f52f7ea5d8730138f6439350019050610942565b611985612db1565b60355460405163c44b11f760e01b81526001600160a01b038481166004830152600092169063c44b11f790602401602060405180830381865afa1580156119d0573d6000803e3d6000fd5b505050506040513d601f19601f820116820180604052508101906119f491906143bc565b90508115611a605780516704000000000000001615156040518060400160405280600281526020017f333000000000000000000000000000000000000000000000000000000000000081525090611a5e5760405162461bcd60e51b815260040161079b9190614589565b505b611a6a8183613876565b60355460405163f51e435b60e01b81526001600160a01b038581166004830152835160248301529091169063f51e435b90604401600060405180830381600087803b158015611ab857600080fd5b505af1158015611acc573d6000803e3d6000fd5b50505050826001600160a01b03167f0b64d0941719acd363f1a6be3d8525d8ec9d71738f7445aabcd88d7939b472e783604051610ead911515815260200190565b611b15612db1565b60355460405163c44b11f760e01b81526001600160a01b038481166004830152600092169063c44b11f790602401602060405180830381865afa158015611b60573d6000803e3d6000fd5b505050506040513d601f19601f82011682018060405250810190611b8491906143bc565b9050611b9081836138a4565b60355460405163f51e435b60e01b81526001600160a01b038581166004830152835160248301529091169063f51e435b90604401600060405180830381600087803b158015611bde57600080fd5b505af1158015611bf2573d6000803e3d6000fd5b50505050826001600160a01b03167f0c4443d258a350d27dc50c378b2ebf165e6469725f786d21b30cab16823f558783604051610ead911515815260200190565b611c3b612db1565b8015611c4a57611c4a826138d2565b60355460405163c44b11f760e01b81526001600160a01b038481166004830152600092169063c44b11f790602401602060405180830381865afa158015611c95573d6000803e3d6000fd5b505050506040513d601f19601f82011682018060405250810190611cb991906143bc565b90506000611cd1825167400000000000000016151590565b9050611cdd8284613a34565b60355460405163f51e435b60e01b81526001600160a01b038681166004830152845160248301529091169063f51e435b90604401600060405180830381600087803b158015611d2b57600080fd5b505af1158015611d3f573d6000803e3d6000fd5b505060408051841515815286151560208201526001600160a01b03881693507f842a280b07e8e502a9101f32a3b768ebaba3655556dd674f0831900861fc674b9250016105fb565b611d8f612fef565b6035546040517fb0f09355000000000000000000000000000000000000000000000000000000008152738fF475bc1Ea9b397093cae61C9eE50b5Fa1Dd9229163b0f093559161140a916001600160a01b03169085906004016145d2565b611df4612db1565b60355460405163c44b11f760e01b81526001600160a01b038481166004830152600092169063c44b11f790602401602060405180830381865afa158015611e3f573d6000803e3d6000fd5b505050506040513d601f19601f82011682018060405250810190611e6391906143bc565b805190915060d41c64ffffffffff1680611e8057611e80846135e1565b611e8a8284613a62565b60355460405163f51e435b60e01b81526001600160a01b038681166004830152845160248301529091169063f51e435b90604401600060405180830381600087803b158015611ed857600080fd5b505af1158015611eec573d6000803e3d6000fd5b505050508260001415611f72576035546040517fe43e88a10000000000000000000000000000000000000000000000000000000081526001600160a01b0386811660048301529091169063e43e88a190602401600060405180830381600087803b158015611f5957600080fd5b505af1158015611f6d573d6000803e3d6000fd5b505050505b60408051828152602081018590526001600160a01b038616917f6824a6c7fbc10d2979b1f1ccf2dd4ed0436541679a661dedb5c10bd4be83068291016105fb565b611fbb612fef565b80611fc957611fc9826135e1565b60355460405163c44b11f760e01b81526001600160a01b038481166004830152600092169063c44b11f790602401602060405180830381865afa158015612014573d6000803e3d6000fd5b505050506040513d601f19601f8201168201806040525081019061203891906143bc565b90506120448183613aec565b60355460405163f51e435b60e01b81526001600160a01b038581166004830152835160248301529091169063f51e435b90604401600060405180830381600087803b15801561209257600080fd5b505af11580156120a6573d6000803e3d6000fd5b50505050826001600160a01b03167fc36c7d11ba01a5869d52aa4a3781939dab851cbc9ee6e7fdcedc7d58898a3f1e83604051610ead911515815260200190565b6120ef612fef565b6035546040517fb13c96a8000000000000000000000000000000000000000000000000000000008152738fF475bc1Ea9b397093cae61C9eE50b5Fa1Dd9229163b13c96a89161140a916001600160a01b0316908590600401614751565b612154612db1565b604080518082019091526002815261323160f01b602082015261ffff871661218f5760405162461bcd60e51b815260040161079b9190614589565b50604080518082019091526002815261323160f01b602082015261ffff86166121cb5760405162461bcd60e51b815260040161079b9190614589565b508461ffff168661ffff16111560405180604001604052806002815260200161323160f01b815250906122115760405162461bcd60e51b815260040161079b9190614589565b50604080518082019091526002815261323160f01b602082015261271061ffff8616116122515760405162461bcd60e51b815260040161079b9190614589565b5061271061226661ffff8781169087166135bb565b111560405180604001604052806002815260200161323160f01b815250906122a15760405162461bcd60e51b815260040161079b9190614589565b50603554604080516334651b6f60e21b815290516000926001600160a01b03169163d1946dbc91600480830192869291908290030181865afa1580156122eb573d6000803e3d6000fd5b505050506040513d6000823e601f3d908101601f19168201604052612313919081019061469f565b905060005b81518110156124775760355482516000916001600160a01b03169063c44b11f79085908590811061234b5761234b613fe7565b60200260200101516040518263ffffffff1660e01b815260040161237e91906001600160a01b0391909116815260200190565b602060405180830381865afa15801561239b573d6000803e3d6000fd5b505050506040513d601f19601f820116820180604052508101906123bf91906143bc565b805190915060a81c60ff168a60ff16141561246457805161ffff168961ffff161160405180604001604052806002815260200161323160f01b815250906124195760405162461bcd60e51b815260040161079b9190614589565b50805160101c61ffff168861ffff161160405180604001604052806002815260200161323160f01b815250906124625760405162461bcd60e51b815260040161079b9190614589565b505b508061246f816142bd565b915050612318565b50603560009054906101000a90046001600160a01b03166001600160a01b031663d579ea7d896040518060a001604052808b61ffff1681526020018a61ffff1681526020018961ffff168152602001886001600160a01b0316815260200187878080601f01602080910402602001604051908101604052809392919081815260200183838082843760009201919091525050509152506040517fffffffff0000000000000000000000000000000000000000000000000000000060e085901b16815261254792919060040161483e565b600060405180830381600087803b15801561256157600080fd5b505af1158015612575573d6000803e3d6000fd5b505050508760ff167f0acf8b4a3cace10779798a89a206a0ae73a71b63acdd3be2801d39c2ef7ab3cb8888888888886040516125b6969594939291906148a7565b60405180910390a25050505050505050565b6001805460ff16806125d95750303b155b806125e5575060005481115b6126575760405162461bcd60e51b815260206004820152602e60248201527f436f6e747261637420696e7374616e63652068617320616c726561647920626560448201527f656e20696e697469616c697a6564000000000000000000000000000000000000606482015260840161079b565b60015460ff16158015612676576001805460ff19168117905560008290555b6034805473ffffffffffffffffffffffffffffffffffffffff19166001600160a01b038516908117909155604080517f026b1d5f000000000000000000000000000000000000000000000000000000008152905163026b1d5f916004808201926020929091908290030181865afa1580156126f5573d6000803e3d6000fd5b505050506040513d601f19601f8201168201806040525081019061271991906148e6565b6035805473ffffffffffffffffffffffffffffffffffffffff19166001600160a01b0392909216919091179055801561152c576001805460ff19169055505050565b612763612db1565b60355460405163c44b11f760e01b81526001600160a01b038481166004830152600092169063c44b11f790602401602060405180830381865afa1580156127ae573d6000803e3d6000fd5b505050506040513d601f19601f820116820180604052508101906127d291906143bc565b805190915060501c640fffffffff166127eb8284613b1a565b60355460405163f51e435b60e01b81526001600160a01b038681166004830152845160248301529091169063f51e435b90604401600060405180830381600087803b15801561283957600080fd5b505af115801561284d573d6000803e3d6000fd5b505060408051848152602081018790526001600160a01b03881693507fc51aca575985d521c5072ad11549bad77013bb786d57f30f94b40ed8f8dc9bc49250016105fb565b61289a612db1565b60355460405163c44b11f760e01b81526001600160a01b038481166004830152600092169063c44b11f790602401602060405180830381865afa1580156128e5573d6000803e3d6000fd5b505050506040513d601f19601f8201168201806040525081019061290991906143bc565b905060ff821615612a0e576035546040517f6c6f6ae100000000000000000000000000000000000000000000000000000000815260ff841660048201526000916001600160a01b031690636c6f6ae190602401600060405180830381865afa158015612979573d6000803e3d6000fd5b505050506040513d6000823e601f3d908101601f191682016040526129a19190810190614903565b825190915060101c61ffff16816020015161ffff16116040518060400160405280600281526020017f313700000000000000000000000000000000000000000000000000000000000081525090612a0b5760405162461bcd60e51b815260040161079b9190614589565b50505b805160009060a81c60ff169050612a288260ff8516613b94565b60355460405163f51e435b60e01b81526001600160a01b038681166004830152845160248301529091169063f51e435b90604401600060405180830381600087803b158015612a7657600080fd5b505af1158015612a8a573d6000803e3d6000fd5b50506040805160ff8086168252871660208201526001600160a01b03881693507f5bb69795b6a2ea222d73a5f8939c23471a1f85a99c7ca43c207f1b71f10c62649250016105fb565b612adb612db1565b60355460405163c44b11f760e01b81526001600160a01b038481166004830152600092169063c44b11f790602401602060405180830381865afa158015612b26573d6000803e3d6000fd5b505050506040513d601f19601f82011682018060405250810190612b4a91906143bc565b9050612b568183613c1a565b60355460405163f51e435b60e01b81526001600160a01b038581166004830152835160248301529091169063f51e435b90604401600060405180830381600087803b158015612ba457600080fd5b505af1158015612bb8573d6000803e3d6000fd5b50505050826001600160a01b03167fc8ff3cc5b0fddaa3e6ebbbd7438f43393e4ea30e88b80ad016c1bc094655034d83604051610ead911515815260200190565b6034546040805163383e6b8b60e11b815290516000926001600160a01b03169163707cd7169160048083019260209291908290030181865afa158015612c43573d6000803e3d6000fd5b505050506040513d601f19601f82011682018060405250810190612c6791906148e6565b6040517f13ee32e00000000000000000000000000000000000000000000000000000000081523360048201529091506001600160a01b038216906313ee32e090602401602060405180830381865afa158015612cc7573d6000803e3d6000fd5b505050506040513d601f19601f82011682018060405250810190612ceb9190614a10565b80612d595750604051637be53ca160e01b81523360048201526001600160a01b03821690637be53ca190602401602060405180830381865afa158015612d35573d6000803e3d6000fd5b505050506040513d601f19601f82011682018060405250810190612d599190614a10565b6040518060400160405280600181526020017f350000000000000000000000000000000000000000000000000000000000000081525090612dad5760405162461bcd60e51b815260040161079b9190614589565b5050565b6034546040805163383e6b8b60e11b815290516000926001600160a01b03169163707cd7169160048083019260209291908290030181865afa158015612dfb573d6000803e3d6000fd5b505050506040513d601f19601f82011682018060405250810190612e1f91906148e6565b6040517f674b5e4d0000000000000000000000000000000000000000000000000000000081523360048201529091506001600160a01b0382169063674b5e4d90602401602060405180830381865afa158015612e7f573d6000803e3d6000fd5b505050506040513d601f19601f82011682018060405250810190612ea39190614a10565b80612f115750604051637be53ca160e01b81523360048201526001600160a01b03821690637be53ca190602401602060405180830381865afa158015612eed573d6000803e3d6000fd5b505050506040513d601f19601f82011682018060405250810190612f119190614a10565b6040518060400160405280600181526020017f340000000000000000000000000000000000000000000000000000000000000081525090612dad5760405162461bcd60e51b815260040161079b9190614589565b60408051808201909152600281527f37320000000000000000000000000000000000000000000000000000000000006020820152640fffffffff821115612fbf5760405162461bcd60e51b815260040161079b9190614589565b5081517ffffffffffff000000000ffffffffffffffffffffffffffffffffffffffffffff1660b09190911b179052565b6034546040805163383e6b8b60e11b815290516000926001600160a01b03169163707cd7169160048083019260209291908290030181865afa158015613039573d6000803e3d6000fd5b505050506040513d601f19601f8201168201806040525081019061305d91906148e6565b604051637be53ca160e01b81523360048201529091506001600160a01b03821690637be53ca190602401602060405180830381865afa1580156130a4573d6000803e3d6000fd5b505050506040513d601f19601f820116820180604052508101906130c89190614a10565b6040518060400160405280600181526020017f310000000000000000000000000000000000000000000000000000000000000081525090612dad5760405162461bcd60e51b815260040161079b9190614589565b604080518082019091526002815261037360f41b602082015261ffff8211156131585760405162461bcd60e51b815260040161079b9190614589565b5081517fffffffffffffffffffffff0000ffffffffffffffffffffffffffffffffffffff1660989190911b179052565b603d81613196576000613199565b60015b8351672000000000000000191660ff9190911690911b1790915250565b6034546040805163383e6b8b60e11b815290516000926001600160a01b03169163707cd7169160048083019260209291908290030181865afa158015613200573d6000803e3d6000fd5b505050506040513d601f19601f8201168201806040525081019061322491906148e6565b604051637be53ca160e01b81523360048201529091506001600160a01b03821690637be53ca190602401602060405180830381865afa15801561326b573d6000803e3d6000fd5b505050506040513d601f19601f8201168201806040525081019061328f9190614a10565b806132fd5750604051631280795b60e11b81523360048201526001600160a01b03821690632500f2b690602401602060405180830381865afa1580156132d9573d6000803e3d6000fd5b505050506040513d601f19601f820116820180604052508101906132fd9190614a10565b6040518060400160405280600181526020017f330000000000000000000000000000000000000000000000000000000000000081525090612dad5760405162461bcd60e51b815260040161079b9190614589565b603c8161335f576000613362565b60015b8351671000000000000000191660ff9190911690911b1790915250565b604080518082019091526002815261363760f01b602082015261ffff8211156133bb5760405162461bcd60e51b815260040161079b9190614589565b50815169ffff0000000000000000191660409190911b179052565b60408051808201909152600281527f36390000000000000000000000000000000000000000000000000000000000006020820152640fffffffff8211156134305760405162461bcd60e51b815260040161079b9190614589565b5081517fffffffffffffffffffffffffff000000000fffffffffffffffffffffffffffff1660749190911b179052565b603a8161346e576000613471565b60015b8351670400000000000000191660ff9190911690911b1790915250565b6034546040805163383e6b8b60e11b815290516000926001600160a01b03169163707cd7169160048083019260209291908290030181865afa1580156134d8573d6000803e3d6000fd5b505050506040513d601f19601f820116820180604052508101906134fc91906148e6565b604051631280795b60e11b81523360048201529091506001600160a01b03821690632500f2b690602401602060405180830381865afa158015613543573d6000803e3d6000fd5b505050506040513d601f19601f820116820180604052508101906135679190614a10565b6040518060400160405280600181526020017f320000000000000000000000000000000000000000000000000000000000000081525090612dad5760405162461bcd60e51b815260040161079b9190614589565b6000811561138819839004841115176135d357600080fd5b506127109102611388010490565b600080603460009054906101000a90046001600160a01b03166001600160a01b031663e860accb6040518163ffffffff1660e01b8152600401602060405180830381865afa158015613637573d6000803e3d6000fd5b505050506040513d601f19601f8201168201806040525081019061365b91906148e6565b6040516335ea6a7560e01b81526001600160a01b03858116600483015291909116906335ea6a759060240161018060405180830381865afa1580156136a4573d6000803e3d6000fd5b505050506040513d601f19601f820116820180604052508101906136c89190614a2d565b50505050505050505092509250508060001480156136e4575081155b6040518060400160405280600281526020017f3138000000000000000000000000000000000000000000000000000000000000815250906104c25760405162461bcd60e51b815260040161079b9190614589565b60408051808201909152600281527f3633000000000000000000000000000000000000000000000000000000000000602082015261ffff82111561378f5760405162461bcd60e51b815260040161079b9190614589565b50815161ffff1916179052565b60408051808201909152600281527f3634000000000000000000000000000000000000000000000000000000000000602082015261ffff8211156137f35760405162461bcd60e51b815260040161079b9190614589565b50815163ffff0000191660109190911b179052565b60408051808201909152600281527f3635000000000000000000000000000000000000000000000000000000000000602082015261ffff82111561385f5760405162461bcd60e51b815260040161079b9190614589565b50815165ffff00000000191660209190911b179052565b603b81613884576000613887565b60015b8351670800000000000000191660ff9190911690911b1790915250565b6039816138b25760006138b5565b60015b8351670200000000000000191660ff9190911690911b1790915250565b603454604080517fe860accb00000000000000000000000000000000000000000000000000000000815290516000926001600160a01b03169163e860accb9160048083019260209291908290030181865afa158015613935573d6000803e3d6000fd5b505050506040513d601f19601f8201168201806040525081019061395991906148e6565b6040517f4d44ac4f0000000000000000000000000000000000000000000000000000000081526001600160a01b0384811660048301529190911690634d44ac4f90602401602060405180830381865afa1580156139ba573d6000803e3d6000fd5b505050506040513d601f19601f820116820180604052508101906139de91906145b9565b60408051808201909152600281527f39300000000000000000000000000000000000000000000000000000000000006020820152909150811561152c5760405162461bcd60e51b815260040161079b9190614589565b603e81613a42576000613a45565b60015b8351674000000000000000191660ff9190911690911b1790915250565b60408051808201909152600281527f3733000000000000000000000000000000000000000000000000000000000000602082015264ffffffffff821115613abc5760405162461bcd60e51b815260040161079b9190614589565b5081517ff0000000000fffffffffffffffffffffffffffffffffffffffffffffffffffff1660d49190911b179052565b603881613afa576000613afd565b60015b8351670100000000000000191660ff9190911690911b1790915250565b60408051808201909152600281527f36380000000000000000000000000000000000000000000000000000000000006020820152640fffffffff821115613b745760405162461bcd60e51b815260040161079b9190614589565b5081516e0fffffffff00000000000000000000191660509190911b179052565b60408051808201909152600281527f3731000000000000000000000000000000000000000000000000000000000000602082015260ff821115613bea5760405162461bcd60e51b815260040161079b9190614589565b5081517fffffffffffffffffffff00ffffffffffffffffffffffffffffffffffffffffff1660a89190911b179052565b603f81613c28576000613c2b565b60015b8351678000000000000000191660ff9190911690911b1790915250565b60008060208385031215613c5b57600080fd5b823567ffffffffffffffff80821115613c7357600080fd5b818501915085601f830112613c8757600080fd5b813581811115613c9657600080fd5b8660208260051b8501011115613cab57600080fd5b60209290920196919550909350505050565b6001600160a01b0381168114613cd257600080fd5b50565b8035613ce081613cbd565b919050565b60008060408385031215613cf857600080fd5b8235613d0381613cbd565b946020939093013593505050565b60008060408385031215613d2457600080fd5b8235613d2f81613cbd565b91506020830135613d3f81613cbd565b809150509250929050565b6001600160801b0381168114613cd257600080fd5b600060208284031215613d7157600080fd5b8135613d7c81613d4a565b9392505050565b600060208284031215613d9557600080fd5b5035919050565b8015158114613cd257600080fd5b60008060408385031215613dbd57600080fd5b8235613dc881613cbd565b91506020830135613d3f81613d9c565b600060208284031215613dea57600080fd5b8135613d7c81613cbd565b600060208284031215613e0757600080fd5b813567ffffffffffffffff811115613e1e57600080fd5b820160c08185031215613d7c57600080fd5b600060208284031215613e4257600080fd5b8135613d7c81613d9c565b60008060008060808587031215613e6357600080fd5b8435613e6e81613cbd565b966020860135965060408601359560600135945092505050565b600060208284031215613e9a57600080fd5b813567ffffffffffffffff811115613eb157600080fd5b820160e08185031215613d7c57600080fd5b803560ff81168114613ce057600080fd5b61ffff81168114613cd257600080fd5b600080600080600080600060c0888a031215613eff57600080fd5b613f0888613ec3565b96506020880135613f1881613ed4565b95506040880135613f2881613ed4565b94506060880135613f3881613ed4565b93506080880135613f4881613cbd565b925060a088013567ffffffffffffffff80821115613f6557600080fd5b818a0191508a601f830112613f7957600080fd5b813581811115613f8857600080fd5b8b6020828501011115613f9a57600080fd5b60208301945080935050505092959891949750929550565b60008060408385031215613fc557600080fd5b8235613fd081613cbd565b9150613fde60208401613ec3565b90509250929050565b634e487b7160e01b600052603260045260246000fd5b600082356101de1983360301811261401457600080fd5b9190910192915050565b6000808335601e1984360301811261403557600080fd5b830160208101925035905067ffffffffffffffff81111561405557600080fd5b80360383131561406457600080fd5b9250929050565b81835281816020850137506000828201602090810191909152601f909101601f19169091010190565b6001600160a01b0383168152604060208201526140c4604082016140b784613cd5565b6001600160a01b03169052565b60006140d260208401613cd5565b6001600160a01b031660608301526140ec60408401613cd5565b6001600160a01b0316608083015261410660608401613ec3565b60ff1660a083015261411a60808401613cd5565b6001600160a01b031660c083015261413460a08401613cd5565b6001600160a01b031660e083015261414e60c08401613cd5565b610100614165818501836001600160a01b03169052565b61417160e08601613cd5565b915061012061418a818601846001600160a01b03169052565b6141968287018761401e565b935091506101e061014081818801526141b46102208801868661406b565b94506141c28389018961401e565b94509250603f196101608189880301818a01526141e087878761406b565b96506141ee838b018b61401e565b9650945061018092508189880301838a015261420b87878761406b565b9650614219818b018b61401e565b96509450506101a08189880301818a015261423587878761406b565b9650614243838b018b61401e565b965094506101c092508189880301838a015261426087878761406b565b965061426e818b018b61401e565b965094505080888703018389015261428786868661406b565b9550614295828a018a61401e565b9550935080888703016102008901525050506142b283838361406b565b979650505050505050565b60006000198214156142df57634e487b7160e01b600052601160045260246000fd5b5060010190565b634e487b7160e01b600052604160045260246000fd5b6040516101e0810167ffffffffffffffff81118282101715614320576143206142e6565b60405290565b60405160a0810167ffffffffffffffff81118282101715614320576143206142e6565b604051601f8201601f1916810167ffffffffffffffff81118282101715614372576143726142e6565b604052919050565b60006020828403121561438c57600080fd5b6040516020810181811067ffffffffffffffff821117156143af576143af6142e6565b6040529151825250919050565b6000602082840312156143ce57600080fd5b613d7c838361437a565b8051613ce081613d4a565b805164ffffffffff81168114613ce057600080fd5b8051613ce081613ed4565b8051613ce081613cbd565b60006101e0828403121561442157600080fd5b6144296142fc565b614433848461437a565b8152614441602084016143d8565b6020820152614452604084016143d8565b6040820152614463606084016143d8565b6060820152614474608084016143d8565b608082015261448560a084016143d8565b60a082015261449660c084016143e3565b60c08201526144a760e084016143f8565b60e08201526101006144ba818501614403565b908201526101206144cc848201614403565b908201526101406144de848201614403565b908201526101606144f0848201614403565b908201526101806145028482016143d8565b908201526101a06145148482016143d8565b908201526101c06145268482016143d8565b908201529392505050565b60005b8381101561454c578181015183820152602001614534565b838111156104c25750506000910152565b60008151808452614575816020860160208601614531565b601f01601f19169290920160200192915050565b602081526000613d7c602083018461455d565b6000602082840312156145ae57600080fd5b8151613d7c81613d4a565b6000602082840312156145cb57600080fd5b5051919050565b60006001600160a01b0380851683526040602084015283356145f381613cbd565b81166040840152602084013561460881613cbd565b16606083015261461b604084018461401e565b60c060808501526146316101008501828461406b565b915050614641606085018561401e565b603f19808685030160a087015261465984838561406b565b935061466760808801613cd5565b6001600160a01b03811660c0880152925061468560a088018861401e565b93509150808685030160e0870152506142b283838361406b565b600060208083850312156146b257600080fd5b825167ffffffffffffffff808211156146ca57600080fd5b818501915085601f8301126146de57600080fd5b8151818111156146f0576146f06142e6565b8060051b9150614701848301614349565b818152918301840191848101908884111561471b57600080fd5b938501935b83851015614745578451925061473583613cbd565b8282529385019390850190614720565b98975050505050505050565b60006001600160a01b03808516835260406020840152833561477281613cbd565b16604083015261478460208401613cd5565b6001600160a01b0316606083015261479e60408401613cd5565b6001600160a01b031660808301526147b9606084018461401e565b60e060a08501526147cf6101208501828461406b565b9150506147df608085018561401e565b603f19808685030160c08701526147f784838561406b565b935061480560a08801613cd5565b6001600160a01b03811660e0880152925061482360c088018861401e565b935091508086850301610100870152506142b283838361406b565b60ff8316815260406020820152600061ffff808451166040840152806020850151166060840152806040850151166080840152506001600160a01b0360608401511660a0830152608083015160a060c084015261489e60e084018261455d565b95945050505050565b600061ffff808916835280881660208401528087166040840152506001600160a01b038516606083015260a0608083015261474560a08301848661406b565b6000602082840312156148f857600080fd5b8151613d7c81613cbd565b6000602080838503121561491657600080fd5b825167ffffffffffffffff8082111561492e57600080fd5b9084019060a0828703121561494257600080fd5b61494a614326565b825161495581613ed4565b81528284015161496481613ed4565b81850152604083015161497681613ed4565b6040820152606083015161498981613cbd565b60608201526080830151828111156149a057600080fd5b80840193505086601f8401126149b557600080fd5b8251828111156149c7576149c76142e6565b6149d9601f8201601f19168601614349565b925080835287858286010111156149ef57600080fd5b6149fe81868501878701614531565b50608081019190915295945050505050565b600060208284031215614a2257600080fd5b8151613d7c81613d9c565b6000806000806000806000806000806000806101808d8f031215614a5057600080fd5b8c519b5060208d01519a5060408d0151995060608d0151985060808d0151975060a08d0151965060c08d0151955060e08d015194506101008d015193506101208d015192506101408d01519150614aaa6101608e016143e3565b90509295989b509295989b509295989b56fea26469706673582212202311418a2fe848d3e941013c6275cd22bf9270185bf3f582a6004d6e847f8bc464736f6c634300080a0033",
  "deployedBytecode": "0x608060405234801561001057600080fd5b50600436106101cf5760003560e01c80637af635a611610104578063aeb4fcc1116100a2578063c4d66de811610071578063c4d66de8146103b8578063d14a0983146103cb578063d4fe3f99146103de578063f213ef0e146103f157600080fd5b8063aeb4fcc11461036c578063b736aaeb1461037f578063bb01c37c14610392578063c19d61e4146103a557600080fd5b80638a751a60116100de5780638a751a601461032057806396e957c414610333578063a7fa83b714610346578063ad4e64321461035957600080fd5b80637af635a6146102e05780637c4e560b146102fa5780638a4936761461030d57600080fd5b806348d9fba91161017157806363c9b8601161014b57806363c9b86014610294578063682cf264146102a75780637626cde3146102ba5780637641f3d9146102cd57600080fd5b806348d9fba91461025b5780634b4e67531461026e578063571f03e51461028157600080fd5b80631df970bd116101ad5780631df970bd1461020f57806326d2cec2146102225780633036b4391461023557806338ae0cc31461024857600080fd5b806302fb45e6146101d4578063145f5892146101e95780631d2118f9146101fc575b600080fd5b6101e76101e2366004613c48565b610404565b005b6101e76101f7366004613ce5565b6104c8565b6101e761020a366004613d11565b610609565b6101e761021d366004613d5f565b61074e565b6101e7610230366004613ce5565b61094e565b6101e7610243366004613d83565b610abf565b6101e7610256366004613daa565b610c55565b6101e7610269366004613daa565b610d87565b6101e761027c366004613ce5565b610eba565b6101e761028f366004613ce5565b61102b565b6101e76102a2366004613dd8565b611162565b6101e76102b5366004613daa565b611219565b6101e76102c8366004613df5565b6113a5565b6101e76102db366004613e30565b61143d565b6102e8600181565b60405190815260200160405180910390f35b6101e7610308366004613e4d565b611531565b6101e761031b366004613d5f565b61178e565b6101e761032e366004613daa565b61197d565b6101e7610341366004613daa565b611b0d565b6101e7610354366004613daa565b611c33565b6101e7610367366004613df5565b611d87565b6101e761037a366004613ce5565b611dec565b6101e761038d366004613daa565b611fb3565b6101e76103a0366004613e88565b6120e7565b6101e76103b3366004613ee4565b61214c565b6101e76103c6366004613dd8565b6125c8565b6101e76103d9366004613ce5565b61275b565b6101e76103ec366004613fb2565b612892565b6101e76103ff366004613daa565b612ad3565b61040c612bf9565b6035546001600160a01b031660005b828110156104c25773__$9bbf4152a5c89ac4403fcefc216f412ffa$__63df59b8b28386868581811061045057610450613fe7565b90506020028101906104629190613ffd565b6040518363ffffffff1660e01b815260040161047f929190614094565b60006040518083038186803b15801561049757600080fd5b505af41580156104ab573d6000803e3d6000fd5b5050505080806104ba906142bd565b91505061041b565b50505050565b6104d0612db1565b60355460405163c44b11f760e01b81526001600160a01b038481166004830152600092169063c44b11f790602401602060405180830381865afa15801561051b573d6000803e3d6000fd5b505050506040513d601f19601f8201168201806040525081019061053f91906143bc565b805190915060b01c640fffffffff166105588284612f65565b60355460405163f51e435b60e01b81526001600160a01b038681166004830152845160248301529091169063f51e435b90604401600060405180830381600087803b1580156105a657600080fd5b505af11580156105ba573d6000803e3d6000fd5b505060408051848152602081018790526001600160a01b03881693507f09808b1fc5abde94edf02fdde393bea0d2e4795999ba31695472848638b5c29f9250015b60405180910390a250505050565b610611612db1565b6035546040516335ea6a7560e01b81526001600160a01b03848116600483015260009216906335ea6a75906024016101e060405180830381865afa15801561065d573d6000803e3d6000fd5b505050506040513d601f19601f82011682018060405250810190610681919061440e565b6101608101516035546040517f1d2118f90000000000000000000000000000000000000000000000000000000081526001600160a01b038781166004830152868116602483015293945091921690631d2118f990604401600060405180830381600087803b1580156106f257600080fd5b505af1158015610706573d6000803e3d6000fd5b5050604080516001600160a01b0385811682528781166020830152881693507fdb8dada53709ce4988154324196790c2e4a60c377e1256790946f83b87db3c339250016105fb565b610756612fef565b604080518082019091526002815261313960f01b60208201526127106001600160801b03831611156107a45760405162461bcd60e51b815260040161079b9190614589565b60405180910390fd5b506035546040805163354ce01b60e11b815290516000926001600160a01b031691636a99c0369160048083019260209291908290030181865afa1580156107ef573d6000803e3d6000fd5b505050506040513d601f19601f82011682018060405250810190610813919061459c565b6035546040805163074b2e4360e01b815290519293506001600160a01b039091169163bcb6e52291839163074b2e43916004808201926020929091908290030181865afa158015610868573d6000803e3d6000fd5b505050506040513d601f19601f8201168201806040525081019061088c919061459c565b6040517fffffffff0000000000000000000000000000000000000000000000000000000060e084901b1681526001600160801b0391821660048201529085166024820152604401600060405180830381600087803b1580156108ed57600080fd5b505af1158015610901573d6000803e3d6000fd5b5050604080516001600160801b038086168252861660208201527fe7e0c75e1fc2d0bd83dc85d59f085b3e763107c392fb368e85572b292f1f557693500190505b60405180910390a15050565b610956612db1565b604080518082019091526002815261037360f41b60208201526127108211156109925760405162461bcd60e51b815260040161079b9190614589565b5060355460405163c44b11f760e01b81526001600160a01b038481166004830152600092169063c44b11f790602401602060405180830381865afa1580156109de573d6000803e3d6000fd5b505050506040513d601f19601f82011682018060405250810190610a0291906143bc565b805190915060981c61ffff16610a18828461311c565b60355460405163f51e435b60e01b81526001600160a01b038681166004830152845160248301529091169063f51e435b90604401600060405180830381600087803b158015610a6657600080fd5b505af1158015610a7a573d6000803e3d6000fd5b505060408051848152602081018790526001600160a01b03881693507fb5b0a963825337808b6e3154de8e98027595a5cad4219bb3a9bc55b192f4b3919250016105fb565b610ac7612fef565b60408051808201909152600281527f32320000000000000000000000000000000000000000000000000000000000006020820152612710821115610b1e5760405162461bcd60e51b815260040161079b9190614589565b50603554604080517f272d907200000000000000000000000000000000000000000000000000000000815290516000926001600160a01b03169163272d90729160048083019260209291908290030181865afa158015610b82573d6000803e3d6000fd5b505050506040513d601f19601f82011682018060405250810190610ba691906145b9565b6035546040517f3036b439000000000000000000000000000000000000000000000000000000008152600481018590529192506001600160a01b031690633036b43990602401600060405180830381600087803b158015610c0657600080fd5b505af1158015610c1a573d6000803e3d6000fd5b505060408051848152602081018690527f30b17cb587a89089d003457c432f73e22aeee93de425e92224ba01080260ecd99350019050610942565b610c5d612db1565b60355460405163c44b11f760e01b81526001600160a01b038481166004830152600092169063c44b11f790602401602060405180830381865afa158015610ca8573d6000803e3d6000fd5b505050506040513d601f19601f82011682018060405250810190610ccc91906143bc565b9050610cd88183613188565b60355460405163f51e435b60e01b81526001600160a01b038581166004830152835160248301529091169063f51e435b90604401600060405180830381600087803b158015610d2657600080fd5b505af1158015610d3a573d6000803e3d6000fd5b5050604080516001600160a01b038716815285151560208201527f74adf6aaf58c08bc4f993640385e136522375ea3d1589a10d02adbb906c67d1c935001905060405180910390a1505050565b610d8f6131b6565b60355460405163c44b11f760e01b81526001600160a01b038481166004830152600092169063c44b11f790602401602060405180830381865afa158015610dda573d6000803e3d6000fd5b505050506040513d601f19601f82011682018060405250810190610dfe91906143bc565b9050610e0a8183613351565b60355460405163f51e435b60e01b81526001600160a01b038581166004830152835160248301529091169063f51e435b90604401600060405180830381600087803b158015610e5857600080fd5b505af1158015610e6c573d6000803e3d6000fd5b50505050826001600160a01b03167fe188d542a5f11925d3a3af33703cdd30a43cb3e8066a3cf68b1b57f61a5a94b583604051610ead911515815260200190565b60405180910390a2505050565b610ec2612db1565b604080518082019091526002815261363760f01b6020820152612710821115610efe5760405162461bcd60e51b815260040161079b9190614589565b5060355460405163c44b11f760e01b81526001600160a01b038481166004830152600092169063c44b11f790602401602060405180830381865afa158015610f4a573d6000803e3d6000fd5b505050506040513d601f19601f82011682018060405250810190610f6e91906143bc565b805190915060401c61ffff16610f84828461337f565b60355460405163f51e435b60e01b81526001600160a01b038681166004830152845160248301529091169063f51e435b90604401600060405180830381600087803b158015610fd257600080fd5b505af1158015610fe6573d6000803e3d6000fd5b505060408051848152602081018790526001600160a01b03881693507fb46e2b82b0c2cf3d7d9dece53635e165c53e0eaa7a44f904d61a2b7174826aef9250016105fb565b611033612db1565b60355460405163c44b11f760e01b81526001600160a01b038481166004830152600092169063c44b11f790602401602060405180830381865afa15801561107e573d6000803e3d6000fd5b505050506040513d601f19601f820116820180604052508101906110a291906143bc565b805190915060741c640fffffffff166110bb82846133d6565b60355460405163f51e435b60e01b81526001600160a01b038681166004830152845160248301529091169063f51e435b90604401600060405180830381600087803b15801561110957600080fd5b505af115801561111d573d6000803e3d6000fd5b505060408051848152602081018790526001600160a01b03881693507f0263602682188540a2d633561c0b4453b7d8566285e99f9f6018b8ef2facef499250016105fb565b61116a612fef565b6035546040517f63c9b8600000000000000000000000000000000000000000000000000000000081526001600160a01b038381166004830152909116906363c9b86090602401600060405180830381600087803b1580156111ca57600080fd5b505af11580156111de573d6000803e3d6000fd5b50506040516001600160a01b03841692507feeec4c06f7adad215cbdb4d2960896c83c26aedce02dde76d36fa28588d62da49150600090a250565b611221612db1565b60355460405163c44b11f760e01b81526001600160a01b038481166004830152600092169063c44b11f790602401602060405180830381865afa15801561126c573d6000803e3d6000fd5b505050506040513d601f19601f8201168201806040525081019061129091906143bc565b9050816112f857805160408051808201909152600281527f383800000000000000000000000000000000000000000000000000000000000060208201529067080000000000000016156112f65760405162461bcd60e51b815260040161079b9190614589565b505b6113028183613460565b60355460405163f51e435b60e01b81526001600160a01b038581166004830152835160248301529091169063f51e435b90604401600060405180830381600087803b15801561135057600080fd5b505af1158015611364573d6000803e3d6000fd5b50505050826001600160a01b03167f2443ba28e8d1d88d531a3d90b981816a4f3b3c7f1fd4085c6029e81d1b7a570d83604051610ead911515815260200190565b6113ad612fef565b6035546040517ff5b50e7000000000000000000000000000000000000000000000000000000000815273__$9bbf4152a5c89ac4403fcefc216f412ffa$__9163f5b50e709161140a916001600160a01b03169085906004016145d2565b60006040518083038186803b15801561142257600080fd5b505af4158015611436573d6000803e3d6000fd5b5050505050565b61144561348e565b603554604080516334651b6f60e21b815290516000926001600160a01b03169163d1946dbc91600480830192869291908290030181865afa15801561148e573d6000803e3d6000fd5b505050506040513d6000823e601f3d908101601f191682016040526114b6919081019061469f565b905060005b815181101561152c5760006001600160a01b03168282815181106114e1576114e1613fe7565b60200260200101516001600160a01b03161461151a5761151a82828151811061150c5761150c613fe7565b602002602001015184610d87565b80611524816142bd565b9150506114bb565b505050565b611539612db1565b604080518082019091526002815261032360f41b6020820152828411156115735760405162461bcd60e51b815260040161079b9190614589565b5060355460405163c44b11f760e01b81526001600160a01b038681166004830152600092169063c44b11f790602401602060405180830381865afa1580156115bf573d6000803e3d6000fd5b505050506040513d601f19601f820116820180604052508101906115e391906143bc565b9050821561167557604080518082019091526002815261032360f41b602082015261271083116116265760405162461bcd60e51b815260040161079b9190614589565b5061271061163484846135bb565b111560405180604001604052806002815260200161032360f41b8152509061166f5760405162461bcd60e51b815260040161079b9190614589565b506116b7565b604080518082019091526002815261032360f41b602082015282156116ad5760405162461bcd60e51b815260040161079b9190614589565b506116b7856135e1565b6116c18185613738565b6116cb818461379c565b6116d58183613808565b60355460405163f51e435b60e01b81526001600160a01b038781166004830152835160248301529091169063f51e435b90604401600060405180830381600087803b15801561172357600080fd5b505af1158015611737573d6000803e3d6000fd5b505060408051878152602081018790529081018590526001600160a01b03881692507f637febbda9275aea2e85c0ff690444c8d87eb2e8339bbede9715abcc89cb0995915060600160405180910390a25050505050565b611796612fef565b604080518082019091526002815261313960f01b60208201526127106001600160801b03831611156117db5760405162461bcd60e51b815260040161079b9190614589565b506035546040805163074b2e4360e01b815290516000926001600160a01b03169163074b2e439160048083019260209291908290030181865afa158015611826573d6000803e3d6000fd5b505050506040513d601f19601f8201168201806040525081019061184a919061459c565b6035546040805163354ce01b60e11b815290519293506001600160a01b039091169163bcb6e5229185918491636a99c0369160048083019260209291908290030181865afa1580156118a0573d6000803e3d6000fd5b505050506040513d601f19601f820116820180604052508101906118c4919061459c565b6040517fffffffff0000000000000000000000000000000000000000000000000000000060e085901b1681526001600160801b03928316600482015291166024820152604401600060405180830381600087803b15801561192457600080fd5b505af1158015611938573d6000803e3d6000fd5b5050604080516001600160801b038086168252861660208201527f71aba182c9d0529b516de7a78bed74d49c207ef7e152f52f7ea5d8730138f6439350019050610942565b611985612db1565b60355460405163c44b11f760e01b81526001600160a01b038481166004830152600092169063c44b11f790602401602060405180830381865afa1580156119d0573d6000803e3d6000fd5b505050506040513d601f19601f820116820180604052508101906119f491906143bc565b90508115611a605780516704000000000000001615156040518060400160405280600281526020017f333000000000000000000000000000000000000000000000000000000000000081525090611a5e5760405162461bcd60e51b815260040161079b9190614589565b505b611a6a8183613876565b60355460405163f51e435b60e01b81526001600160a01b038581166004830152835160248301529091169063f51e435b90604401600060405180830381600087803b158015611ab857600080fd5b505af1158015611acc573d6000803e3d6000fd5b50505050826001600160a01b03167f0b64d0941719acd363f1a6be3d8525d8ec9d71738f7445aabcd88d7939b472e783604051610ead911515815260200190565b611b15612db1565b60355460405163c44b11f760e01b81526001600160a01b038481166004830152600092169063c44b11f790602401602060405180830381865afa158015611b60573d6000803e3d6000fd5b505050506040513d601f19601f82011682018060405250810190611b8491906143bc565b9050611b9081836138a4565b60355460405163f51e435b60e01b81526001600160a01b038581166004830152835160248301529091169063f51e435b90604401600060405180830381600087803b158015611bde57600080fd5b505af1158015611bf2573d6000803e3d6000fd5b50505050826001600160a01b03167f0c4443d258a350d27dc50c378b2ebf165e6469725f786d21b30cab16823f558783604051610ead911515815260200190565b611c3b612db1565b8015611c4a57611c4a826138d2565b60355460405163c44b11f760e01b81526001600160a01b038481166004830152600092169063c44b11f790602401602060405180830381865afa158015611c95573d6000803e3d6000fd5b505050506040513d601f19601f82011682018060405250810190611cb991906143bc565b90506000611cd1825167400000000000000016151590565b9050611cdd8284613a34565b60355460405163f51e435b60e01b81526001600160a01b038681166004830152845160248301529091169063f51e435b90604401600060405180830381600087803b158015611d2b57600080fd5b505af1158015611d3f573d6000803e3d6000fd5b505060408051841515815286151560208201526001600160a01b03881693507f842a280b07e8e502a9101f32a3b768ebaba3655556dd674f0831900861fc674b9250016105fb565b611d8f612fef565b6035546040517fb0f0935500000000000000000000000000000000000000000000000000000000815273__$9bbf4152a5c89ac4403fcefc216f412ffa$__9163b0f093559161140a916001600160a01b03169085906004016145d2565b611df4612db1565b60355460405163c44b11f760e01b81526001600160a01b038481166004830152600092169063c44b11f790602401602060405180830381865afa158015611e3f573d6000803e3d6000fd5b505050506040513d601f19601f82011682018060405250810190611e6391906143bc565b805190915060d41c64ffffffffff1680611e8057611e80846135e1565b611e8a8284613a62565b60355460405163f51e435b60e01b81526001600160a01b038681166004830152845160248301529091169063f51e435b90604401600060405180830381600087803b158015611ed857600080fd5b505af1158015611eec573d6000803e3d6000fd5b505050508260001415611f72576035546040517fe43e88a10000000000000000000000000000000000000000000000000000000081526001600160a01b0386811660048301529091169063e43e88a190602401600060405180830381600087803b158015611f5957600080fd5b505af1158015611f6d573d6000803e3d6000fd5b505050505b60408051828152602081018590526001600160a01b038616917f6824a6c7fbc10d2979b1f1ccf2dd4ed0436541679a661dedb5c10bd4be83068291016105fb565b611fbb612fef565b80611fc957611fc9826135e1565b60355460405163c44b11f760e01b81526001600160a01b038481166004830152600092169063c44b11f790602401602060405180830381865afa158015612014573d6000803e3d6000fd5b505050506040513d601f19601f8201168201806040525081019061203891906143bc565b90506120448183613aec565b60355460405163f51e435b60e01b81526001600160a01b038581166004830152835160248301529091169063f51e435b90604401600060405180830381600087803b15801561209257600080fd5b505af11580156120a6573d6000803e3d6000fd5b50505050826001600160a01b03167fc36c7d11ba01a5869d52aa4a3781939dab851cbc9ee6e7fdcedc7d58898a3f1e83604051610ead911515815260200190565b6120ef612fef565b6035546040517fb13c96a800000000000000000000000000000000000000000000000000000000815273__$9bbf4152a5c89ac4403fcefc216f412ffa$__9163b13c96a89161140a916001600160a01b0316908590600401614751565b612154612db1565b604080518082019091526002815261323160f01b602082015261ffff871661218f5760405162461bcd60e51b815260040161079b9190614589565b50604080518082019091526002815261323160f01b602082015261ffff86166121cb5760405162461bcd60e51b815260040161079b9190614589565b508461ffff168661ffff16111560405180604001604052806002815260200161323160f01b815250906122115760405162461bcd60e51b815260040161079b9190614589565b50604080518082019091526002815261323160f01b602082015261271061ffff8616116122515760405162461bcd60e51b815260040161079b9190614589565b5061271061226661ffff8781169087166135bb565b111560405180604001604052806002815260200161323160f01b815250906122a15760405162461bcd60e51b815260040161079b9190614589565b50603554604080516334651b6f60e21b815290516000926001600160a01b03169163d1946dbc91600480830192869291908290030181865afa1580156122eb573d6000803e3d6000fd5b505050506040513d6000823e601f3d908101601f19168201604052612313919081019061469f565b905060005b81518110156124775760355482516000916001600160a01b03169063c44b11f79085908590811061234b5761234b613fe7565b60200260200101516040518263ffffffff1660e01b815260040161237e91906001600160a01b0391909116815260200190565b602060405180830381865afa15801561239b573d6000803e3d6000fd5b505050506040513d601f19601f820116820180604052508101906123bf91906143bc565b805190915060a81c60ff168a60ff16141561246457805161ffff168961ffff161160405180604001604052806002815260200161323160f01b815250906124195760405162461bcd60e51b815260040161079b9190614589565b50805160101c61ffff168861ffff161160405180604001604052806002815260200161323160f01b815250906124625760405162461bcd60e51b815260040161079b9190614589565b505b508061246f816142bd565b915050612318565b50603560009054906101000a90046001600160a01b03166001600160a01b031663d579ea7d896040518060a001604052808b61ffff1681526020018a61ffff1681526020018961ffff168152602001886001600160a01b0316815260200187878080601f01602080910402602001604051908101604052809392919081815260200183838082843760009201919091525050509152506040517fffffffff0000000000000000000000000000000000000000000000000000000060e085901b16815261254792919060040161483e565b600060405180830381600087803b15801561256157600080fd5b505af1158015612575573d6000803e3d6000fd5b505050508760ff167f0acf8b4a3cace10779798a89a206a0ae73a71b63acdd3be2801d39c2ef7ab3cb8888888888886040516125b6969594939291906148a7565b60405180910390a25050505050505050565b6001805460ff16806125d95750303b155b806125e5575060005481115b6126575760405162461bcd60e51b815260206004820152602e60248201527f436f6e747261637420696e7374616e63652068617320616c726561647920626560448201527f656e20696e697469616c697a6564000000000000000000000000000000000000606482015260840161079b565b60015460ff16158015612676576001805460ff19168117905560008290555b6034805473ffffffffffffffffffffffffffffffffffffffff19166001600160a01b038516908117909155604080517f026b1d5f000000000000000000000000000000000000000000000000000000008152905163026b1d5f916004808201926020929091908290030181865afa1580156126f5573d6000803e3d6000fd5b505050506040513d601f19601f8201168201806040525081019061271991906148e6565b6035805473ffffffffffffffffffffffffffffffffffffffff19166001600160a01b0392909216919091179055801561152c576001805460ff19169055505050565b612763612db1565b60355460405163c44b11f760e01b81526001600160a01b038481166004830152600092169063c44b11f790602401602060405180830381865afa1580156127ae573d6000803e3d6000fd5b505050506040513d601f19601f820116820180604052508101906127d291906143bc565b805190915060501c640fffffffff166127eb8284613b1a565b60355460405163f51e435b60e01b81526001600160a01b038681166004830152845160248301529091169063f51e435b90604401600060405180830381600087803b15801561283957600080fd5b505af115801561284d573d6000803e3d6000fd5b505060408051848152602081018790526001600160a01b03881693507fc51aca575985d521c5072ad11549bad77013bb786d57f30f94b40ed8f8dc9bc49250016105fb565b61289a612db1565b60355460405163c44b11f760e01b81526001600160a01b038481166004830152600092169063c44b11f790602401602060405180830381865afa1580156128e5573d6000803e3d6000fd5b505050506040513d601f19601f8201168201806040525081019061290991906143bc565b905060ff821615612a0e576035546040517f6c6f6ae100000000000000000000000000000000000000000000000000000000815260ff841660048201526000916001600160a01b031690636c6f6ae190602401600060405180830381865afa158015612979573d6000803e3d6000fd5b505050506040513d6000823e601f3d908101601f191682016040526129a19190810190614903565b825190915060101c61ffff16816020015161ffff16116040518060400160405280600281526020017f313700000000000000000000000000000000000000000000000000000000000081525090612a0b5760405162461bcd60e51b815260040161079b9190614589565b50505b805160009060a81c60ff169050612a288260ff8516613b94565b60355460405163f51e435b60e01b81526001600160a01b038681166004830152845160248301529091169063f51e435b90604401600060405180830381600087803b158015612a7657600080fd5b505af1158015612a8a573d6000803e3d6000fd5b50506040805160ff8086168252871660208201526001600160a01b03881693507f5bb69795b6a2ea222d73a5f8939c23471a1f85a99c7ca43c207f1b71f10c62649250016105fb565b612adb612db1565b60355460405163c44b11f760e01b81526001600160a01b038481166004830152600092169063c44b11f790602401602060405180830381865afa158015612b26573d6000803e3d6000fd5b505050506040513d601f19601f82011682018060405250810190612b4a91906143bc565b9050612b568183613c1a565b60355460405163f51e435b60e01b81526001600160a01b038581166004830152835160248301529091169063f51e435b90604401600060405180830381600087803b158015612ba457600080fd5b505af1158015612bb8573d6000803e3d6000fd5b50505050826001600160a01b03167fc8ff3cc5b0fddaa3e6ebbbd7438f43393e4ea30e88b80ad016c1bc094655034d83604051610ead911515815260200190565b6034546040805163383e6b8b60e11b815290516000926001600160a01b03169163707cd7169160048083019260209291908290030181865afa158015612c43573d6000803e3d6000fd5b505050506040513d601f19601f82011682018060405250810190612c6791906148e6565b6040517f13ee32e00000000000000000000000000000000000000000000000000000000081523360048201529091506001600160a01b038216906313ee32e090602401602060405180830381865afa158015612cc7573d6000803e3d6000fd5b505050506040513d601f19601f82011682018060405250810190612ceb9190614a10565b80612d595750604051637be53ca160e01b81523360048201526001600160a01b03821690637be53ca190602401602060405180830381865afa158015612d35573d6000803e3d6000fd5b505050506040513d601f19601f82011682018060405250810190612d599190614a10565b6040518060400160405280600181526020017f350000000000000000000000000000000000000000000000000000000000000081525090612dad5760405162461bcd60e51b815260040161079b9190614589565b5050565b6034546040805163383e6b8b60e11b815290516000926001600160a01b03169163707cd7169160048083019260209291908290030181865afa158015612dfb573d6000803e3d6000fd5b505050506040513d601f19601f82011682018060405250810190612e1f91906148e6565b6040517f674b5e4d0000000000000000000000000000000000000000000000000000000081523360048201529091506001600160a01b0382169063674b5e4d90602401602060405180830381865afa158015612e7f573d6000803e3d6000fd5b505050506040513d601f19601f82011682018060405250810190612ea39190614a10565b80612f115750604051637be53ca160e01b81523360048201526001600160a01b03821690637be53ca190602401602060405180830381865afa158015612eed573d6000803e3d6000fd5b505050506040513d601f19601f82011682018060405250810190612f119190614a10565b6040518060400160405280600181526020017f340000000000000000000000000000000000000000000000000000000000000081525090612dad5760405162461bcd60e51b815260040161079b9190614589565b60408051808201909152600281527f37320000000000000000000000000000000000000000000000000000000000006020820152640fffffffff821115612fbf5760405162461bcd60e51b815260040161079b9190614589565b5081517ffffffffffff000000000ffffffffffffffffffffffffffffffffffffffffffff1660b09190911b179052565b6034546040805163383e6b8b60e11b815290516000926001600160a01b03169163707cd7169160048083019260209291908290030181865afa158015613039573d6000803e3d6000fd5b505050506040513d601f19601f8201168201806040525081019061305d91906148e6565b604051637be53ca160e01b81523360048201529091506001600160a01b03821690637be53ca190602401602060405180830381865afa1580156130a4573d6000803e3d6000fd5b505050506040513d601f19601f820116820180604052508101906130c89190614a10565b6040518060400160405280600181526020017f310000000000000000000000000000000000000000000000000000000000000081525090612dad5760405162461bcd60e51b815260040161079b9190614589565b604080518082019091526002815261037360f41b602082015261ffff8211156131585760405162461bcd60e51b815260040161079b9190614589565b5081517fffffffffffffffffffffff0000ffffffffffffffffffffffffffffffffffffff1660989190911b179052565b603d81613196576000613199565b60015b8351672000000000000000191660ff9190911690911b1790915250565b6034546040805163383e6b8b60e11b815290516000926001600160a01b03169163707cd7169160048083019260209291908290030181865afa158015613200573d6000803e3d6000fd5b505050506040513d601f19601f8201168201806040525081019061322491906148e6565b604051637be53ca160e01b81523360048201529091506001600160a01b03821690637be53ca190602401602060405180830381865afa15801561326b573d6000803e3d6000fd5b505050506040513d601f19601f8201168201806040525081019061328f9190614a10565b806132fd5750604051631280795b60e11b81523360048201526001600160a01b03821690632500f2b690602401602060405180830381865afa1580156132d9573d6000803e3d6000fd5b505050506040513d601f19601f820116820180604052508101906132fd9190614a10565b6040518060400160405280600181526020017f330000000000000000000000000000000000000000000000000000000000000081525090612dad5760405162461bcd60e51b815260040161079b9190614589565b603c8161335f576000613362565b60015b8351671000000000000000191660ff9190911690911b1790915250565b604080518082019091526002815261363760f01b602082015261ffff8211156133bb5760405162461bcd60e51b815260040161079b9190614589565b50815169ffff0000000000000000191660409190911b179052565b60408051808201909152600281527f36390000000000000000000000000000000000000000000000000000000000006020820152640fffffffff8211156134305760405162461bcd60e51b815260040161079b9190614589565b5081517fffffffffffffffffffffffffff000000000fffffffffffffffffffffffffffff1660749190911b179052565b603a8161346e576000613471565b60015b8351670400000000000000191660ff9190911690911b1790915250565b6034546040805163383e6b8b60e11b815290516000926001600160a01b03169163707cd7169160048083019260209291908290030181865afa1580156134d8573d6000803e3d6000fd5b505050506040513d601f19601f820116820180604052508101906134fc91906148e6565b604051631280795b60e11b81523360048201529091506001600160a01b03821690632500f2b690602401602060405180830381865afa158015613543573d6000803e3d6000fd5b505050506040513d601f19601f820116820180604052508101906135679190614a10565b6040518060400160405280600181526020017f320000000000000000000000000000000000000000000000000000000000000081525090612dad5760405162461bcd60e51b815260040161079b9190614589565b6000811561138819839004841115176135d357600080fd5b506127109102611388010490565b600080603460009054906101000a90046001600160a01b03166001600160a01b031663e860accb6040518163ffffffff1660e01b8152600401602060405180830381865afa158015613637573d6000803e3d6000fd5b505050506040513d601f19601f8201168201806040525081019061365b91906148e6565b6040516335ea6a7560e01b81526001600160a01b03858116600483015291909116906335ea6a759060240161018060405180830381865afa1580156136a4573d6000803e3d6000fd5b505050506040513d601f19601f820116820180604052508101906136c89190614a2d565b50505050505050505092509250508060001480156136e4575081155b6040518060400160405280600281526020017f3138000000000000000000000000000000000000000000000000000000000000815250906104c25760405162461bcd60e51b815260040161079b9190614589565b60408051808201909152600281527f3633000000000000000000000000000000000000000000000000000000000000602082015261ffff82111561378f5760405162461bcd60e51b815260040161079b9190614589565b50815161ffff1916179052565b60408051808201909152600281527f3634000000000000000000000000000000000000000000000000000000000000602082015261ffff8211156137f35760405162461bcd60e51b815260040161079b9190614589565b50815163ffff0000191660109190911b179052565b60408051808201909152600281527f3635000000000000000000000000000000000000000000000000000000000000602082015261ffff82111561385f5760405162461bcd60e51b815260040161079b9190614589565b50815165ffff00000000191660209190911b179052565b603b81613884576000613887565b60015b8351670800000000000000191660ff9190911690911b1790915250565b6039816138b25760006138b5565b60015b8351670200000000000000191660ff9190911690911b1790915250565b603454604080517fe860accb00000000000000000000000000000000000000000000000000000000815290516000926001600160a01b03169163e860accb9160048083019260209291908290030181865afa158015613935573d6000803e3d6000fd5b505050506040513d601f19601f8201168201806040525081019061395991906148e6565b6040517f4d44ac4f0000000000000000000000000000000000000000000000000000000081526001600160a01b0384811660048301529190911690634d44ac4f90602401602060405180830381865afa1580156139ba573d6000803e3d6000fd5b505050506040513d601f19601f820116820180604052508101906139de91906145b9565b60408051808201909152600281527f39300000000000000000000000000000000000000000000000000000000000006020820152909150811561152c5760405162461bcd60e51b815260040161079b9190614589565b603e81613a42576000613a45565b60015b8351674000000000000000191660ff9190911690911b1790915250565b60408051808201909152600281527f3733000000000000000000000000000000000000000000000000000000000000602082015264ffffffffff821115613abc5760405162461bcd60e51b815260040161079b9190614589565b5081517ff0000000000fffffffffffffffffffffffffffffffffffffffffffffffffffff1660d49190911b179052565b603881613afa576000613afd565b60015b8351670100000000000000191660ff9190911690911b1790915250565b60408051808201909152600281527f36380000000000000000000000000000000000000000000000000000000000006020820152640fffffffff821115613b745760405162461bcd60e51b815260040161079b9190614589565b5081516e0fffffffff00000000000000000000191660509190911b179052565b60408051808201909152600281527f3731000000000000000000000000000000000000000000000000000000000000602082015260ff821115613bea5760405162461bcd60e51b815260040161079b9190614589565b5081517fffffffffffffffffffff00ffffffffffffffffffffffffffffffffffffffffff1660a89190911b179052565b603f81613c28576000613c2b565b60015b8351678000000000000000191660ff9190911690911b1790915250565b60008060208385031215613c5b57600080fd5b823567ffffffffffffffff80821115613c7357600080fd5b818501915085601f830112613c8757600080fd5b813581811115613c9657600080fd5b8660208260051b8501011115613cab57600080fd5b60209290920196919550909350505050565b6001600160a01b0381168114613cd257600080fd5b50565b8035613ce081613cbd565b919050565b60008060408385031215613cf857600080fd5b8235613d0381613cbd565b946020939093013593505050565b60008060408385031215613d2457600080fd5b8235613d2f81613cbd565b91506020830135613d3f81613cbd565b809150509250929050565b6001600160801b0381168114613cd257600080fd5b600060208284031215613d7157600080fd5b8135613d7c81613d4a565b9392505050565b600060208284031215613d9557600080fd5b5035919050565b8015158114613cd257600080fd5b60008060408385031215613dbd57600080fd5b8235613dc881613cbd565b91506020830135613d3f81613d9c565b600060208284031215613dea57600080fd5b8135613d7c81613cbd565b600060208284031215613e0757600080fd5b813567ffffffffffffffff811115613e1e57600080fd5b820160c08185031215613d7c57600080fd5b600060208284031215613e4257600080fd5b8135613d7c81613d9c565b60008060008060808587031215613e6357600080fd5b8435613e6e81613cbd565b966020860135965060408601359560600135945092505050565b600060208284031215613e9a57600080fd5b813567ffffffffffffffff811115613eb157600080fd5b820160e08185031215613d7c57600080fd5b803560ff81168114613ce057600080fd5b61ffff81168114613cd257600080fd5b600080600080600080600060c0888a031215613eff57600080fd5b613f0888613ec3565b96506020880135613f1881613ed4565b95506040880135613f2881613ed4565b94506060880135613f3881613ed4565b93506080880135613f4881613cbd565b925060a088013567ffffffffffffffff80821115613f6557600080fd5b818a0191508a601f830112613f7957600080fd5b813581811115613f8857600080fd5b8b6020828501011115613f9a57600080fd5b60208301945080935050505092959891949750929550565b60008060408385031215613fc557600080fd5b8235613fd081613cbd565b9150613fde60208401613ec3565b90509250929050565b634e487b7160e01b600052603260045260246000fd5b600082356101de1983360301811261401457600080fd5b9190910192915050565b6000808335601e1984360301811261403557600080fd5b830160208101925035905067ffffffffffffffff81111561405557600080fd5b80360383131561406457600080fd5b9250929050565b81835281816020850137506000828201602090810191909152601f909101601f19169091010190565b6001600160a01b0383168152604060208201526140c4604082016140b784613cd5565b6001600160a01b03169052565b60006140d260208401613cd5565b6001600160a01b031660608301526140ec60408401613cd5565b6001600160a01b0316608083015261410660608401613ec3565b60ff1660a083015261411a60808401613cd5565b6001600160a01b031660c083015261413460a08401613cd5565b6001600160a01b031660e083015261414e60c08401613cd5565b610100614165818501836001600160a01b03169052565b61417160e08601613cd5565b915061012061418a818601846001600160a01b03169052565b6141968287018761401e565b935091506101e061014081818801526141b46102208801868661406b565b94506141c28389018961401e565b94509250603f196101608189880301818a01526141e087878761406b565b96506141ee838b018b61401e565b9650945061018092508189880301838a015261420b87878761406b565b9650614219818b018b61401e565b96509450506101a08189880301818a015261423587878761406b565b9650614243838b018b61401e565b965094506101c092508189880301838a015261426087878761406b565b965061426e818b018b61401e565b965094505080888703018389015261428786868661406b565b9550614295828a018a61401e565b9550935080888703016102008901525050506142b283838361406b565b979650505050505050565b60006000198214156142df57634e487b7160e01b600052601160045260246000fd5b5060010190565b634e487b7160e01b600052604160045260246000fd5b6040516101e0810167ffffffffffffffff81118282101715614320576143206142e6565b60405290565b60405160a0810167ffffffffffffffff81118282101715614320576143206142e6565b604051601f8201601f1916810167ffffffffffffffff81118282101715614372576143726142e6565b604052919050565b60006020828403121561438c57600080fd5b6040516020810181811067ffffffffffffffff821117156143af576143af6142e6565b6040529151825250919050565b6000602082840312156143ce57600080fd5b613d7c838361437a565b8051613ce081613d4a565b805164ffffffffff81168114613ce057600080fd5b8051613ce081613ed4565b8051613ce081613cbd565b60006101e0828403121561442157600080fd5b6144296142fc565b614433848461437a565b8152614441602084016143d8565b6020820152614452604084016143d8565b6040820152614463606084016143d8565b6060820152614474608084016143d8565b608082015261448560a084016143d8565b60a082015261449660c084016143e3565b60c08201526144a760e084016143f8565b60e08201526101006144ba818501614403565b908201526101206144cc848201614403565b908201526101406144de848201614403565b908201526101606144f0848201614403565b908201526101806145028482016143d8565b908201526101a06145148482016143d8565b908201526101c06145268482016143d8565b908201529392505050565b60005b8381101561454c578181015183820152602001614534565b838111156104c25750506000910152565b60008151808452614575816020860160208601614531565b601f01601f19169290920160200192915050565b602081526000613d7c602083018461455d565b6000602082840312156145ae57600080fd5b8151613d7c81613d4a565b6000602082840312156145cb57600080fd5b5051919050565b60006001600160a01b0380851683526040602084015283356145f381613cbd565b81166040840152602084013561460881613cbd565b16606083015261461b604084018461401e565b60c060808501526146316101008501828461406b565b915050614641606085018561401e565b603f19808685030160a087015261465984838561406b565b935061466760808801613cd5565b6001600160a01b03811660c0880152925061468560a088018861401e565b93509150808685030160e0870152506142b283838361406b565b600060208083850312156146b257600080fd5b825167ffffffffffffffff808211156146ca57600080fd5b818501915085601f8301126146de57600080fd5b8151818111156146f0576146f06142e6565b8060051b9150614701848301614349565b818152918301840191848101908884111561471b57600080fd5b938501935b83851015614745578451925061473583613cbd565b8282529385019390850190614720565b98975050505050505050565b60006001600160a01b03808516835260406020840152833561477281613cbd565b16604083015261478460208401613cd5565b6001600160a01b0316606083015261479e60408401613cd5565b6001600160a01b031660808301526147b9606084018461401e565b60e060a08501526147cf6101208501828461406b565b9150506147df608085018561401e565b603f19808685030160c08701526147f784838561406b565b935061480560a08801613cd5565b6001600160a01b03811660e0880152925061482360c088018861401e565b935091508086850301610100870152506142b283838361406b565b60ff8316815260406020820152600061ffff808451166040840152806020850151166060840152806040850151166080840152506001600160a01b0360608401511660a0830152608083015160a060c084015261489e60e084018261455d565b95945050505050565b600061ffff808916835280881660208401528087166040840152506001600160a01b038516606083015260a0608083015261474560a08301848661406b565b6000602082840312156148f857600080fd5b8151613d7c81613cbd565b6000602080838503121561491657600080fd5b825167ffffffffffffffff8082111561492e57600080fd5b9084019060a0828703121561494257600080fd5b61494a614326565b825161495581613ed4565b81528284015161496481613ed4565b81850152604083015161497681613ed4565b6040820152606083015161498981613cbd565b60608201526080830151828111156149a057600080fd5b80840193505086601f8401126149b557600080fd5b8251828111156149c7576149c76142e6565b6149d9601f8201601f19168601614349565b925080835287858286010111156149ef57600080fd5b6149fe81868501878701614531565b50608081019190915295945050505050565b600060208284031215614a2257600080fd5b8151613d7c81613d9c565b6000806000806000806000806000806000806101808d8f031215614a5057600080fd5b8c519b5060208d01519a5060408d0151995060608d0151985060808d0151975060a08d0151965060c08d0151955060e08d015194506101008d015193506101208d015192506101408d01519150614aaa6101608e016143e3565b90509295989b509295989b509295989b56fea26469706673582212202311418a2fe848d3e941013c6275cd22bf9270185bf3f582a6004d6e847f8bc464736f6c634300080a0033",
  "libraries": {
    "ConfiguratorLogic": "0x8fF475bc1Ea9b397093cae61C9eE50b5Fa1Dd922"
  },
  "devdoc": {
    "author": "Aave",
    "details": "Implements the configuration methods for the Aave protocol",
    "kind": "dev",
    "methods": {
      "configureReserveAsCollateral(address,uint256,uint256,uint256)": {
        "details": "All the values are expressed in bps. A value of 10000, results in 100.00%The `liquidationBonus` is always above 100%. A value of 105% means the liquidator will receive a 5% bonus",
        "params": {
          "asset": "The address of the underlying asset of the reserve",
          "liquidationBonus": "The bonus liquidators receive to liquidate this asset",
          "liquidationThreshold": "The threshold at which loans using this asset as collateral will be considered undercollateralized",
          "ltv": "The loan to value of the asset when used as collateral"
        }
      },
      "dropReserve(address)": {
        "params": {
          "asset": "The address of the reserve to drop"
        }
      },
      "initReserves((address,address,address,uint8,address,address,address,address,string,string,string,string,string,string,bytes)[])": {
        "params": {
          "input": "The array of initialization parameters"
        }
      },
      "setAssetEModeCategory(address,uint8)": {
        "params": {
          "asset": "The address of the underlying asset of the reserve",
          "newCategoryId": "The new category id of the asset"
        }
      },
      "setBorrowCap(address,uint256)": {
        "params": {
          "asset": "The address of the underlying asset of the reserve",
          "newBorrowCap": "The new borrow cap of the reserve"
        }
      },
      "setBorrowableInIsolation(address,bool)": {
        "details": "When this flag is set to true, the asset will be borrowable against isolated collaterals and the borrowed amount will be accumulated in the isolated collateral's total debt exposureOnly assets of the same family (e.g. USD stablecoins) should be borrowable in isolation mode to keep consistency in the debt ceiling calculations",
        "params": {
          "asset": "The address of the underlying asset of the reserve",
          "borrowable": "True if the asset should be borrowable in isolation, false otherwise"
        }
      },
      "setDebtCeiling(address,uint256)": {
        "params": {
          "newDebtCeiling": "The new debt ceiling"
        }
      },
      "setEModeCategory(uint8,uint16,uint16,uint16,address,string)": {
        "details": "If zero is provided as oracle address, the default asset oracles will be used to compute the overall debt and overcollateralization of the users using this category.The new ltv and liquidation threshold must be greater than the base ltvs and liquidation thresholds of all assets within the eMode category",
        "params": {
          "categoryId": "The id of the category to be configured",
          "label": "A label identifying the category",
          "liquidationBonus": "The liquidation bonus associated with the category",
          "liquidationThreshold": "The liquidation threshold associated with the category",
          "ltv": "The ltv associated with the category",
          "oracle": "The oracle associated with the category"
        }
      },
      "setLiquidationProtocolFee(address,uint256)": {
        "params": {
          "asset": "The address of the underlying asset of the reserve",
          "newFee": "The new liquidation protocol fee of the reserve, expressed in bps"
        }
      },
      "setPoolPause(bool)": {
        "params": {
          "paused": "True if protocol needs to be paused, false otherwise"
        }
      },
      "setReserveActive(address,bool)": {
        "params": {
          "active": "True if the reserve needs to be active, false otherwise",
          "asset": "The address of the underlying asset of the reserve"
        }
      },
      "setReserveBorrowing(address,bool)": {
        "details": "Can only be disabled (set to false) if stable borrowing is disabled",
        "params": {
          "asset": "The address of the underlying asset of the reserve",
          "enabled": "True if borrowing needs to be enabled, false otherwise"
        }
      },
      "setReserveFactor(address,uint256)": {
        "params": {
          "asset": "The address of the underlying asset of the reserve",
          "newReserveFactor": "The new reserve factor of the reserve"
        }
      },
      "setReserveFlashLoaning(address,bool)": {
        "params": {
          "asset": "The address of the underlying asset of the reserve",
          "enabled": "True if flashloans need to be enabled, false otherwise"
        }
      },
      "setReserveFreeze(address,bool)": {
        "params": {
          "asset": "The address of the underlying asset of the reserve",
          "freeze": "True if the reserve needs to be frozen, false otherwise"
        }
      },
      "setReserveInterestRateStrategyAddress(address,address)": {
        "params": {
          "asset": "The address of the underlying asset of the reserve",
          "newRateStrategyAddress": "The address of the new interest strategy contract"
        }
      },
      "setReservePause(address,bool)": {
        "params": {
          "asset": "The address of the underlying asset of the reserve",
          "paused": "True if pausing the reserve, false if unpausing"
        }
      },
      "setReserveStableRateBorrowing(address,bool)": {
        "details": "Can only be enabled (set to true) if borrowing is enabled",
        "params": {
          "asset": "The address of the underlying asset of the reserve",
          "enabled": "True if stable rate borrowing needs to be enabled, false otherwise"
        }
      },
      "setSiloedBorrowing(address,bool)": {
        "params": {
          "siloed": "The new siloed borrowing state"
        }
      },
      "setSupplyCap(address,uint256)": {
        "params": {
          "asset": "The address of the underlying asset of the reserve",
          "newSupplyCap": "The new supply cap of the reserve"
        }
      },
      "setUnbackedMintCap(address,uint256)": {
        "params": {
          "asset": "The address of the underlying asset of the reserve",
          "newUnbackedMintCap": "The new unbacked mint cap of the reserve"
        }
      },
      "updateAToken((address,address,address,string,string,address,bytes))": {
        "details": "Updates the aToken implementation for the reserve.",
        "params": {
          "input": "The aToken update parameters"
        }
      },
      "updateBridgeProtocolFee(uint256)": {
        "params": {
          "newBridgeProtocolFee": "The part of the fee sent to the protocol treasury, expressed in bps"
        }
      },
      "updateFlashloanPremiumToProtocol(uint128)": {
        "details": "Expressed in bpsThe premium to protocol is calculated on the total flashloan premium",
        "params": {
          "newFlashloanPremiumToProtocol": "The part of the flashloan premium sent to the protocol treasury"
        }
      },
      "updateFlashloanPremiumTotal(uint128)": {
        "details": "Expressed in bpsThe premium is calculated on the total amount borrowed",
        "params": {
          "newFlashloanPremiumTotal": "The total flashloan premium"
        }
      },
      "updateStableDebtToken((address,address,string,string,address,bytes))": {
        "params": {
          "input": "The stableDebtToken update parameters"
        }
      },
      "updateVariableDebtToken((address,address,string,string,address,bytes))": {
        "params": {
          "input": "The variableDebtToken update parameters"
        }
      }
    },
    "title": "PoolConfigurator",
    "version": 1
  },
  "userdoc": {
    "kind": "user",
    "methods": {
      "configureReserveAsCollateral(address,uint256,uint256,uint256)": {
        "notice": "Configures the reserve collateralization parameters."
      },
      "dropReserve(address)": {
        "notice": "Drops a reserve entirely."
      },
      "initReserves((address,address,address,uint8,address,address,address,address,string,string,string,string,string,string,bytes)[])": {
        "notice": "Initializes multiple reserves."
      },
      "setAssetEModeCategory(address,uint8)": {
        "notice": "Assign an efficiency mode (eMode) category to asset."
      },
      "setBorrowCap(address,uint256)": {
        "notice": "Updates the borrow cap of a reserve."
      },
      "setBorrowableInIsolation(address,bool)": {
        "notice": "Sets the borrowable in isolation flag for the reserve."
      },
      "setDebtCeiling(address,uint256)": {
        "notice": "Sets the debt ceiling for an asset."
      },
      "setEModeCategory(uint8,uint16,uint16,uint16,address,string)": {
        "notice": "Adds a new efficiency mode (eMode) category."
      },
      "setLiquidationProtocolFee(address,uint256)": {
        "notice": "Updates the liquidation protocol fee of reserve."
      },
      "setPoolPause(bool)": {
        "notice": "Pauses or unpauses all the protocol reserves. In the paused state all the protocol interactions are suspended."
      },
      "setReserveActive(address,bool)": {
        "notice": "Activate or deactivate a reserve"
      },
      "setReserveBorrowing(address,bool)": {
        "notice": "Configures borrowing on a reserve."
      },
      "setReserveFactor(address,uint256)": {
        "notice": "Updates the reserve factor of a reserve."
      },
      "setReserveFlashLoaning(address,bool)": {
        "notice": "Enable or disable flashloans on a reserve"
      },
      "setReserveFreeze(address,bool)": {
        "notice": "Freeze or unfreeze a reserve. A frozen reserve doesn't allow any new supply, borrow or rate swap but allows repayments, liquidations, rate rebalances and withdrawals."
      },
      "setReserveInterestRateStrategyAddress(address,address)": {
        "notice": "Sets the interest rate strategy of a reserve."
      },
      "setReservePause(address,bool)": {
        "notice": "Pauses a reserve. A paused reserve does not allow any interaction (supply, borrow, repay, swap interest rate, liquidate, atoken transfers)."
      },
      "setReserveStableRateBorrowing(address,bool)": {
        "notice": "Enable or disable stable rate borrowing on a reserve."
      },
      "setSiloedBorrowing(address,bool)": {
        "notice": "Sets siloed borrowing for an asset"
      },
      "setSupplyCap(address,uint256)": {
        "notice": "Updates the supply cap of a reserve."
      },
      "setUnbackedMintCap(address,uint256)": {
        "notice": "Updates the unbacked mint cap of reserve."
      },
      "updateBridgeProtocolFee(uint256)": {
        "notice": "Updates the bridge fee collected by the protocol reserves."
      },
      "updateFlashloanPremiumToProtocol(uint128)": {
        "notice": "Updates the flash loan premium collected by protocol reserves"
      },
      "updateFlashloanPremiumTotal(uint128)": {
        "notice": "Updates the total flash loan premium. Total flash loan premium consists of two parts: - A part is sent to aToken holders as extra balance - A part is collected by the protocol reserves"
      },
      "updateStableDebtToken((address,address,string,string,address,bytes))": {
        "notice": "Updates the stable debt token implementation for the reserve."
      },
      "updateVariableDebtToken((address,address,string,string,address,bytes))": {
        "notice": "Updates the variable debt token implementation for the asset."
      }
    },
    "version": 1
  },
  "storageLayout": {
    "storage": [
      {
        "astId": 14589,
        "contract": "contracts/lend/aave-core-v3/contracts/protocol/pool/PoolConfigurator.sol:PoolConfigurator",
        "label": "lastInitializedRevision",
        "offset": 0,
        "slot": "0",
        "type": "t_uint256"
      },
      {
        "astId": 14592,
        "contract": "contracts/lend/aave-core-v3/contracts/protocol/pool/PoolConfigurator.sol:PoolConfigurator",
        "label": "initializing",
        "offset": 0,
        "slot": "1",
        "type": "t_bool"
      },
      {
        "astId": 14662,
        "contract": "contracts/lend/aave-core-v3/contracts/protocol/pool/PoolConfigurator.sol:PoolConfigurator",
        "label": "______gap",
        "offset": 0,
        "slot": "2",
        "type": "t_array(t_uint256)50_storage"
      },
      {
        "astId": 28334,
        "contract": "contracts/lend/aave-core-v3/contracts/protocol/pool/PoolConfigurator.sol:PoolConfigurator",
        "label": "_addressesProvider",
        "offset": 0,
        "slot": "52",
        "type": "t_contract(IPoolAddressesProvider)6800"
      },
      {
        "astId": 28337,
        "contract": "contracts/lend/aave-core-v3/contracts/protocol/pool/PoolConfigurator.sol:PoolConfigurator",
        "label": "_pool",
        "offset": 0,
        "slot": "53",
        "type": "t_contract(IPool)6591"
      }
    ],
    "types": {
      "t_array(t_uint256)50_storage": {
        "base": "t_uint256",
        "encoding": "inplace",
        "label": "uint256[50]",
        "numberOfBytes": "1600"
      },
      "t_bool": {
        "encoding": "inplace",
        "label": "bool",
        "numberOfBytes": "1"
      },
      "t_contract(IPool)6591": {
        "encoding": "inplace",
        "label": "contract IPool",
        "numberOfBytes": "20"
      },
      "t_contract(IPoolAddressesProvider)6800": {
        "encoding": "inplace",
        "label": "contract IPoolAddressesProvider",
        "numberOfBytes": "20"
      },
      "t_uint256": {
        "encoding": "inplace",
        "label": "uint256",
        "numberOfBytes": "32"
      }
    }
  }
}