{
  "address": "0x3ccAc2b66a4398f6f958B8200B5CCA58939AbAB0",
  "abi": [
    {
      "inputs": [
        {
          "internalType": "string",
          "name": "marketId",
          "type": "string"
        },
        {
          "internalType": "address",
          "name": "owner",
          "type": "address"
        }
      ],
      "stateMutability": "nonpayable",
      "type": "constructor"
    },
    {
      "anonymous": false,
      "inputs": [
        {
          "indexed": true,
          "internalType": "address",
          "name": "oldAddress",
          "type": "address"
        },
        {
          "indexed": true,
          "internalType": "address",
          "name": "newAddress",
          "type": "address"
        }
      ],
      "name": "ACLAdminUpdated",
      "type": "event"
    },
    {
      "anonymous": false,
      "inputs": [
        {
          "indexed": true,
          "internalType": "address",
          "name": "oldAddress",
          "type": "address"
        },
        {
          "indexed": true,
          "internalType": "address",
          "name": "newAddress",
          "type": "address"
        }
      ],
      "name": "ACLManagerUpdated",
      "type": "event"
    },
    {
      "anonymous": false,
      "inputs": [
        {
          "indexed": true,
          "internalType": "bytes32",
          "name": "id",
          "type": "bytes32"
        },
        {
          "indexed": true,
          "internalType": "address",
          "name": "oldAddress",
          "type": "address"
        },
        {
          "indexed": true,
          "internalType": "address",
          "name": "newAddress",
          "type": "address"
        }
      ],
      "name": "AddressSet",
      "type": "event"
    },
    {
      "anonymous": false,
      "inputs": [
        {
          "indexed": true,
          "internalType": "bytes32",
          "name": "id",
          "type": "bytes32"
        },
        {
          "indexed": true,
          "internalType": "address",
          "name": "proxyAddress",
          "type": "address"
        },
        {
          "indexed": false,
          "internalType": "address",
          "name": "oldImplementationAddress",
          "type": "address"
        },
        {
          "indexed": true,
          "internalType": "address",
          "name": "newImplementationAddress",
          "type": "address"
        }
      ],
      "name": "AddressSetAsProxy",
      "type": "event"
    },
    {
      "anonymous": false,
      "inputs": [
        {
          "indexed": true,
          "internalType": "string",
          "name": "oldMarketId",
          "type": "string"
        },
        {
          "indexed": true,
          "internalType": "string",
          "name": "newMarketId",
          "type": "string"
        }
      ],
      "name": "MarketIdSet",
      "type": "event"
    },
    {
      "anonymous": false,
      "inputs": [
        {
          "indexed": true,
          "internalType": "address",
          "name": "previousOwner",
          "type": "address"
        },
        {
          "indexed": true,
          "internalType": "address",
          "name": "newOwner",
          "type": "address"
        }
      ],
      "name": "OwnershipTransferred",
      "type": "event"
    },
    {
      "anonymous": false,
      "inputs": [
        {
          "indexed": true,
          "internalType": "address",
          "name": "oldAddress",
          "type": "address"
        },
        {
          "indexed": true,
          "internalType": "address",
          "name": "newAddress",
          "type": "address"
        }
      ],
      "name": "PoolConfiguratorUpdated",
      "type": "event"
    },
    {
      "anonymous": false,
      "inputs": [
        {
          "indexed": true,
          "internalType": "address",
          "name": "oldAddress",
          "type": "address"
        },
        {
          "indexed": true,
          "internalType": "address",
          "name": "newAddress",
          "type": "address"
        }
      ],
      "name": "PoolDataProviderUpdated",
      "type": "event"
    },
    {
      "anonymous": false,
      "inputs": [
        {
          "indexed": true,
          "internalType": "address",
          "name": "oldAddress",
          "type": "address"
        },
        {
          "indexed": true,
          "internalType": "address",
          "name": "newAddress",
          "type": "address"
        }
      ],
      "name": "PoolUpdated",
      "type": "event"
    },
    {
      "anonymous": false,
      "inputs": [
        {
          "indexed": true,
          "internalType": "address",
          "name": "oldAddress",
          "type": "address"
        },
        {
          "indexed": true,
          "internalType": "address",
          "name": "newAddress",
          "type": "address"
        }
      ],
      "name": "PriceOracleSentinelUpdated",
      "type": "event"
    },
    {
      "anonymous": false,
      "inputs": [
        {
          "indexed": true,
          "internalType": "address",
          "name": "oldAddress",
          "type": "address"
        },
        {
          "indexed": true,
          "internalType": "address",
          "name": "newAddress",
          "type": "address"
        }
      ],
      "name": "PriceOracleUpdated",
      "type": "event"
    },
    {
      "anonymous": false,
      "inputs": [
        {
          "indexed": true,
          "internalType": "bytes32",
          "name": "id",
          "type": "bytes32"
        },
        {
          "indexed": true,
          "internalType": "address",
          "name": "proxyAddress",
          "type": "address"
        },
        {
          "indexed": true,
          "internalType": "address",
          "name": "implementationAddress",
          "type": "address"
        }
      ],
      "name": "ProxyCreated",
      "type": "event"
    },
    {
      "inputs": [],
      "name": "getACLAdmin",
      "outputs": [
        {
          "internalType": "address",
          "name": "",
          "type": "address"
        }
      ],
      "stateMutability": "view",
      "type": "function"
    },
    {
      "inputs": [],
      "name": "getACLManager",
      "outputs": [
        {
          "internalType": "address",
          "name": "",
          "type": "address"
        }
      ],
      "stateMutability": "view",
      "type": "function"
    },
    {
      "inputs": [
        {
          "internalType": "bytes32",
          "name": "id",
          "type": "bytes32"
        }
      ],
      "name": "getAddress",
      "outputs": [
        {
          "internalType": "address",
          "name": "",
          "type": "address"
        }
      ],
      "stateMutability": "view",
      "type": "function"
    },
    {
      "inputs": [],
      "name": "getMarketId",
      "outputs": [
        {
          "internalType": "string",
          "name": "",
          "type": "string"
        }
      ],
      "stateMutability": "view",
      "type": "function"
    },
    {
      "inputs": [],
      "name": "getPool",
      "outputs": [
        {
          "internalType": "address",
          "name": "",
          "type": "address"
        }
      ],
      "stateMutability": "view",
      "type": "function"
    },
    {
      "inputs": [],
      "name": "getPoolConfigurator",
      "outputs": [
        {
          "internalType": "address",
          "name": "",
          "type": "address"
        }
      ],
      "stateMutability": "view",
      "type": "function"
    },
    {
      "inputs": [],
      "name": "getPoolDataProvider",
      "outputs": [
        {
          "internalType": "address",
          "name": "",
          "type": "address"
        }
      ],
      "stateMutability": "view",
      "type": "function"
    },
    {
      "inputs": [],
      "name": "getPriceOracle",
      "outputs": [
        {
          "internalType": "address",
          "name": "",
          "type": "address"
        }
      ],
      "stateMutability": "view",
      "type": "function"
    },
    {
      "inputs": [],
      "name": "getPriceOracleSentinel",
      "outputs": [
        {
          "internalType": "address",
          "name": "",
          "type": "address"
        }
      ],
      "stateMutability": "view",
      "type": "function"
    },
    {
      "inputs": [],
      "name": "owner",
      "outputs": [
        {
          "internalType": "address",
          "name": "",
          "type": "address"
        }
      ],
      "stateMutability": "view",
      "type": "function"
    },
    {
      "inputs": [],
      "name": "renounceOwnership",
      "outputs": [],
      "stateMutability": "nonpayable",
      "type": "function"
    },
    {
      "inputs": [
        {
          "internalType": "address",
          "name": "newAclAdmin",
          "type": "address"
        }
      ],
      "name": "setACLAdmin",
      "outputs": [],
      "stateMutability": "nonpayable",
      "type": "function"
    },
    {
      "inputs": [
        {
          "internalType": "address",
          "name": "newAclManager",
          "type": "address"
        }
      ],
      "name": "setACLManager",
      "outputs": [],
      "stateMutability": "nonpayable",
      "type": "function"
    },
    {
      "inputs": [
        {
          "internalType": "bytes32",
          "name": "id",
          "type": "bytes32"
        },
        {
          "internalType": "address",
          "name": "newAddress",
          "type": "address"
        }
      ],
      "name": "setAddress",
      "outputs": [],
      "stateMutability": "nonpayable",
      "type": "function"
    },
    {
      "inputs": [
        {
          "internalType": "bytes32",
          "name": "id",
          "type": "bytes32"
        },
        {
          "internalType": "address",
          "name": "newImplementationAddress",
          "type": "address"
        }
      ],
      "name": "setAddressAsProxy",
      "outputs": [],
      "stateMutability": "nonpayable",
      "type": "function"
    },
    {
      "inputs": [
        {
          "internalType": "string",
          "name": "newMarketId",
          "type": "string"
        }
      ],
      "name": "setMarketId",
      "outputs": [],
      "stateMutability": "nonpayable",
      "type": "function"
    },
    {
      "inputs": [
        {
          "internalType": "address",
          "name": "newPoolConfiguratorImpl",
          "type": "address"
        }
      ],
      "name": "setPoolConfiguratorImpl",
      "outputs": [],
      "stateMutability": "nonpayable",
      "type": "function"
    },
    {
      "inputs": [
        {
          "internalType": "address",
          "name": "newDataProvider",
          "type": "address"
        }
      ],
      "name": "setPoolDataProvider",
      "outputs": [],
      "stateMutability": "nonpayable",
      "type": "function"
    },
    {
      "inputs": [
        {
          "internalType": "address",
          "name": "newPoolImpl",
          "type": "address"
        }
      ],
      "name": "setPoolImpl",
      "outputs": [],
      "stateMutability": "nonpayable",
      "type": "function"
    },
    {
      "inputs": [
        {
          "internalType": "address",
          "name": "newPriceOracle",
          "type": "address"
        }
      ],
      "name": "setPriceOracle",
      "outputs": [],
      "stateMutability": "nonpayable",
      "type": "function"
    },
    {
      "inputs": [
        {
          "internalType": "address",
          "name": "newPriceOracleSentinel",
          "type": "address"
        }
      ],
      "name": "setPriceOracleSentinel",
      "outputs": [],
      "stateMutability": "nonpayable",
      "type": "function"
    },
    {
      "inputs": [
        {
          "internalType": "address",
          "name": "newOwner",
          "type": "address"
        }
      ],
      "name": "transferOwnership",
      "outputs": [],
      "stateMutability": "nonpayable",
      "type": "function"
    }
  ],
  "transactionHash": "0x0c60bf5b73e1c03b6e9273da80e0361f43e24a5021ac713749acc36b4883e351",
  "args": [
    "0",
    "0x84b7A5Bc208a8aA820fE95969737bF008c32d732"
  ],
  "numDeployments": 1,
  "solcInputHash": "5dbdcfdc61a8a3d5780c937fdee66e48",
  "bytecode": "0x60806040523480156200001157600080fd5b5060405162002364380380620023648339810160408190526200003491620003aa565b600080546001600160a01b0319163390811782556040519091829160008051602062002344833981519152908290a3506200006f8262000082565b6200007a816200018d565b5050620004d2565b600060018054620000939062000477565b80601f0160208091040260200160405190810160405280929190818152602001828054620000c19062000477565b8015620001125780601f10620000e65761010080835404028352916020019162000112565b820191906000526020600020905b815481529060010190602001808311620000f457829003601f168201915b5050855193945062000130936001935060208701925090506200029e565b5081604051620001419190620004b4565b604051809103902081604051620001599190620004b4565b604051908190038120907fe685c8cdecc6030c45030fd54778812cb84ed8e4467c38294403d68ba786082390600090a35050565b6000546001600160a01b03163314620001ed5760405162461bcd60e51b815260206004820181905260248201527f4f776e61626c653a2063616c6c6572206973206e6f7420746865206f776e657260448201526064015b60405180910390fd5b6001600160a01b038116620002545760405162461bcd60e51b815260206004820152602660248201527f4f776e61626c653a206e6577206f776e657220697320746865207a65726f206160448201526564647265737360d01b6064820152608401620001e4565b600080546040516001600160a01b03808516939216916000805160206200234483398151915291a3600080546001600160a01b0319166001600160a01b0392909216919091179055565b828054620002ac9062000477565b90600052602060002090601f016020900481019282620002d057600085556200031b565b82601f10620002eb57805160ff19168380011785556200031b565b828001600101855582156200031b579182015b828111156200031b578251825591602001919060010190620002fe565b50620003299291506200032d565b5090565b5b808211156200032957600081556001016200032e565b634e487b7160e01b600052604160045260246000fd5b60005b83811015620003775781810151838201526020016200035d565b8381111562000387576000848401525b50505050565b80516001600160a01b0381168114620003a557600080fd5b919050565b60008060408385031215620003be57600080fd5b82516001600160401b0380821115620003d657600080fd5b818501915085601f830112620003eb57600080fd5b81518181111562000400576200040062000344565b604051601f8201601f19908116603f011681019083821181831017156200042b576200042b62000344565b816040528281528860208487010111156200044557600080fd5b620004588360208301602088016200035a565b80965050505050506200046e602084016200038d565b90509250929050565b600181811c908216806200048c57607f821691505b60208210811415620004ae57634e487b7160e01b600052602260045260246000fd5b50919050565b60008251620004c88184602087016200035a565b9190910192915050565b611e6280620004e26000396000f3fe608060405234801561001057600080fd5b50600436106101825760003560e01c806376d84ffc116100d8578063e4ca28b71161008c578063f2fde38b11610066578063f2fde38b1461045f578063f67b184714610472578063fca513a81461048557600080fd5b8063e4ca28b7146103f0578063e860accb14610403578063ed301ca91461044c57600080fd5b8063a1564406116100bd578063a1564406146103b7578063ca446dd9146103ca578063e44e9ed1146103dd57600080fd5b806376d84ffc146103935780638da5cb5b146103a657600080fd5b80635dcc528c1161013a578063707cd71611610114578063707cd71614610331578063715018a61461037857806374944cec1461038057600080fd5b80635dcc528c146102785780635eb88d3d1461028b578063631adfca146102e457600080fd5b806321f8a7211161016b57806321f8a72114610225578063530e784f1461024e578063568ef4701461026357600080fd5b8063026b1d5f146101875780630e67178c146101e0575b600080fd5b631413d3d360e21b60005260026020527f4fe005067814bb4b024d9515847377d15011b64593c006223b4a722952d2c05a546001600160a01b03165b6040516001600160a01b0390911681526020015b60405180910390f35b6820a1a62fa0a226a4a760b91b60005260026020527ffab167ad2009dcb80ee379700bb4bd029d97c1181ed9d961625632c8a6f051c6546001600160a01b03166101c3565b6101c36102333660046112e2565b6000908152600260205260409020546001600160a01b031690565b61026161025c366004611310565b6104cd565b005b61026b6105a2565b6040516101d79190611390565b6102616102863660046113a3565b610634565b7f50524943455f4f5241434c455f53454e54494e454c000000000000000000000060005260026020527f0d2c1bcee56447b4f46248272f34207a580a5c40f666a31f4e2fbb470ea53ab8546001600160a01b03166101c3565b702827a7a62fa1a7a72324a3aaa920aa27a960791b60005260026020527f90c127ef1c12c03f5781afeca3079527ea5333738078bba6fea26825bf9bf2c5546001600160a01b03166101c3565b6a20a1a62fa6a0a720a3a2a960a91b60005260026020527f9edef266ef35fd0c6e131df0f31a330f3dd4c4d19dd31ed615c21d005c68116b546001600160a01b03166101c3565b6102616106f7565b61026161038e366004611310565b610789565b6102616103a1366004611310565b61086a565b6000546001600160a01b03166101c3565b6102616103c5366004611310565b610937565b6102616103d83660046113a3565b6109e8565b6102616103eb366004611310565b610a8e565b6102616103fe366004611310565b610b5f565b6c2220aa20afa82927ab24a222a960991b60005260026020527fcd7944601aaa5cd7ccdae1bebec659e98c6aac8f12486b30e59db0d39698051f546001600160a01b03166101c3565b61026161045a366004611310565b610c2a565b61026161046d366004611310565b610cf9565b6102616104803660046113e9565b610e18565b6b50524943455f4f5241434c4560a01b60005260026020527f740f710666bd7a12af42df98311e541e47f7fd33d382d11602457a6d540cbd63546001600160a01b03166101c3565b6000546001600160a01b0316331461051a5760405162461bcd60e51b81526020600482018190526024820152600080516020611e0d83398151915260448201526064015b60405180910390fd5b6b50524943455f4f5241434c4560a01b600090815260026020527f740f710666bd7a12af42df98311e541e47f7fd33d382d11602457a6d540cbd6380546001600160a01b038481166001600160a01b03198316811790935560405191169283917f56b5f80d8cac1479698aa7d01605fd6111e90b15fc4d2b377417f46034876cbd9190a35050565b6060600180546105b19061149a565b80601f01602080910402602001604051908101604052809291908181526020018280546105dd9061149a565b801561062a5780601f106105ff5761010080835404028352916020019161062a565b820191906000526020600020905b81548152906001019060200180831161060d57829003601f168201915b5050505050905090565b6000546001600160a01b0316331461067c5760405162461bcd60e51b81526020600482018190526024820152600080516020611e0d8339815191526044820152606401610511565b6000828152600260205260408120546001600160a01b03169061069e84610e6c565b90506106aa8484610f09565b6040516001600160a01b038281168252808516919084169086907f3bbd45b5429b385e3fb37ad5cd1cd1435a3c8ec32196c7937597365a3fd3e99c9060200160405180910390a450505050565b6000546001600160a01b0316331461073f5760405162461bcd60e51b81526020600482018190526024820152600080516020611e0d8339815191526044820152606401610511565b600080546040516001600160a01b03909116907f8be0079c531659141344cd1fd0a4f28419497f9722a3daafe3b4186f6b6457e0908390a3600080546001600160a01b0319169055565b6000546001600160a01b031633146107d15760405162461bcd60e51b81526020600482018190526024820152600080516020611e0d8339815191526044820152606401610511565b7f50524943455f4f5241434c455f53454e54494e454c0000000000000000000000600090815260026020527f0d2c1bcee56447b4f46248272f34207a580a5c40f666a31f4e2fbb470ea53ab880546001600160a01b038481166001600160a01b03198316811790935560405191169283917f5326514eeca90494a14bedabcff812a0e683029ee85d1e23824d44fd14cd6ae79190a35050565b6000546001600160a01b031633146108b25760405162461bcd60e51b81526020600482018190526024820152600080516020611e0d8339815191526044820152606401610511565b6820a1a62fa0a226a4a760b91b600090815260026020527ffab167ad2009dcb80ee379700bb4bd029d97c1181ed9d961625632c8a6f051c680546001600160a01b038481166001600160a01b03198316811790935560405191169283917fe9cf53972264dc95304fd424458745019ddfca0e37ae8f703d74772c41ad115b9190a35050565b6000546001600160a01b0316331461097f5760405162461bcd60e51b81526020600482018190526024820152600080516020611e0d8339815191526044820152606401610511565b6000610991631413d3d360e21b610e6c565b90506109a4631413d3d360e21b83610f09565b816001600160a01b0316816001600160a01b03167f90affc163f1a2dfedcd36aa02ed992eeeba8100a4014f0b4cdc20ea265a6662760405160405180910390a35050565b6000546001600160a01b03163314610a305760405162461bcd60e51b81526020600482018190526024820152600080516020611e0d8339815191526044820152606401610511565b60008281526002602052604080822080546001600160a01b031981166001600160a01b038681169182179093559251911692839186917f9ef0e8c8e52743bb38b83b17d9429141d494b8041ca6d616a6c77cebae9cd8b791a4505050565b6000546001600160a01b03163314610ad65760405162461bcd60e51b81526020600482018190526024820152600080516020611e0d8339815191526044820152606401610511565b6c2220aa20afa82927ab24a222a960991b600090815260026020527fcd7944601aaa5cd7ccdae1bebec659e98c6aac8f12486b30e59db0d39698051f80546001600160a01b038481166001600160a01b03198316811790935560405191169283917fc853974cfbf81487a14a23565917bee63f527853bcb5fa54f2ae1cdf8a38356d9190a35050565b6000546001600160a01b03163314610ba75760405162461bcd60e51b81526020600482018190526024820152600080516020611e0d8339815191526044820152606401610511565b6000610bc6702827a7a62fa1a7a72324a3aaa920aa27a960791b610e6c565b9050610be6702827a7a62fa1a7a72324a3aaa920aa27a960791b83610f09565b816001600160a01b0316816001600160a01b03167f8932892569eba59c8382a089d9b732d1f49272878775235761a2a6b0309cd46560405160405180910390a35050565b6000546001600160a01b03163314610c725760405162461bcd60e51b81526020600482018190526024820152600080516020611e0d8339815191526044820152606401610511565b6a20a1a62fa6a0a720a3a2a960a91b600090815260026020527f9edef266ef35fd0c6e131df0f31a330f3dd4c4d19dd31ed615c21d005c68116b80546001600160a01b038481166001600160a01b03198316811790935560405191169283917fb30efa04327bb8a537d61cc1e5c48095345ad18ef7cc04e6bacf7dfb6caaf5079190a35050565b6000546001600160a01b03163314610d415760405162461bcd60e51b81526020600482018190526024820152600080516020611e0d8339815191526044820152606401610511565b6001600160a01b038116610dbd5760405162461bcd60e51b815260206004820152602660248201527f4f776e61626c653a206e6577206f776e657220697320746865207a65726f206160448201527f64647265737300000000000000000000000000000000000000000000000000006064820152608401610511565b600080546040516001600160a01b03808516939216917f8be0079c531659141344cd1fd0a4f28419497f9722a3daafe3b4186f6b6457e091a3600080546001600160a01b0319166001600160a01b0392909216919091179055565b6000546001600160a01b03163314610e605760405162461bcd60e51b81526020600482018190526024820152600080516020611e0d8339815191526044820152606401610511565b610e698161113f565b50565b6000818152600260205260408120546001600160a01b031680610e925750600092915050565b6000819050806001600160a01b0316635c60da1b6040518163ffffffff1660e01b81526004016020604051808303816000875af1158015610ed7573d6000803e3d6000fd5b505050506040513d601f19601f82011682018060405250810190610efb91906114cf565b949350505050565b50919050565b6000828152600260205260408082205490513060248201526001600160a01b039091169190819060440160408051601f198184030181529190526020810180517bffffffffffffffffffffffffffffffffffffffffffffffffffffffff167fc4d66de80000000000000000000000000000000000000000000000000000000017905290506001600160a01b0383166110bb5730604051610fa89061123c565b6001600160a01b039091168152602001604051809103906000f080158015610fd4573d6000803e3d6000fd5b506000868152600260205260409081902080546001600160a01b0319166001600160a01b03841690811790915590517fd1f578940000000000000000000000000000000000000000000000000000000081529194508493509063d1f578949061104390879085906004016114ec565b600060405180830381600087803b15801561105d57600080fd5b505af1158015611071573d6000803e3d6000fd5b50505050836001600160a01b0316836001600160a01b0316867f4a465a9bd819d9662563c1e11ae958f8109e437e7f4bf1c6ef0b9a7b3f35d47860405160405180910390a4611138565b6040517f4f1ef2860000000000000000000000000000000000000000000000000000000081528392506001600160a01b03831690634f1ef2869061110590879085906004016114ec565b600060405180830381600087803b15801561111f57600080fd5b505af1158015611133573d6000803e3d6000fd5b505050505b5050505050565b60006001805461114e9061149a565b80601f016020809104026020016040519081016040528092919081815260200182805461117a9061149a565b80156111c75780601f1061119c576101008083540402835291602001916111c7565b820191906000526020600020905b8154815290600101906020018083116111aa57829003601f168201915b505085519394506111e393600193506020870192509050611249565b50816040516111f2919061150e565b604051809103902081604051611208919061150e565b604051908190038120907fe685c8cdecc6030c45030fd54778812cb84ed8e4467c38294403d68ba786082390600090a35050565b6108e28061152b83390190565b8280546112559061149a565b90600052602060002090601f01602090048101928261127757600085556112bd565b82601f1061129057805160ff19168380011785556112bd565b828001600101855582156112bd579182015b828111156112bd5782518255916020019190600101906112a2565b506112c99291506112cd565b5090565b5b808211156112c957600081556001016112ce565b6000602082840312156112f457600080fd5b5035919050565b6001600160a01b0381168114610e6957600080fd5b60006020828403121561132257600080fd5b813561132d816112fb565b9392505050565b60005b8381101561134f578181015183820152602001611337565b8381111561135e576000848401525b50505050565b6000815180845261137c816020860160208601611334565b601f01601f19169290920160200192915050565b60208152600061132d6020830184611364565b600080604083850312156113b657600080fd5b8235915060208301356113c8816112fb565b809150509250929050565b634e487b7160e01b600052604160045260246000fd5b6000602082840312156113fb57600080fd5b813567ffffffffffffffff8082111561141357600080fd5b818401915084601f83011261142757600080fd5b813581811115611439576114396113d3565b604051601f8201601f19908116603f01168101908382118183101715611461576114616113d3565b8160405282815287602084870101111561147a57600080fd5b826020860160208301376000928101602001929092525095945050505050565b600181811c908216806114ae57607f821691505b60208210811415610f0357634e487b7160e01b600052602260045260246000fd5b6000602082840312156114e157600080fd5b815161132d816112fb565b6001600160a01b0383168152604060208201526000610efb6040830184611364565b60008251611520818460208701611334565b919091019291505056fe60a060405234801561001057600080fd5b506040516108e23803806108e283398101604081905261002f91610040565b6001600160a01b0316608052610070565b60006020828403121561005257600080fd5b81516001600160a01b038116811461006957600080fd5b9392505050565b6080516108346100ae600039600081816101350152818161017a01528181610233015281816103a9015281816103d2015261050f01526108346000f3fe60806040526004361061005a5760003560e01c80635c60da1b116100435780635c60da1b14610097578063d1f57894146100c8578063f851a440146100db5761005a565b80633659cfe6146100645780634f1ef28614610084575b6100626100f0565b005b34801561007057600080fd5b5061006261007f3660046105fb565b61012a565b61006261009236600461061d565b61016f565b3480156100a357600080fd5b506100ac610226565b6040516001600160a01b03909116815260200160405180910390f35b6100626100d63660046106b6565b61028a565b3480156100e757600080fd5b506100ac61039c565b6100f86103f4565b6101286101237f360894a13ba1a3210667c828492db98dca3e2076cc3735a920a3ca505d382bbc5490565b6103fc565b565b336001600160a01b037f00000000000000000000000000000000000000000000000000000000000000001614156101675761016481610420565b50565b6101646100f0565b336001600160a01b037f0000000000000000000000000000000000000000000000000000000000000000161415610219576101a983610420565b6000836001600160a01b031683836040516101c5929190610778565b600060405180830381855af49150503d8060008114610200576040519150601f19603f3d011682016040523d82523d6000602084013e610205565b606091505b505090508061021357600080fd5b50505050565b6102216100f0565b505050565b6000336001600160a01b037f000000000000000000000000000000000000000000000000000000000000000016141561027f57507f360894a13ba1a3210667c828492db98dca3e2076cc3735a920a3ca505d382bbc5490565b6102876100f0565b90565b60006102b47f360894a13ba1a3210667c828492db98dca3e2076cc3735a920a3ca505d382bbc5490565b6001600160a01b0316146102c757600080fd5b6102f260017f360894a13ba1a3210667c828492db98dca3e2076cc3735a920a3ca505d382bbd610788565b7f360894a13ba1a3210667c828492db98dca3e2076cc3735a920a3ca505d382bbc14610320576103206107ad565b61032982610460565b805115610398576000826001600160a01b03168260405161034a91906107c3565b600060405180830381855af49150503d8060008114610385576040519150601f19603f3d011682016040523d82523d6000602084013e61038a565b606091505b505090508061022157600080fd5b5050565b6000336001600160a01b037f000000000000000000000000000000000000000000000000000000000000000016141561027f57507f000000000000000000000000000000000000000000000000000000000000000090565b610128610504565b3660008037600080366000845af43d6000803e80801561041b573d6000f35b3d6000fd5b61042981610460565b6040516001600160a01b038216907fbc7cd75a20ee27fd9adebab32041f755214dbc6bffa90cc0225b39da2e5c2d3b90600090a250565b610469816105a3565b6104e05760405162461bcd60e51b815260206004820152603b60248201527f43616e6e6f742073657420612070726f787920696d706c656d656e746174696f60448201527f6e20746f2061206e6f6e2d636f6e74726163742061646472657373000000000060648201526084015b60405180910390fd5b7f360894a13ba1a3210667c828492db98dca3e2076cc3735a920a3ca505d382bbc55565b336001600160a01b037f00000000000000000000000000000000000000000000000000000000000000001614156101285760405162461bcd60e51b815260206004820152603260248201527f43616e6e6f742063616c6c2066616c6c6261636b2066756e6374696f6e20667260448201527f6f6d207468652070726f78792061646d696e000000000000000000000000000060648201526084016104d7565b6000813f7fc5d2460186f7233c927e7db2dcc703c0e500b653ca82273b7bfad8045d85a4708181148015906105d757508115155b949350505050565b80356001600160a01b03811681146105f657600080fd5b919050565b60006020828403121561060d57600080fd5b610616826105df565b9392505050565b60008060006040848603121561063257600080fd5b61063b846105df565b9250602084013567ffffffffffffffff8082111561065857600080fd5b818601915086601f83011261066c57600080fd5b81358181111561067b57600080fd5b87602082850101111561068d57600080fd5b6020830194508093505050509250925092565b634e487b7160e01b600052604160045260246000fd5b600080604083850312156106c957600080fd5b6106d2836105df565b9150602083013567ffffffffffffffff808211156106ef57600080fd5b818501915085601f83011261070357600080fd5b813581811115610715576107156106a0565b604051601f8201601f19908116603f0116810190838211818310171561073d5761073d6106a0565b8160405282815288602084870101111561075657600080fd5b8260208601602083013760006020848301015280955050505050509250929050565b8183823760009101908152919050565b6000828210156107a857634e487b7160e01b600052601160045260246000fd5b500390565b634e487b7160e01b600052600160045260246000fd5b6000825160005b818110156107e457602081860181015185830152016107ca565b818111156107f3576000828501525b50919091019291505056fea2646970667358221220b9c3e8430c86d994d249a8f24c39ab4a48fc6db78fe3725c2bf0d276b64697fa64736f6c634300080a00334f776e61626c653a2063616c6c6572206973206e6f7420746865206f776e6572a26469706673582212204a6e66b1adbb550d75f6c77000b491ae35f35826057862a1d35799113f3e9bc064736f6c634300080a00338be0079c531659141344cd1fd0a4f28419497f9722a3daafe3b4186f6b6457e0",
  "devdoc": {
    "author": "Aave",
    "details": "Acts as factory of proxies and admin of those, so with right to change its implementationsOwned by the Aave Governance",
    "kind": "dev",
    "methods": {
      "constructor": {
        "details": "Constructor.",
        "params": {
          "marketId": "The identifier of the market.",
          "owner": "The owner address of this contract."
        }
      },
      "getACLAdmin()": {
        "returns": {
          "_0": "The address of the ACL admin"
        }
      },
      "getACLManager()": {
        "returns": {
          "_0": "The address of the ACLManager"
        }
      },
      "getAddress(bytes32)": {
        "details": "The returned address might be an EOA or a contract, potentially proxiedIt returns ZERO if there is no registered address with the given id",
        "params": {
          "id": "The id"
        },
        "returns": {
          "_0": "The address of the registered for the specified id"
        }
      },
      "getMarketId()": {
        "returns": {
          "_0": "The market id"
        }
      },
      "getPool()": {
        "returns": {
          "_0": "The Pool proxy address"
        }
      },
      "getPoolConfigurator()": {
        "returns": {
          "_0": "The PoolConfigurator proxy address"
        }
      },
      "getPoolDataProvider()": {
        "returns": {
          "_0": "The address of the DataProvider"
        }
      },
      "getPriceOracle()": {
        "returns": {
          "_0": "The address of the PriceOracle"
        }
      },
      "getPriceOracleSentinel()": {
        "returns": {
          "_0": "The address of the PriceOracleSentinel"
        }
      },
      "owner()": {
        "details": "Returns the address of the current owner."
      },
      "renounceOwnership()": {
        "details": "Leaves the contract without owner. It will not be possible to call `onlyOwner` functions anymore. Can only be called by the current owner. NOTE: Renouncing ownership will leave the contract without an owner, thereby removing any functionality that is only available to the owner."
      },
      "setACLAdmin(address)": {
        "params": {
          "newAclAdmin": "The address of the new ACL admin"
        }
      },
      "setACLManager(address)": {
        "params": {
          "newAclManager": "The address of the new ACLManager"
        }
      },
      "setAddress(bytes32,address)": {
        "details": "IMPORTANT Use this function carefully, as it will do a hard replacement",
        "params": {
          "id": "The id",
          "newAddress": "The address to set"
        }
      },
      "setAddressAsProxy(bytes32,address)": {
        "details": "IMPORTANT Use this function carefully, only for ids that don't have an explicit setter function, in order to avoid unexpected consequences",
        "params": {
          "id": "The id",
          "newImplementationAddress": "The address of the new implementation"
        }
      },
      "setMarketId(string)": {
        "details": "This can be used to create an onchain registry of PoolAddressesProviders to identify and validate multiple Aave markets.",
        "params": {
          "newMarketId": "The market id"
        }
      },
      "setPoolConfiguratorImpl(address)": {
        "params": {
          "newPoolConfiguratorImpl": "The new PoolConfigurator implementation"
        }
      },
      "setPoolDataProvider(address)": {
        "params": {
          "newDataProvider": "The address of the new DataProvider"
        }
      },
      "setPoolImpl(address)": {
        "params": {
          "newPoolImpl": "The new Pool implementation"
        }
      },
      "setPriceOracle(address)": {
        "params": {
          "newPriceOracle": "The address of the new PriceOracle"
        }
      },
      "setPriceOracleSentinel(address)": {
        "params": {
          "newPriceOracleSentinel": "The address of the new PriceOracleSentinel"
        }
      },
      "transferOwnership(address)": {
        "details": "Transfers ownership of the contract to a new account (`newOwner`). Can only be called by the current owner."
      }
    },
    "title": "PoolAddressesProvider",
    "version": 1
  },
  "userdoc": {
    "kind": "user",
    "methods": {
      "getACLAdmin()": {
        "notice": "Returns the address of the ACL admin."
      },
      "getACLManager()": {
        "notice": "Returns the address of the ACL manager."
      },
      "getAddress(bytes32)": {
        "notice": "Returns an address by its identifier."
      },
      "getMarketId()": {
        "notice": "Returns the id of the Aave market to which this contract points to."
      },
      "getPool()": {
        "notice": "Returns the address of the Pool proxy."
      },
      "getPoolConfigurator()": {
        "notice": "Returns the address of the PoolConfigurator proxy."
      },
      "getPoolDataProvider()": {
        "notice": "Returns the address of the data provider."
      },
      "getPriceOracle()": {
        "notice": "Returns the address of the price oracle."
      },
      "getPriceOracleSentinel()": {
        "notice": "Returns the address of the price oracle sentinel."
      },
      "setACLAdmin(address)": {
        "notice": "Updates the address of the ACL admin."
      },
      "setACLManager(address)": {
        "notice": "Updates the address of the ACL manager."
      },
      "setAddress(bytes32,address)": {
        "notice": "Sets an address for an id replacing the address saved in the addresses map."
      },
      "setAddressAsProxy(bytes32,address)": {
        "notice": "General function to update the implementation of a proxy registered with certain `id`. If there is no proxy registered, it will instantiate one and set as implementation the `newImplementationAddress`."
      },
      "setMarketId(string)": {
        "notice": "Associates an id with a specific PoolAddressesProvider."
      },
      "setPoolConfiguratorImpl(address)": {
        "notice": "Updates the implementation of the PoolConfigurator, or creates a proxy setting the new `PoolConfigurator` implementation when the function is called for the first time."
      },
      "setPoolDataProvider(address)": {
        "notice": "Updates the address of the data provider."
      },
      "setPoolImpl(address)": {
        "notice": "Updates the implementation of the Pool, or creates a proxy setting the new `pool` implementation when the function is called for the first time."
      },
      "setPriceOracle(address)": {
        "notice": "Updates the address of the price oracle."
      },
      "setPriceOracleSentinel(address)": {
        "notice": "Updates the address of the price oracle sentinel."
      }
    },
    "notice": "Main registry of addresses part of or connected to the protocol, including permissioned roles",
    "version": 1
  },
  "storageLayout": {
    "storage": [
      {
        "astId": 3042,
        "contract": "contracts/lend/aave-core-v3/contracts/protocol/configuration/PoolAddressesProvider.sol:PoolAddressesProvider",
        "label": "_owner",
        "offset": 0,
        "slot": "0",
        "type": "t_address"
      },
      {
        "astId": 13383,
        "contract": "contracts/lend/aave-core-v3/contracts/protocol/configuration/PoolAddressesProvider.sol:PoolAddressesProvider",
        "label": "_marketId",
        "offset": 0,
        "slot": "1",
        "type": "t_string_storage"
      },
      {
        "astId": 13387,
        "contract": "contracts/lend/aave-core-v3/contracts/protocol/configuration/PoolAddressesProvider.sol:PoolAddressesProvider",
        "label": "_addresses",
        "offset": 0,
        "slot": "2",
        "type": "t_mapping(t_bytes32,t_address)"
      }
    ],
    "types": {
      "t_address": {
        "encoding": "inplace",
        "label": "address",
        "numberOfBytes": "20"
      },
      "t_bytes32": {
        "encoding": "inplace",
        "label": "bytes32",
        "numberOfBytes": "32"
      },
      "t_mapping(t_bytes32,t_address)": {
        "encoding": "mapping",
        "key": "t_bytes32",
        "label": "mapping(bytes32 => address)",
        "numberOfBytes": "32",
        "value": "t_address"
      },
      "t_string_storage": {
        "encoding": "bytes",
        "label": "string",
        "numberOfBytes": "32"
      }
    }
  }
}